{
  "contractName": "ElectraAccessControl",
  "abi": [
    {
      "inputs": [],
      "stateMutability": "nonpayable",
      "type": "constructor"
    },
    {
      "anonymous": false,
      "inputs": [
        {
          "indexed": true,
          "internalType": "address",
          "name": "oldCommissioner",
          "type": "address"
        },
        {
          "indexed": true,
          "internalType": "address",
          "name": "newCommissioner",
          "type": "address"
        }
      ],
      "name": "CommissionerChanged",
      "type": "event"
    },
    {
      "anonymous": false,
      "inputs": [
        {
          "indexed": true,
          "internalType": "address",
          "name": "activatedBy",
          "type": "address"
        }
      ],
      "name": "EmergencyActivated",
      "type": "event"
    },
    {
      "anonymous": false,
      "inputs": [
        {
          "indexed": true,
          "internalType": "address",
          "name": "deactivatedBy",
          "type": "address"
        }
      ],
      "name": "EmergencyDeactivated",
      "type": "event"
    },
    {
      "anonymous": false,
      "inputs": [
        {
          "indexed": true,
          "internalType": "address",
          "name": "user",
          "type": "address"
        },
        {
          "indexed": true,
          "internalType": "enum ElectraAccessControl.Role",
          "name": "role",
          "type": "uint8"
        },
        {
          "indexed": true,
          "internalType": "address",
          "name": "assignedBy",
          "type": "address"
        }
      ],
      "name": "RoleAssigned",
      "type": "event"
    },
    {
      "anonymous": false,
      "inputs": [
        {
          "indexed": true,
          "internalType": "address",
          "name": "user",
          "type": "address"
        },
        {
          "indexed": true,
          "internalType": "enum ElectraAccessControl.Role",
          "name": "oldRole",
          "type": "uint8"
        },
        {
          "indexed": true,
          "internalType": "address",
          "name": "revokedBy",
          "type": "address"
        }
      ],
      "name": "RoleRevoked",
      "type": "event"
    },
    {
      "anonymous": false,
      "inputs": [
        {
          "indexed": true,
          "internalType": "address",
          "name": "pausedBy",
          "type": "address"
        }
      ],
      "name": "SystemPaused",
      "type": "event"
    },
    {
      "anonymous": false,
      "inputs": [
        {
          "indexed": true,
          "internalType": "address",
          "name": "unpausedBy",
          "type": "address"
        }
      ],
      "name": "SystemUnpaused",
      "type": "event"
    },
    {
      "inputs": [],
      "name": "currentCommissioner",
      "outputs": [
        {
          "internalType": "address",
          "name": "",
          "type": "address"
        }
      ],
      "stateMutability": "view",
      "type": "function"
    },
    {
      "inputs": [],
      "name": "emergencyMode",
      "outputs": [
        {
          "internalType": "bool",
          "name": "",
          "type": "bool"
        }
      ],
      "stateMutability": "view",
      "type": "function"
    },
    {
      "inputs": [],
      "name": "systemOwner",
      "outputs": [
        {
          "internalType": "address",
          "name": "",
          "type": "address"
        }
      ],
      "stateMutability": "view",
      "type": "function"
    },
    {
      "inputs": [],
      "name": "systemPaused",
      "outputs": [
        {
          "internalType": "bool",
          "name": "",
          "type": "bool"
        }
      ],
      "stateMutability": "view",
      "type": "function"
    },
    {
      "inputs": [],
      "name": "totalAdmins",
      "outputs": [
        {
          "internalType": "uint256",
          "name": "",
          "type": "uint256"
        }
      ],
      "stateMutability": "view",
      "type": "function"
    },
    {
      "inputs": [],
      "name": "totalObservers",
      "outputs": [
        {
          "internalType": "uint256",
          "name": "",
          "type": "uint256"
        }
      ],
      "stateMutability": "view",
      "type": "function"
    },
    {
      "inputs": [],
      "name": "totalVoters",
      "outputs": [
        {
          "internalType": "uint256",
          "name": "",
          "type": "uint256"
        }
      ],
      "stateMutability": "view",
      "type": "function"
    },
    {
      "inputs": [
        {
          "internalType": "address",
          "name": "",
          "type": "address"
        }
      ],
      "name": "users",
      "outputs": [
        {
          "internalType": "enum ElectraAccessControl.Role",
          "name": "role",
          "type": "uint8"
        },
        {
          "internalType": "bool",
          "name": "isActive",
          "type": "bool"
        },
        {
          "internalType": "uint256",
          "name": "assignedAt",
          "type": "uint256"
        },
        {
          "internalType": "address",
          "name": "assignedBy",
          "type": "address"
        }
      ],
      "stateMutability": "view",
      "type": "function"
    },
    {
      "inputs": [
        {
          "internalType": "address",
          "name": "_user",
          "type": "address"
        },
        {
          "internalType": "enum ElectraAccessControl.Role",
          "name": "_role",
          "type": "uint8"
        }
      ],
      "name": "assignRole",
      "outputs": [],
      "stateMutability": "nonpayable",
      "type": "function"
    },
    {
      "inputs": [
        {
          "internalType": "address",
          "name": "_user",
          "type": "address"
        }
      ],
      "name": "revokeRole",
      "outputs": [],
      "stateMutability": "nonpayable",
      "type": "function"
    },
    {
      "inputs": [
        {
          "internalType": "address",
          "name": "_user",
          "type": "address"
        }
      ],
      "name": "deactivateUser",
      "outputs": [],
      "stateMutability": "nonpayable",
      "type": "function"
    },
    {
      "inputs": [
        {
          "internalType": "address",
          "name": "_user",
          "type": "address"
        }
      ],
      "name": "reactivateUser",
      "outputs": [],
      "stateMutability": "nonpayable",
      "type": "function"
    },
    {
      "inputs": [],
      "name": "pauseSystem",
      "outputs": [],
      "stateMutability": "nonpayable",
      "type": "function"
    },
    {
      "inputs": [],
      "name": "unpauseSystem",
      "outputs": [],
      "stateMutability": "nonpayable",
      "type": "function"
    },
    {
      "inputs": [],
      "name": "activateEmergency",
      "outputs": [],
      "stateMutability": "nonpayable",
      "type": "function"
    },
    {
      "inputs": [],
      "name": "deactivateEmergency",
      "outputs": [],
      "stateMutability": "nonpayable",
      "type": "function"
    },
    {
      "inputs": [
        {
          "internalType": "address",
          "name": "_newOwner",
          "type": "address"
        }
      ],
      "name": "transferOwnership",
      "outputs": [],
      "stateMutability": "nonpayable",
      "type": "function"
    },
    {
      "inputs": [
        {
          "internalType": "address",
          "name": "_user",
          "type": "address"
        },
        {
          "internalType": "enum ElectraAccessControl.Role",
          "name": "_role",
          "type": "uint8"
        }
      ],
      "name": "checkRole",
      "outputs": [
        {
          "internalType": "bool",
          "name": "",
          "type": "bool"
        }
      ],
      "stateMutability": "view",
      "type": "function"
    },
    {
      "inputs": [
        {
          "internalType": "address",
          "name": "_user",
          "type": "address"
        },
        {
          "internalType": "enum ElectraAccessControl.Role[]",
          "name": "_roles",
          "type": "uint8[]"
        }
      ],
      "name": "onlyAnyRole",
      "outputs": [
        {
          "internalType": "bool",
          "name": "",
          "type": "bool"
        }
      ],
      "stateMutability": "view",
      "type": "function"
    },
    {
      "inputs": [
        {
          "internalType": "address",
          "name": "_user",
          "type": "address"
        }
      ],
      "name": "getUserInfo",
      "outputs": [
        {
          "internalType": "enum ElectraAccessControl.Role",
          "name": "role",
          "type": "uint8"
        },
        {
          "internalType": "bool",
          "name": "isActive",
          "type": "bool"
        },
        {
          "internalType": "uint256",
          "name": "assignedAt",
          "type": "uint256"
        },
        {
          "internalType": "address",
          "name": "assignedBy",
          "type": "address"
        }
      ],
      "stateMutability": "view",
      "type": "function"
    },
    {
      "inputs": [],
      "name": "getSystemStats",
      "outputs": [
        {
          "internalType": "uint256",
          "name": "admins",
          "type": "uint256"
        },
        {
          "internalType": "uint256",
          "name": "voters",
          "type": "uint256"
        },
        {
          "internalType": "uint256",
          "name": "observers",
          "type": "uint256"
        },
        {
          "internalType": "bool",
          "name": "paused",
          "type": "bool"
        },
        {
          "internalType": "bool",
          "name": "emergency",
          "type": "bool"
        },
        {
          "internalType": "address",
          "name": "owner",
          "type": "address"
        },
        {
          "internalType": "address",
          "name": "commissioner",
          "type": "address"
        }
      ],
      "stateMutability": "view",
      "type": "function"
    },
    {
      "inputs": [],
      "name": "isSystemOperational",
      "outputs": [
        {
          "internalType": "bool",
          "name": "",
          "type": "bool"
        }
      ],
      "stateMutability": "view",
      "type": "function"
    }
  ],
  "bytecode": "0x60806040526006805461ffff1916905534801561001b57600080fd5b5060018054336001600160a01b031991821681178355600280549092168117909155604080516080810182526004808252602080830186905242838501526060830185905260009485528490529190922082518154939491939092849260ff199092169190849081111561009157610091610114565b02179055506020820151815461ff0019166101009115159190910217815560408201516001820155606090910151600290910180546001600160a01b0319166001600160a01b0390921691909117905533600460405133907f2459ac88ac07c4020108de12f1f8675bbf7e6928b4cfc156bde4727aacf7897390600090a461012a565b634e487b7160e01b600052602160045260246000fd5b6119dd806101396000396000f3fe608060405234801561001057600080fd5b50600436106101425760003560e01c806381a29457116100b8578063b3363c461161007c578063b3363c46146102b9578063d1ce59a7146102cc578063dc1d4fb71461032c578063eb68048b14610334578063f2fde38b1461033d578063fa6869481461035057600080fd5b806381a29457146102445780639593c69c146102575780639d2f83f014610260578063a7acaffa1461026d578063a87430ba1461027557600080fd5b8063457e8b971161010a578063457e8b97146101d45780634c761240146101dc5780635f5300ff146101e4578063630a195b146101fb5780636386c1c71461020e57806380e52e3f1461023157600080fd5b80630905f560146101475780631a47767b1461016e57806323a3ad7214610183578063337792541461019657806345069592146101c1575b600080fd5b60065461015990610100900460ff1681565b60405190151581526020015b60405180910390f35b61018161017c3660046116a3565b610358565b005b6101596101913660046116cd565b610534565b6001546101a9906001600160a01b031681565b6040516001600160a01b039091168152602001610165565b6002546101a9906001600160a01b031681565b6101816105a8565b61018161067b565b6101ed60045481565b604051908152602001610165565b6101816102093660046116cd565b61073a565b61022161021c3660046116a3565b610b52565b6040516101659493929190611716565b61018161023f3660046116a3565b610c01565b6101816102523660046116a3565b610ee2565b6101ed60055481565b6006546101599060ff1681565b610159611071565b6102216102833660046116a3565b60006020819052908152604090208054600182015460029092015460ff808316936101009093041691906001600160a01b031684565b6101596102c7366004611773565b611094565b6003546004546005546006546001546002546040805196875260208701959095529385019290925260ff8082161515606086015261010090910416151560808401526001600160a01b0390811660a08401521660c082015260e001610165565b610181611152565b6101ed60035481565b61018161034b3660046116a3565b61121e565b6101816114b3565b6002546001600160a01b031633148061037b57506001546001600160a01b031633145b6103a05760405162461bcd60e51b81526004016103979061184b565b60405180910390fd5b60065460ff16156103c35760405162461bcd60e51b81526004016103979061189d565b6001600160a01b0381166103e95760405162461bcd60e51b8152600401610397906118d4565b6001546001600160a01b03908116908216036104475760405162461bcd60e51b815260206004820152601760248201527f43616e6e6f742064656163746976617465206f776e65720000000000000000006044820152606401610397565b6002546001600160a01b03908116908216036104a55760405162461bcd60e51b815260206004820152601e60248201527f43616e6e6f74206465616374697661746520636f6d6d697373696f6e657200006044820152606401610397565b6001600160a01b038116600090815260208190526040902054610100900460ff166105125760405162461bcd60e51b815260206004820152601860248201527f5573657220697320616c726561647920696e61637469766500000000000000006044820152606401610397565b6001600160a01b03166000908152602081905260409020805461ff0019169055565b600081600481111561054857610548611700565b6001600160a01b03841660009081526020819052604090205460ff16600481111561057557610575611700565b14801561059f57506001600160a01b038316600090815260208190526040902054610100900460ff165b90505b92915050565b6002546001600160a01b03163314806105cb57506001546001600160a01b031633145b6105e75760405162461bcd60e51b81526004016103979061184b565b600654610100900460ff161561063f5760405162461bcd60e51b815260206004820181905260248201527f456d657267656e6379206d6f646520697320616c7265616479206163746976656044820152606401610397565b6006805461ffff191661010117905560405133907f9a6c70a9b6cc4c8f400cf98c010ae7db0524ed985860f1c0b7366d82b200008390600090a2565b6002546001600160a01b031633148061069e57506001546001600160a01b031633145b6106ba5760405162461bcd60e51b81526004016103979061184b565b60065460ff166107035760405162461bcd60e51b815260206004820152601460248201527314de5cdd195b481a5cc81b9bdd081c185d5cd95960621b6044820152606401610397565b6006805460ff1916905560405133907f92414512bd79c80103975d8bef2f4e78aa5930c2869b4bd6139d98836ba8d91890600090a2565b6002546001600160a01b031633148061075d57506001546001600160a01b031633145b6107795760405162461bcd60e51b81526004016103979061184b565b60065460ff161561079c5760405162461bcd60e51b81526004016103979061189d565b6001600160a01b0382166107c25760405162461bcd60e51b8152600401610397906118d4565b60008160048111156107d6576107d6611700565b036108235760405162461bcd60e51b815260206004820152601760248201527f43616e6e6f742061737369676e204e4f4e4520726f6c650000000000000000006044820152606401610397565b6001546001600160a01b0383811691161415806108515750600481600481111561084f5761084f611700565b145b61089d5760405162461bcd60e51b815260206004820152601a60248201527f4f776e6572206d75737420626520636f6d6d697373696f6e65720000000000006044820152606401610397565b60048160048111156108b1576108b1611700565b0361097e576001546001600160a01b031633146109205760405162461bcd60e51b815260206004820152602760248201527f4f6e6c79206f776e65722063616e2061737369676e20636f6d6d697373696f6e604482015266657220726f6c6560c81b6064820152608401610397565b6002546001600160a01b039081169083160361097e5760405162461bcd60e51b815260206004820152601c60248201527f5573657220697320616c726561647920636f6d6d697373696f6e6572000000006044820152606401610397565b6001600160a01b03821660009081526020819052604090205460ff166109a68183600161156c565b60405180608001604052808360048111156109c3576109c3611700565b8152602001600115158152602001428152602001336001600160a01b0316815250600080856001600160a01b03166001600160a01b0316815260200190815260200160002060008201518160000160006101000a81548160ff02191690836004811115610a3257610a32611700565b02179055506020820151815461ff0019166101009115159190910217815560408201516001820155606090910151600290910180546001600160a01b0319166001600160a01b039092169190911790556004826004811115610a9657610a96611700565b148015610ab157506002546001600160a01b03848116911614155b15610b0657600280546001600160a01b038581166001600160a01b0319831681179093556040519116919082907fd5ac32accaab437dd0b2a40e9ec05c4b9b41fb7008b2821e9c6bf8c6c6751eeb90600090a3505b33826004811115610b1957610b19611700565b6040516001600160a01b038616907f2459ac88ac07c4020108de12f1f8675bbf7e6928b4cfc156bde4727aacf7897390600090a4505050565b6001600160a01b038116600090815260208190526040808220815160808101909252805483928392839283929190829060ff166004811115610b9657610b96611700565b6004811115610ba757610ba7611700565b81528154610100900460ff16151560208083019190915260018301546040808401919091526002909301546001600160a01b0316606092830152835190840151928401519390910151909991985091965090945092505050565b6002546001600160a01b0316331480610c2457506001546001600160a01b031633145b610c405760405162461bcd60e51b81526004016103979061184b565b60065460ff1615610c635760405162461bcd60e51b81526004016103979061189d565b6001600160a01b038116610c895760405162461bcd60e51b8152600401610397906118d4565b6001546001600160a01b0390811690821603610ce75760405162461bcd60e51b815260206004820152601a60248201527f43616e6e6f74207265766f6b65206f776e6572277320726f6c650000000000006044820152606401610397565b6002546001600160a01b0390811690821603610d4f5760405162461bcd60e51b815260206004820152602160248201527f43616e6e6f74207265766f6b6520636f6d6d697373696f6e6572277320726f6c6044820152606560f81b6064820152608401610397565b6001600160a01b03811660009081526020819052604081205460ff166004811115610d7c57610d7c611700565b03610dc95760405162461bcd60e51b815260206004820152601a60248201527f5573657220686173206e6f20726f6c6520746f207265766f6b650000000000006044820152606401610397565b6001600160a01b03811660009081526020819052604081205460ff1690610df29082908061156c565b6040805160808101825260008082526020808301829052828401829052606083018290526001600160a01b03861682528190529190912081518154829060ff19166001836004811115610e4757610e47611700565b02179055506020820151815461ff0019166101009115159190910217815560408201516001820155606090910151600290910180546001600160a01b0319166001600160a01b0390921691909117905533816004811115610eaa57610eaa611700565b6040516001600160a01b038516907fdc8ee88592cee6126ab42f95859fdf2bbf7b0a614a14d4fb307b601e2b5b0b0590600090a45050565b6002546001600160a01b0316331480610f0557506001546001600160a01b031633145b610f215760405162461bcd60e51b81526004016103979061184b565b60065460ff1615610f445760405162461bcd60e51b81526004016103979061189d565b6001600160a01b038116610f6a5760405162461bcd60e51b8152600401610397906118d4565b6001600160a01b038116600090815260208190526040902054610100900460ff1615610fd15760405162461bcd60e51b81526020600482015260166024820152755573657220697320616c72656164792061637469766560501b6044820152606401610397565b6001600160a01b03811660009081526020819052604081205460ff166004811115610ffe57610ffe611700565b0361104b5760405162461bcd60e51b815260206004820152601960248201527f5573657220686173206e6f20726f6c652061737369676e6564000000000000006044820152606401610397565b6001600160a01b03166000908152602081905260409020805461ff001916610100179055565b60065460009060ff1615801561108f5750600654610100900460ff16155b905090565b6001600160a01b038216600090815260208190526040812054610100900460ff166110c1575060006105a2565b6001600160a01b03831660009081526020819052604081205460ff16905b8351811015611147578381815181106110fa576110fa611902565b6020026020010151600481111561111357611113611700565b82600481111561112557611125611700565b03611135576001925050506105a2565b8061113f8161192e565b9150506110df565b506000949350505050565b6002546001600160a01b031633148061117557506001546001600160a01b031633145b6111915760405162461bcd60e51b81526004016103979061184b565b60065460ff16156111e45760405162461bcd60e51b815260206004820152601860248201527f53797374656d20697320616c72656164792070617573656400000000000000006044820152606401610397565b6006805460ff1916600117905560405133907f0e453e53649b13b8c30ef82dd7bce6c745cfcc7a1dc95170b4750764194f19b290600090a2565b6001546001600160a01b031633146112485760405162461bcd60e51b815260040161039790611947565b6001600160a01b03811661129e5760405162461bcd60e51b815260206004820152601960248201527f496e76616c6964206e6577206f776e65722061646472657373000000000000006044820152606401610397565b6001546001600160a01b039081169082160361130b5760405162461bcd60e51b815260206004820152602660248201527f4e6577206f776e6572206973207468652073616d652061732063757272656e746044820152651037bbb732b960d11b6064820152608401610397565b600180546001600160a01b038381166001600160a01b03198316811784556040805160808101825260048082526020808301889052428385015294909516606082018190526000938452938390529120815181549395929491939092849260ff1990921691849081111561138157611381611700565b0217905550602082810151825461ff00191661010091151591909102178255604080840151600180850191909155606094850151600290940180546001600160a01b0319166001600160a01b0395861617905581516080810183526003815280840182905242818401528785169581019590955292851660009081529182905290208251815491929091839160ff199091169083600481111561142657611426611700565b0217905550602082015181549015156101000261ff00199091161781556040808301516001830155606090920151600291820180546001600160a01b039283166001600160a01b031991821617909155825486831691168117909255915190918316907fd5ac32accaab437dd0b2a40e9ec05c4b9b41fb7008b2821e9c6bf8c6c6751eeb90600090a35050565b6001546001600160a01b031633146114dd5760405162461bcd60e51b815260040161039790611947565b600654610100900460ff166115345760405162461bcd60e51b815260206004820152601c60248201527f456d657267656e6379206d6f6465206973206e6f7420616374697665000000006044820152606401610397565b6006805461ff001916905560405133907f58c23c36c22817a3e5aea11ee4ed5a1815c9770b63d1c162bbfc7a446688189590600090a2565b600383600481111561158057611580611700565b0361159f576003805490600061159583611990565b91905055506115f7565b60018360048111156115b3576115b3611700565b036115c8576004805490600061159583611990565b60028360048111156115dc576115dc611700565b036115f757600580549060006115f183611990565b91905055505b801561168257600382600481111561161157611611611700565b0361163057600380549060006116268361192e565b9190505550505050565b600182600481111561164457611644611700565b0361165957600480549060006116268361192e565b600282600481111561166d5761166d611700565b0361168257600580549060006116268361192e565b505050565b80356001600160a01b038116811461169e57600080fd5b919050565b6000602082840312156116b557600080fd5b61059f82611687565b80356005811061169e57600080fd5b600080604083850312156116e057600080fd5b6116e983611687565b91506116f7602084016116be565b90509250929050565b634e487b7160e01b600052602160045260246000fd5b608081016005861061173857634e487b7160e01b600052602160045260246000fd5b948152921515602084015260408301919091526001600160a01b031660609091015290565b634e487b7160e01b600052604160045260246000fd5b6000806040838503121561178657600080fd5b61178f83611687565b915060208084013567ffffffffffffffff808211156117ad57600080fd5b818601915086601f8301126117c157600080fd5b8135818111156117d3576117d361175d565b8060051b604051601f19603f830116810181811085821117156117f8576117f861175d565b60405291825284820192508381018501918983111561181657600080fd5b938501935b8285101561183b5761182c856116be565b8452938501939285019261181b565b8096505050505050509250929050565b60208082526032908201527f4f6e6c7920636f6d6d697373696f6e6572206f72206f776e65722063616e207060408201527132b93337b936903a3434b99030b1ba34b7b760711b606082015260800190565b6020808252601a908201527f53797374656d2069732063757272656e746c7920706175736564000000000000604082015260600190565b602080825260149082015273496e76616c69642075736572206164647265737360601b604082015260600190565b634e487b7160e01b600052603260045260246000fd5b634e487b7160e01b600052601160045260246000fd5b60006001820161194057611940611918565b5060010190565b60208082526029908201527f4f6e6c792073797374656d206f776e65722063616e20706572666f726d20746860408201526834b99030b1ba34b7b760b91b606082015260800190565b60008161199f5761199f611918565b50600019019056fea2646970667358221220b4381ec8e1eba0d4d8f502292e90af0013ccd93b2587f651e86a92bf2313e0e364736f6c63430008130033",
  "immutableReferences": {},
  "source": "// SPDX-License-Identifier: MIT\npragma solidity ^0.8.19;\n\n/**\n * @title ElectraAccessControl\n * @dev Access control and security management for the Electra voting system\n * @author God's Favour Chukwudi\n */\ncontract ElectraAccessControl {\n    \n    // ==================== ENUMS ====================\n    \n    /**\n     * @dev User roles in the Electra system\n     */\n    enum Role {\n        NONE,           // No role assigned\n        VOTER,          // Can register and vote\n        OBSERVER,       // Can view results only\n        ADMIN,          // Can manage candidates and view stats\n        COMMISSIONER    // Full system control\n    }\n    \n    // ==================== STRUCTS ====================\n    \n    /**\n     * @dev User information structure\n     */\n    struct User {\n        Role role;\n        bool isActive;\n        uint256 assignedAt;\n        address assignedBy;\n    }\n    \n    // ==================== STATE VARIABLES ====================\n    \n    mapping(address => User) public users;\n    address public systemOwner;\n    address public currentCommissioner;\n    \n    // Role counters\n    uint256 public totalAdmins;\n    uint256 public totalVoters;\n    uint256 public totalObservers;\n    \n    // Emergency controls\n    bool public systemPaused = false;\n    bool public emergencyMode = false;\n    \n    // ==================== EVENTS ====================\n    \n    event RoleAssigned(address indexed user, Role indexed role, address indexed assignedBy);\n    event RoleRevoked(address indexed user, Role indexed oldRole, address indexed revokedBy);\n    event CommissionerChanged(address indexed oldCommissioner, address indexed newCommissioner);\n    event SystemPaused(address indexed pausedBy);\n    event SystemUnpaused(address indexed unpausedBy);\n    event EmergencyActivated(address indexed activatedBy);\n    event EmergencyDeactivated(address indexed deactivatedBy);\n    \n    // ==================== MODIFIERS ====================\n    \n    modifier onlyOwner() {\n        require(msg.sender == systemOwner, \"Only system owner can perform this action\");\n        _;\n    }\n    \n    modifier onlyCommissioner() {\n        require(msg.sender == currentCommissioner, \"Only commissioner can perform this action\");\n        _;\n    }\n    \n    modifier onlyCommissionerOrOwner() {\n        require(\n            msg.sender == currentCommissioner || msg.sender == systemOwner,\n            \"Only commissioner or owner can perform this action\"\n        );\n        _;\n    }\n    \n    modifier onlyAdmin() {\n        require(\n            users[msg.sender].role == Role.ADMIN || \n            users[msg.sender].role == Role.COMMISSIONER ||\n            msg.sender == systemOwner,\n            \"Admin access required\"\n        );\n        _;\n    }\n    \n    modifier hasRole(Role _role) {\n        require(users[msg.sender].role == _role, \"Insufficient role permissions\");\n        _;\n    }\n    \n    modifier hasAnyRole(Role _role1, Role _role2) {\n        require(\n            users[msg.sender].role == _role1 || users[msg.sender].role == _role2,\n            \"Insufficient role permissions\"\n        );\n        _;\n    }\n    \n    modifier whenNotPaused() {\n        require(!systemPaused, \"System is currently paused\");\n        _;\n    }\n    \n    modifier whenPaused() {\n        require(systemPaused, \"System is not paused\");\n        _;\n    }\n    \n    modifier whenNotEmergency() {\n        require(!emergencyMode, \"System is in emergency mode\");\n        _;\n    }\n    \n    modifier onlyActiveUser() {\n        require(users[msg.sender].isActive, \"User account is not active\");\n        _;\n    }\n    \n    // ==================== CONSTRUCTOR ====================\n    \n    constructor() {\n        systemOwner = msg.sender;\n        currentCommissioner = msg.sender;\n        \n        // Assign owner as commissioner\n        users[msg.sender] = User({\n            role: Role.COMMISSIONER,\n            isActive: true,\n            assignedAt: block.timestamp,\n            assignedBy: msg.sender\n        });\n        \n        emit RoleAssigned(msg.sender, Role.COMMISSIONER, msg.sender);\n    }\n    \n    // ==================== ROLE MANAGEMENT ====================\n    \n    /**\n     * @dev Assign a role to a user\n     * @param _user Address of the user\n     * @param _role Role to assign\n     */\n    function assignRole(address _user, Role _role) \n        external \n        onlyCommissionerOrOwner \n        whenNotPaused \n    {\n        require(_user != address(0), \"Invalid user address\");\n        require(_role != Role.NONE, \"Cannot assign NONE role\");\n        require(_user != systemOwner || _role == Role.COMMISSIONER, \"Owner must be commissioner\");\n        \n        // Special handling for commissioner role\n        if (_role == Role.COMMISSIONER) {\n            require(msg.sender == systemOwner, \"Only owner can assign commissioner role\");\n            require(_user != currentCommissioner, \"User is already commissioner\");\n        }\n        \n        Role oldRole = users[_user].role;\n        \n        // Update role counters\n        _updateRoleCounters(oldRole, _role, true);\n        \n        // Assign new role\n        users[_user] = User({\n            role: _role,\n            isActive: true,\n            assignedAt: block.timestamp,\n            assignedBy: msg.sender\n        });\n        \n        // Handle commissioner change\n        if (_role == Role.COMMISSIONER && _user != currentCommissioner) {\n            address oldCommissioner = currentCommissioner;\n            currentCommissioner = _user;\n            emit CommissionerChanged(oldCommissioner, _user);\n        }\n        \n        emit RoleAssigned(_user, _role, msg.sender);\n    }\n    \n    /**\n     * @dev Revoke a user's role\n     * @param _user Address of the user\n     */\n    function revokeRole(address _user) \n        external \n        onlyCommissionerOrOwner \n        whenNotPaused \n    {\n        require(_user != address(0), \"Invalid user address\");\n        require(_user != systemOwner, \"Cannot revoke owner's role\");\n        require(_user != currentCommissioner, \"Cannot revoke commissioner's role\");\n        require(users[_user].role != Role.NONE, \"User has no role to revoke\");\n        \n        Role oldRole = users[_user].role;\n        \n        // Update role counters\n        _updateRoleCounters(oldRole, Role.NONE, false);\n        \n        // Revoke role\n        users[_user] = User({\n            role: Role.NONE,\n            isActive: false,\n            assignedAt: 0,\n            assignedBy: address(0)\n        });\n        \n        emit RoleRevoked(_user, oldRole, msg.sender);\n    }\n    \n    /**\n     * @dev Deactivate a user without changing their role\n     * @param _user Address of the user\n     */\n    function deactivateUser(address _user) \n        external \n        onlyCommissionerOrOwner \n        whenNotPaused \n    {\n        require(_user != address(0), \"Invalid user address\");\n        require(_user != systemOwner, \"Cannot deactivate owner\");\n        require(_user != currentCommissioner, \"Cannot deactivate commissioner\");\n        require(users[_user].isActive, \"User is already inactive\");\n        \n        users[_user].isActive = false;\n    }\n    \n    /**\n     * @dev Reactivate a user\n     * @param _user Address of the user\n     */\n    function reactivateUser(address _user) \n        external \n        onlyCommissionerOrOwner \n        whenNotPaused \n    {\n        require(_user != address(0), \"Invalid user address\");\n        require(!users[_user].isActive, \"User is already active\");\n        require(users[_user].role != Role.NONE, \"User has no role assigned\");\n        \n        users[_user].isActive = true;\n    }\n    \n    // ==================== SYSTEM CONTROLS ====================\n    \n    /**\n     * @dev Pause the entire system\n     */\n    function pauseSystem() external onlyCommissionerOrOwner {\n        require(!systemPaused, \"System is already paused\");\n        systemPaused = true;\n        emit SystemPaused(msg.sender);\n    }\n    \n    /**\n     * @dev Unpause the system\n     */\n    function unpauseSystem() external onlyCommissionerOrOwner {\n        require(systemPaused, \"System is not paused\");\n        systemPaused = false;\n        emit SystemUnpaused(msg.sender);\n    }\n    \n    /**\n     * @dev Activate emergency mode\n     */\n    function activateEmergency() external onlyCommissionerOrOwner {\n        require(!emergencyMode, \"Emergency mode is already active\");\n        emergencyMode = true;\n        systemPaused = true; // Auto-pause system in emergency\n        emit EmergencyActivated(msg.sender);\n    }\n    \n    /**\n     * @dev Deactivate emergency mode\n     */\n    function deactivateEmergency() external onlyOwner {\n        require(emergencyMode, \"Emergency mode is not active\");\n        emergencyMode = false;\n        emit EmergencyDeactivated(msg.sender);\n    }\n    \n    /**\n     * @dev Transfer system ownership (emergency only)\n     * @param _newOwner Address of the new owner\n     */\n    function transferOwnership(address _newOwner) external onlyOwner {\n        require(_newOwner != address(0), \"Invalid new owner address\");\n        require(_newOwner != systemOwner, \"New owner is the same as current owner\");\n        \n        address oldOwner = systemOwner;\n        systemOwner = _newOwner;\n        \n        // Update new owner's role\n        users[_newOwner] = User({\n            role: Role.COMMISSIONER,\n            isActive: true,\n            assignedAt: block.timestamp,\n            assignedBy: oldOwner\n        });\n        \n        // Update old owner's role\n        users[oldOwner] = User({\n            role: Role.ADMIN,\n            isActive: true,\n            assignedAt: block.timestamp,\n            assignedBy: _newOwner\n        });\n        \n        currentCommissioner = _newOwner;\n        emit CommissionerChanged(oldOwner, _newOwner);\n    }\n    \n    // ==================== VIEW FUNCTIONS ====================\n    \n    /**\n     * @dev Check if a user has a specific role\n     * @param _user Address of the user\n     * @param _role Role to check\n     * @return Whether the user has the role\n     */\n    function checkRole(address _user, Role _role) external view returns (bool) {\n        return users[_user].role == _role && users[_user].isActive;\n    }\n    \n    /**\n     * @dev Check if a user has any of the specified roles\n     * @param _user Address of the user\n     * @param _roles Array of roles to check\n     * @return Whether the user has any of the roles\n     */\n    function onlyAnyRole(address _user, Role[] memory _roles) external view returns (bool) {\n        if (!users[_user].isActive) return false;\n        \n        Role userRole = users[_user].role;\n        for (uint i = 0; i < _roles.length; i++) {\n            if (userRole == _roles[i]) return true;\n        }\n        return false;\n    }\n    \n    // /**\n    //  * @dev Get user information\n    //  * @param _user Address of the user\n    //  * @return User information\n    //  */\n    function getUserInfo(address _user) \n        external \n        view \n        returns (Role role, bool isActive, uint256 assignedAt, address assignedBy) \n    {\n        User memory user = users[_user];\n        return (user.role, user.isActive, user.assignedAt, user.assignedBy);\n    }\n    \n    // /**\n    //  * @dev Get system statistics\n    //  * @return System statistics\n    //  */\n    function getSystemStats() \n        external \n        view \n        returns (\n            uint256 admins,\n            uint256 voters,\n            uint256 observers,\n            bool paused,\n            bool emergency,\n            address owner,\n            address commissioner\n        ) \n    {\n        return (\n            totalAdmins,\n            totalVoters,\n            totalObservers,\n            systemPaused,\n            emergencyMode,\n            systemOwner,\n            currentCommissioner\n        );\n    }\n    \n    /**\n     * @dev Check if system is operational\n     * @return Whether system is operational\n     */\n    function isSystemOperational() external view returns (bool) {\n        return !systemPaused && !emergencyMode;\n    }\n    \n    // ==================== INTERNAL FUNCTIONS ====================\n    \n    /**\n     * @dev Update role counters when roles change\n     * @param _oldRole Previous role\n     * @param _newRole New role\n     * @param _isAssignment Whether this is an assignment (true) or revocation (false)\n     */\n    function _updateRoleCounters(Role _oldRole, Role _newRole, bool _isAssignment) internal {\n        // Decrease old role counter\n        if (_oldRole == Role.ADMIN) totalAdmins--;\n        else if (_oldRole == Role.VOTER) totalVoters--;\n        else if (_oldRole == Role.OBSERVER) totalObservers--;\n        \n        // Increase new role counter (only for assignments)\n        if (_isAssignment) {\n            if (_newRole == Role.ADMIN) totalAdmins++;\n            else if (_newRole == Role.VOTER) totalVoters++;\n            else if (_newRole == Role.OBSERVER) totalObservers++;\n        }\n    }\n}\n",
  "sourcePath": "/home/godsfavour/ALU/electra/contracts/ElectraAccessControl.sol",
  "compiler": {
    "name": "solc",
    "version": "0.8.19+commit.7dd6d404.Emscripten.clang"
  },
  "schemaVersion": "3.4.16",
  "updatedAt": "2025-07-19T10:40:19.014Z",
  "devdoc": {
    "author": "God's Favour Chukwudi",
    "details": "Access control and security management for the Electra voting system",
    "kind": "dev",
    "methods": {
      "activateEmergency()": {
        "details": "Activate emergency mode"
      },
      "assignRole(address,uint8)": {
        "details": "Assign a role to a user",
        "params": {
          "_role": "Role to assign",
          "_user": "Address of the user"
        }
      },
      "checkRole(address,uint8)": {
        "details": "Check if a user has a specific role",
        "params": {
          "_role": "Role to check",
          "_user": "Address of the user"
        },
        "returns": {
          "_0": "Whether the user has the role"
        }
      },
      "deactivateEmergency()": {
        "details": "Deactivate emergency mode"
      },
      "deactivateUser(address)": {
        "details": "Deactivate a user without changing their role",
        "params": {
          "_user": "Address of the user"
        }
      },
      "isSystemOperational()": {
        "details": "Check if system is operational",
        "returns": {
          "_0": "Whether system is operational"
        }
      },
      "onlyAnyRole(address,uint8[])": {
        "details": "Check if a user has any of the specified roles",
        "params": {
          "_roles": "Array of roles to check",
          "_user": "Address of the user"
        },
        "returns": {
          "_0": "Whether the user has any of the roles"
        }
      },
      "pauseSystem()": {
        "details": "Pause the entire system"
      },
      "reactivateUser(address)": {
        "details": "Reactivate a user",
        "params": {
          "_user": "Address of the user"
        }
      },
      "revokeRole(address)": {
        "details": "Revoke a user's role",
        "params": {
          "_user": "Address of the user"
        }
      },
      "transferOwnership(address)": {
        "details": "Transfer system ownership (emergency only)",
        "params": {
          "_newOwner": "Address of the new owner"
        }
      },
      "unpauseSystem()": {
        "details": "Unpause the system"
      }
    },
    "title": "ElectraAccessControl",
    "version": 1
  },
  "userdoc": {
    "kind": "user",
    "methods": {},
    "version": 1
  }
}