{
  "contractName": "Electra",
  "abi": [
    {
      "inputs": [],
      "stateMutability": "nonpayable",
      "type": "constructor"
    },
    {
      "anonymous": false,
      "inputs": [
        {
          "indexed": true,
          "internalType": "uint32",
          "name": "candidateID",
          "type": "uint32"
        },
        {
          "indexed": false,
          "internalType": "string",
          "name": "name",
          "type": "string"
        },
        {
          "indexed": false,
          "internalType": "string",
          "name": "party",
          "type": "string"
        },
        {
          "indexed": true,
          "internalType": "address",
          "name": "addedBy",
          "type": "address"
        }
      ],
      "name": "CandidateAdded",
      "type": "event"
    },
    {
      "anonymous": false,
      "inputs": [
        {
          "indexed": true,
          "internalType": "address",
          "name": "oldCommissioner",
          "type": "address"
        },
        {
          "indexed": true,
          "internalType": "address",
          "name": "newCommissioner",
          "type": "address"
        }
      ],
      "name": "CommissionerChanged",
      "type": "event"
    },
    {
      "anonymous": false,
      "inputs": [
        {
          "indexed": false,
          "internalType": "string",
          "name": "title",
          "type": "string"
        },
        {
          "indexed": false,
          "internalType": "uint32",
          "name": "startTime",
          "type": "uint32"
        },
        {
          "indexed": false,
          "internalType": "uint32",
          "name": "endTime",
          "type": "uint32"
        },
        {
          "indexed": false,
          "internalType": "uint32",
          "name": "registrationDeadline",
          "type": "uint32"
        }
      ],
      "name": "ElectionCreated",
      "type": "event"
    },
    {
      "anonymous": false,
      "inputs": [
        {
          "indexed": true,
          "internalType": "uint32",
          "name": "winnerID",
          "type": "uint32"
        },
        {
          "indexed": false,
          "internalType": "string",
          "name": "winnerName",
          "type": "string"
        },
        {
          "indexed": false,
          "internalType": "uint32",
          "name": "totalVotes",
          "type": "uint32"
        }
      ],
      "name": "ElectionFinalized",
      "type": "event"
    },
    {
      "anonymous": false,
      "inputs": [
        {
          "indexed": true,
          "internalType": "address",
          "name": "user",
          "type": "address"
        },
        {
          "indexed": true,
          "internalType": "enum Electra.Role",
          "name": "role",
          "type": "uint8"
        },
        {
          "indexed": true,
          "internalType": "address",
          "name": "assignedBy",
          "type": "address"
        }
      ],
      "name": "RoleAssigned",
      "type": "event"
    },
    {
      "anonymous": false,
      "inputs": [
        {
          "indexed": true,
          "internalType": "address",
          "name": "user",
          "type": "address"
        },
        {
          "indexed": true,
          "internalType": "enum Electra.Role",
          "name": "oldRole",
          "type": "uint8"
        },
        {
          "indexed": true,
          "internalType": "address",
          "name": "revokedBy",
          "type": "address"
        }
      ],
      "name": "RoleRevoked",
      "type": "event"
    },
    {
      "anonymous": false,
      "inputs": [
        {
          "indexed": true,
          "internalType": "address",
          "name": "pausedBy",
          "type": "address"
        }
      ],
      "name": "SystemPaused",
      "type": "event"
    },
    {
      "anonymous": false,
      "inputs": [
        {
          "indexed": true,
          "internalType": "address",
          "name": "unpausedBy",
          "type": "address"
        }
      ],
      "name": "SystemUnpaused",
      "type": "event"
    },
    {
      "anonymous": false,
      "inputs": [
        {
          "indexed": true,
          "internalType": "address",
          "name": "voter",
          "type": "address"
        },
        {
          "indexed": true,
          "internalType": "uint32",
          "name": "candidateID",
          "type": "uint32"
        },
        {
          "indexed": false,
          "internalType": "uint32",
          "name": "timestamp",
          "type": "uint32"
        }
      ],
      "name": "VoteCast",
      "type": "event"
    },
    {
      "anonymous": false,
      "inputs": [
        {
          "indexed": true,
          "internalType": "address",
          "name": "voter",
          "type": "address"
        },
        {
          "indexed": true,
          "internalType": "uint32",
          "name": "voterID",
          "type": "uint32"
        },
        {
          "indexed": false,
          "internalType": "uint32",
          "name": "timestamp",
          "type": "uint32"
        }
      ],
      "name": "VoterRegistered",
      "type": "event"
    },
    {
      "inputs": [],
      "name": "MAX_CANDIDATES",
      "outputs": [
        {
          "internalType": "uint32",
          "name": "",
          "type": "uint32"
        }
      ],
      "stateMutability": "view",
      "type": "function",
      "constant": true
    },
    {
      "inputs": [],
      "name": "MAX_VOTING_DURATION",
      "outputs": [
        {
          "internalType": "uint32",
          "name": "",
          "type": "uint32"
        }
      ],
      "stateMutability": "view",
      "type": "function",
      "constant": true
    },
    {
      "inputs": [],
      "name": "MIN_VOTING_DURATION",
      "outputs": [
        {
          "internalType": "uint32",
          "name": "",
          "type": "uint32"
        }
      ],
      "stateMutability": "view",
      "type": "function",
      "constant": true
    },
    {
      "inputs": [
        {
          "internalType": "uint32",
          "name": "",
          "type": "uint32"
        }
      ],
      "name": "candidates",
      "outputs": [
        {
          "internalType": "string",
          "name": "name",
          "type": "string"
        },
        {
          "internalType": "string",
          "name": "party",
          "type": "string"
        },
        {
          "internalType": "uint32",
          "name": "voteCount",
          "type": "uint32"
        },
        {
          "internalType": "bool",
          "name": "isActive",
          "type": "bool"
        },
        {
          "internalType": "uint32",
          "name": "addedAt",
          "type": "uint32"
        }
      ],
      "stateMutability": "view",
      "type": "function",
      "constant": true
    },
    {
      "inputs": [],
      "name": "currentCommissioner",
      "outputs": [
        {
          "internalType": "address",
          "name": "",
          "type": "address"
        }
      ],
      "stateMutability": "view",
      "type": "function",
      "constant": true
    },
    {
      "inputs": [],
      "name": "currentElection",
      "outputs": [
        {
          "internalType": "string",
          "name": "title",
          "type": "string"
        },
        {
          "internalType": "uint32",
          "name": "startTime",
          "type": "uint32"
        },
        {
          "internalType": "uint32",
          "name": "endTime",
          "type": "uint32"
        },
        {
          "internalType": "uint32",
          "name": "registrationDeadline",
          "type": "uint32"
        },
        {
          "internalType": "bool",
          "name": "isActive",
          "type": "bool"
        },
        {
          "internalType": "bool",
          "name": "isFinalized",
          "type": "bool"
        },
        {
          "internalType": "uint32",
          "name": "totalVoters",
          "type": "uint32"
        },
        {
          "internalType": "uint32",
          "name": "totalVotes",
          "type": "uint32"
        },
        {
          "internalType": "uint32",
          "name": "winnerID",
          "type": "uint32"
        }
      ],
      "stateMutability": "view",
      "type": "function",
      "constant": true
    },
    {
      "inputs": [],
      "name": "emergencyMode",
      "outputs": [
        {
          "internalType": "bool",
          "name": "",
          "type": "bool"
        }
      ],
      "stateMutability": "view",
      "type": "function",
      "constant": true
    },
    {
      "inputs": [
        {
          "internalType": "uint32",
          "name": "",
          "type": "uint32"
        }
      ],
      "name": "idToVoter",
      "outputs": [
        {
          "internalType": "address",
          "name": "",
          "type": "address"
        }
      ],
      "stateMutability": "view",
      "type": "function",
      "constant": true
    },
    {
      "inputs": [],
      "name": "nextVoterID",
      "outputs": [
        {
          "internalType": "uint32",
          "name": "",
          "type": "uint32"
        }
      ],
      "stateMutability": "view",
      "type": "function",
      "constant": true
    },
    {
      "inputs": [],
      "name": "registrationOpen",
      "outputs": [
        {
          "internalType": "bool",
          "name": "",
          "type": "bool"
        }
      ],
      "stateMutability": "view",
      "type": "function",
      "constant": true
    },
    {
      "inputs": [],
      "name": "systemOwner",
      "outputs": [
        {
          "internalType": "address",
          "name": "",
          "type": "address"
        }
      ],
      "stateMutability": "view",
      "type": "function",
      "constant": true
    },
    {
      "inputs": [],
      "name": "systemPaused",
      "outputs": [
        {
          "internalType": "bool",
          "name": "",
          "type": "bool"
        }
      ],
      "stateMutability": "view",
      "type": "function",
      "constant": true
    },
    {
      "inputs": [],
      "name": "totalCandidates",
      "outputs": [
        {
          "internalType": "uint32",
          "name": "",
          "type": "uint32"
        }
      ],
      "stateMutability": "view",
      "type": "function",
      "constant": true
    },
    {
      "inputs": [
        {
          "internalType": "address",
          "name": "",
          "type": "address"
        }
      ],
      "name": "users",
      "outputs": [
        {
          "internalType": "enum Electra.Role",
          "name": "role",
          "type": "uint8"
        },
        {
          "internalType": "bool",
          "name": "isActive",
          "type": "bool"
        },
        {
          "internalType": "uint32",
          "name": "assignedAt",
          "type": "uint32"
        },
        {
          "internalType": "address",
          "name": "assignedBy",
          "type": "address"
        }
      ],
      "stateMutability": "view",
      "type": "function",
      "constant": true
    },
    {
      "inputs": [
        {
          "internalType": "address",
          "name": "",
          "type": "address"
        }
      ],
      "name": "voterToID",
      "outputs": [
        {
          "internalType": "uint32",
          "name": "",
          "type": "uint32"
        }
      ],
      "stateMutability": "view",
      "type": "function",
      "constant": true
    },
    {
      "inputs": [
        {
          "internalType": "address",
          "name": "",
          "type": "address"
        }
      ],
      "name": "voters",
      "outputs": [
        {
          "internalType": "bool",
          "name": "isRegistered",
          "type": "bool"
        },
        {
          "internalType": "bool",
          "name": "hasVoted",
          "type": "bool"
        },
        {
          "internalType": "uint32",
          "name": "voterID",
          "type": "uint32"
        },
        {
          "internalType": "uint32",
          "name": "candidateVoted",
          "type": "uint32"
        },
        {
          "internalType": "uint32",
          "name": "registrationTime",
          "type": "uint32"
        }
      ],
      "stateMutability": "view",
      "type": "function",
      "constant": true
    },
    {
      "inputs": [],
      "name": "votingOpen",
      "outputs": [
        {
          "internalType": "bool",
          "name": "",
          "type": "bool"
        }
      ],
      "stateMutability": "view",
      "type": "function",
      "constant": true
    },
    {
      "inputs": [
        {
          "internalType": "address",
          "name": "_user",
          "type": "address"
        },
        {
          "internalType": "enum Electra.Role",
          "name": "_role",
          "type": "uint8"
        }
      ],
      "name": "assignRole",
      "outputs": [],
      "stateMutability": "nonpayable",
      "type": "function"
    },
    {
      "inputs": [
        {
          "internalType": "address",
          "name": "_user",
          "type": "address"
        }
      ],
      "name": "revokeRole",
      "outputs": [],
      "stateMutability": "nonpayable",
      "type": "function"
    },
    {
      "inputs": [],
      "name": "pauseSystem",
      "outputs": [],
      "stateMutability": "nonpayable",
      "type": "function"
    },
    {
      "inputs": [],
      "name": "activateEmergency",
      "outputs": [],
      "stateMutability": "nonpayable",
      "type": "function"
    },
    {
      "inputs": [],
      "name": "deactivateEmergency",
      "outputs": [],
      "stateMutability": "nonpayable",
      "type": "function"
    },
    {
      "inputs": [
        {
          "internalType": "string",
          "name": "_title",
          "type": "string"
        },
        {
          "internalType": "uint32",
          "name": "_registrationDeadline",
          "type": "uint32"
        },
        {
          "internalType": "uint32",
          "name": "_startTime",
          "type": "uint32"
        },
        {
          "internalType": "uint32",
          "name": "_endTime",
          "type": "uint32"
        }
      ],
      "name": "createElection",
      "outputs": [],
      "stateMutability": "nonpayable",
      "type": "function"
    },
    {
      "inputs": [],
      "name": "startVoting",
      "outputs": [],
      "stateMutability": "nonpayable",
      "type": "function"
    },
    {
      "inputs": [],
      "name": "endVoting",
      "outputs": [],
      "stateMutability": "nonpayable",
      "type": "function"
    },
    {
      "inputs": [],
      "name": "finalizeElection",
      "outputs": [],
      "stateMutability": "nonpayable",
      "type": "function"
    },
    {
      "inputs": [
        {
          "internalType": "string",
          "name": "_name",
          "type": "string"
        },
        {
          "internalType": "string",
          "name": "_party",
          "type": "string"
        }
      ],
      "name": "addCandidate",
      "outputs": [],
      "stateMutability": "nonpayable",
      "type": "function"
    },
    {
      "inputs": [
        {
          "internalType": "uint32",
          "name": "_candidateID",
          "type": "uint32"
        }
      ],
      "name": "deactivateCandidate",
      "outputs": [],
      "stateMutability": "nonpayable",
      "type": "function"
    },
    {
      "inputs": [
        {
          "internalType": "address",
          "name": "_voterAddress",
          "type": "address"
        }
      ],
      "name": "registerVoter",
      "outputs": [],
      "stateMutability": "nonpayable",
      "type": "function"
    },
    {
      "inputs": [],
      "name": "selfRegister",
      "outputs": [],
      "stateMutability": "nonpayable",
      "type": "function"
    },
    {
      "inputs": [
        {
          "internalType": "uint32",
          "name": "_candidateID",
          "type": "uint32"
        }
      ],
      "name": "vote",
      "outputs": [],
      "stateMutability": "nonpayable",
      "type": "function"
    },
    {
      "inputs": [
        {
          "internalType": "address",
          "name": "_user",
          "type": "address"
        },
        {
          "internalType": "enum Electra.Role",
          "name": "_role",
          "type": "uint8"
        }
      ],
      "name": "checkRole",
      "outputs": [
        {
          "internalType": "bool",
          "name": "",
          "type": "bool"
        }
      ],
      "stateMutability": "view",
      "type": "function",
      "constant": true
    },
    {
      "inputs": [
        {
          "internalType": "address",
          "name": "_voterAddress",
          "type": "address"
        }
      ],
      "name": "getVoterInfo",
      "outputs": [
        {
          "internalType": "bool",
          "name": "isRegistered",
          "type": "bool"
        },
        {
          "internalType": "bool",
          "name": "hasVoted",
          "type": "bool"
        },
        {
          "internalType": "uint32",
          "name": "candidateVoted",
          "type": "uint32"
        },
        {
          "internalType": "uint32",
          "name": "voterID",
          "type": "uint32"
        },
        {
          "internalType": "uint32",
          "name": "registrationTime",
          "type": "uint32"
        }
      ],
      "stateMutability": "view",
      "type": "function",
      "constant": true
    },
    {
      "inputs": [
        {
          "internalType": "uint32",
          "name": "_candidateID",
          "type": "uint32"
        }
      ],
      "name": "getCandidateInfo",
      "outputs": [
        {
          "internalType": "string",
          "name": "name",
          "type": "string"
        },
        {
          "internalType": "string",
          "name": "party",
          "type": "string"
        },
        {
          "internalType": "uint32",
          "name": "voteCount",
          "type": "uint32"
        },
        {
          "internalType": "bool",
          "name": "isActive",
          "type": "bool"
        }
      ],
      "stateMutability": "view",
      "type": "function",
      "constant": true
    },
    {
      "inputs": [],
      "name": "getElectionInfo",
      "outputs": [
        {
          "internalType": "string",
          "name": "title",
          "type": "string"
        },
        {
          "internalType": "uint32",
          "name": "startTime",
          "type": "uint32"
        },
        {
          "internalType": "uint32",
          "name": "endTime",
          "type": "uint32"
        },
        {
          "internalType": "uint32",
          "name": "registrationDeadline",
          "type": "uint32"
        },
        {
          "internalType": "bool",
          "name": "isActive",
          "type": "bool"
        },
        {
          "internalType": "bool",
          "name": "isFinalized",
          "type": "bool"
        },
        {
          "internalType": "uint32",
          "name": "totalVotersCount",
          "type": "uint32"
        },
        {
          "internalType": "uint32",
          "name": "totalVotes",
          "type": "uint32"
        },
        {
          "internalType": "uint32",
          "name": "winnerID",
          "type": "uint32"
        }
      ],
      "stateMutability": "view",
      "type": "function",
      "constant": true
    },
    {
      "inputs": [],
      "name": "getElectionStatus",
      "outputs": [
        {
          "internalType": "bool",
          "name": "registrationActive",
          "type": "bool"
        },
        {
          "internalType": "bool",
          "name": "votingActive",
          "type": "bool"
        },
        {
          "internalType": "uint32",
          "name": "timeUntilStart",
          "type": "uint32"
        },
        {
          "internalType": "uint32",
          "name": "timeUntilEnd",
          "type": "uint32"
        }
      ],
      "stateMutability": "view",
      "type": "function",
      "constant": true
    },
    {
      "inputs": [],
      "name": "getCurrentWinner",
      "outputs": [
        {
          "internalType": "uint32",
          "name": "winnerID",
          "type": "uint32"
        },
        {
          "internalType": "string",
          "name": "winnerName",
          "type": "string"
        },
        {
          "internalType": "string",
          "name": "winnerParty",
          "type": "string"
        },
        {
          "internalType": "uint32",
          "name": "maxVotes",
          "type": "uint32"
        }
      ],
      "stateMutability": "view",
      "type": "function",
      "constant": true
    }
  ],
  "bytecode": "0x60a06040526008805463ffffffff60201b19166401000000001790553480156200002857600080fd5b50336080818152600180546001600160a01b03191683178155604080519283018152600480845260208085018490524263ffffffff1685840152606085018690526000958652859052932082518154939491939092849260ff199092169184908111156200009a576200009a62000140565b02179055506020820151815460408401516060909401516001600160a01b0316660100000000000002600160301b600160d01b031963ffffffff909516620100000265ffffffff000019931515610100029390931665ffffffffff001990921691909117919091179290921691909117905533600460405133907f2459ac88ac07c4020108de12f1f8675bbf7e6928b4cfc156bde4727aacf7897390600090a462000156565b634e487b7160e01b600052602160045260246000fd5b608051613904620001b160003960008181610326015281816109ca01528181611148015281816114e70152818161173f0152818161184701528181611d0201528181611d92015281816128220152612ebd01526139046000f3fe608060405234801561001057600080fd5b50600436106102275760003560e01c806386852dca11610130578063d86a28bb116100b8578063eefe85e41161007c578063eefe85e414610637578063f078609614610641578063fa68694814610649578063fcae83a714610651578063ff9b04351461065957600080fd5b8063d86a28bb146105e7578063dc1d4fb7146105ef578063dcfc1faf146105f7578063e8dac59f1461060a578063eaf1061c1461062e57600080fd5b8063a3ec138d116100ff578063a3ec138d14610508578063a87430ba14610558578063a95824b4146105b4578063c3403ddf146105c8578063c9d5d5e9146105d057600080fd5b806386852dca146104035780639094c763146104205780639d2f83f0146104335780639ed1f2551461044757600080fd5b80633866965c116101b35780634f818d0c116101825780634f818d0c1461039e578063630a195b146103c15780636cc6837e146103d4578063736f88cd146103dc57806380e52e3f146103f057600080fd5b80633866965c1461036057806338db6dd3146103705780634506959214610383578063457e8b971461039657600080fd5b806326541b56116101fa57806326541b56146102a857806327de4de0146102bb57806327eae9e9146102ce578063329bfc3314610309578063337792541461032157600080fd5b80630905f5601461022c578063122902a6146102555780631ec6b60a1461028b57806323a3ad7214610295575b600080fd5b60015461024090600160a81b900460ff1681565b60405190151581526020015b60405180910390f35b61025d610682565b604080519415158552921515602085015263ffffffff9182169284019290925216606082015260800161024c565b610293610763565b005b6102406102a3366004613148565b61091f565b6102936102b63660046131cc565b610991565b6102936102c936600461324c565b610da5565b6102f46102dc366004613267565b60066020526000908152604090205463ffffffff1681565b60405163ffffffff909116815260200161024c565b610311610f46565b60405161024c94939291906132c8565b6103487f000000000000000000000000000000000000000000000000000000000000000081565b6040516001600160a01b03909116815260200161024c565b6008546102f49063ffffffff1681565b61029361037e366004613267565b61110f565b600154610348906001600160a01b031681565b6102936114c8565b6103b16103ac36600461324c565b61153c565b60405161024c949392919061330f565b6102936103cf366004613148565b611720565b610293611ae7565b60085461024090600160401b900460ff1681565b6102936103fe366004613267565b611ce3565b61040b611fe7565b60405161024c99989796959493929190613353565b61029361042e36600461324c565b6120fe565b60015461024090600160a01b900460ff1681565b6104d3610455366004613267565b6001600160a01b038116600090815260046020908152604091829020825160a081018452905460ff80821615158084526101008304909116151593830184905263ffffffff6201000083048116958401869052600160301b8304811660608501819052600160501b9093041660809093018390529390939590929450565b604080519515158652931515602086015263ffffffff928316938501939093528116606084015216608082015260a00161024c565b6104d3610516366004613267565b60046020526000908152604090205460ff8082169161010081049091169063ffffffff620100008204811691600160301b8104821691600160501b9091041685565b6105a4610566366004613267565b60006020819052908152604090205460ff8082169161010081049091169062010000810463ffffffff1690600160301b90046001600160a01b031684565b60405161024c94939291906133cc565b60085461024090600160481b900460ff1681565b61029361242e565b6008546102f490600160201b900463ffffffff1681565b61029361252b565b610293612803565b610293610605366004613419565b6128e6565b61061d61061836600461324c565b612d61565b60405161024c95949392919061348f565b6102f4610e1081565b6102f462278d0081565b6102f4603281565b610293612eb2565b61040b612f26565b61034861066736600461324c565b6007602052600090815260409020546001600160a01b031681565b60008060008060088054906101000a900460ff1680156106b15750600354600160401b900463ffffffff164211155b600854909450600160481b900460ff1680156106d5575060035463ffffffff164210155b80156106f05750600354600160201b900463ffffffff164211155b6003549093504263ffffffff9091161161070b57600061071f565b60035461071f90429063ffffffff166134f2565b60035490925042600160201b90910463ffffffff161161074057600061075b565b60035461075b904290600160201b900463ffffffff166134f2565b905090919293565b6001546001600160a01b031633146107965760405162461bcd60e51b815260040161078d90613516565b60405180910390fd5b600154600160a01b900460ff16156107c05760405162461bcd60e51b815260040161078d90613541565b600354600160681b900460ff16156107ea5760405162461bcd60e51b815260040161078d90613568565b600354600160601b900460ff166108385760405162461bcd60e51b815260206004820152601260248201527127379030b1ba34bb329032b632b1ba34b7b760711b604482015260640161078d565b600854600160481b900460ff16156108885760405162461bcd60e51b81526020600482015260136024820152722b37ba34b7339030b63932b0b23c9037b832b760691b604482015260640161078d565b600854600263ffffffff90911610156108e35760405162461bcd60e51b815260206004820152601a60248201527f4e656564206174206c6561737420322063616e64696461746573000000000000604482015260640161078d565b6008805461ffff60401b1916600160481b17905560035463ffffffff1642101561091d576003805463ffffffff19164263ffffffff161790555b565b6000816004811115610933576109336133b6565b6001600160a01b03841660009081526020819052604090205460ff166004811115610960576109606133b6565b14801561098a57506001600160a01b038316600090815260208190526040902054610100900460ff165b9392505050565b60033360009081526020819052604090205460ff1660048111156109b7576109b76133b6565b1015806109ec5750336001600160a01b037f000000000000000000000000000000000000000000000000000000000000000016145b610a305760405162461bcd60e51b815260206004820152601560248201527410591b5a5b881858d8d95cdcc81c995c5d5a5c9959605a1b604482015260640161078d565b600154600160a01b900460ff1615610a5a5760405162461bcd60e51b815260040161078d90613541565b600354600160681b900460ff1615610a845760405162461bcd60e51b815260040161078d90613568565b82610abe5760405162461bcd60e51b815260206004820152600a602482015269456d707479206e616d6560b01b604482015260640161078d565b80610af95760405162461bcd60e51b815260206004820152600b60248201526a456d70747920706172747960a81b604482015260640161078d565b600854603263ffffffff90911610610b4c5760405162461bcd60e51b815260206004820152601660248201527513585e0818d85b991a59185d195cc81c995858da195960521b604482015260640161078d565b600854600160481b900460ff1615610ba65760405162461bcd60e51b815260206004820152601860248201527f43616e6e6f742061646420647572696e6720766f74696e670000000000000000604482015260640161078d565b600354600160601b900460ff16610bf45760405162461bcd60e51b815260206004820152601260248201527127379030b1ba34bb329032b632b1ba34b7b760711b604482015260640161078d565b6008805463ffffffff16906000610c0a83613594565b91906101000a81548163ffffffff021916908363ffffffff160217905550506040518060a0016040528085858080601f016020809104026020016040519081016040528093929190818152602001838380828437600092019190915250505090825250604080516020601f86018190048102820181019092528481529181019190859085908190840183828082843760009201829052509385525050506020808301829052600160408085019190915263ffffffff4281166060909501949094526008549093168252600590522081518190610ce69082613656565b5060208201516001820190610cfb9082613656565b5060408281015160029092018054606085015160809095015163ffffffff908116650100000000000268ffffffff000000000019961515600160201b0264ffffffffff19909316958216959095179190911794909416929092179091556008549051339291909116907fb536fb3b8e4945351f99daa11afeebc3b753acd5858493fcb764998dd30f0d4c90610d9790889088908890889061373f565b60405180910390a350505050565b6001546001600160a01b03163314610dcf5760405162461bcd60e51b815260040161078d90613516565b600154600160a01b900460ff1615610df95760405162461bcd60e51b815260040161078d90613541565b8060008163ffffffff16118015610e1c575060085463ffffffff90811690821611155b610e385760405162461bcd60e51b815260040161078d90613771565b63ffffffff8116600090815260056020526040902060020154600160201b900460ff16610e9c5760405162461bcd60e51b815260206004820152601260248201527143616e64696461746520696e61637469766560701b604482015260640161078d565b600354600160681b900460ff1615610ec65760405162461bcd60e51b815260040161078d90613568565b600854600160481b900460ff1615610f205760405162461bcd60e51b815260206004820152601f60248201527f43616e6e6f74206465616374697661746520647572696e6720766f74696e6700604482015260640161078d565b5063ffffffff166000908152600560205260409020600201805464ff0000000019169055565b6008546000906060908190839063ffffffff16610f955760405162461bcd60e51b815260206004820152600d60248201526c4e6f2063616e6469646174657360981b604482015260640161078d565b610f9d61300e565b63ffffffff80821660008181526005602052604090206002015492965091169150156111095763ffffffff841660009081526005602052604090208054610fe3906135cd565b80601f016020809104026020016040519081016040528092919081815260200182805461100f906135cd565b801561105c5780601f106110315761010080835404028352916020019161105c565b820191906000526020600020905b81548152906001019060200180831161103f57829003601f168201915b5050505063ffffffff8616600090815260056020526040902060010180549295509161108891506135cd565b80601f01602080910402602001604051908101604052809291908181526020018280546110b4906135cd565b80156111015780601f106110d657610100808354040283529160200191611101565b820191906000526020600020905b8154815290600101906020018083116110e457829003601f168201915b505050505091505b90919293565b60033360009081526020819052604090205460ff166004811115611135576111356133b6565b10158061116a5750336001600160a01b037f000000000000000000000000000000000000000000000000000000000000000016145b6111ae5760405162461bcd60e51b815260206004820152601560248201527410591b5a5b881858d8d95cdcc81c995c5d5a5c9959605a1b604482015260640161078d565b600854600160401b900460ff1680156111d65750600354600160401b900463ffffffff164211155b6112185760405162461bcd60e51b8152602060048201526013602482015272149959da5cdd1c985d1a5bdb8818db1bdcd959606a1b604482015260640161078d565b600154600160a01b900460ff16156112425760405162461bcd60e51b815260040161078d90613541565b600354600160681b900460ff161561126c5760405162461bcd60e51b815260040161078d90613568565b6001600160a01b0381166112925760405162461bcd60e51b815260040161078d9061379c565b6001600160a01b03811660009081526004602052604090205460ff16156112f05760405162461bcd60e51b8152602060048201526012602482015271105b1c9958591e481c9959da5cdd195c995960721b604482015260640161078d565b6040805160a08101825260018152600060208083018281526008805463ffffffff600160201b9182900481168789019081526060880187815242831660808a019081526001600160a01b038c16808a52600489528b8a209a518b5498519451935192518616600160501b0263ffffffff60501b19938716600160301b0269ffffffff0000000000001995881662010000029590951669ffffffffffffffff0000199615156101000261ff00199315159390931661ffff19909b169a909a17919091179490941697909717919091171617909655815460068552878620805463ffffffff191691839004881691909117905590540484168352600790915292902080546001600160a01b03191690921790915560038054600160701b900490911690600e61141c83613594565b82546101009290920a63ffffffff8181021990931691831602179091556008546040514283168152600160201b90910490911691506001600160a01b038316907fef11677f5cc4b4d7cd4952714e83899c4c7f92a151b0c8d157cd49618ea69dc59060200160405180910390a360088054600160201b900463ffffffff169060046114a683613594565b91906101000a81548163ffffffff021916908363ffffffff1602179055505050565b6001546001600160a01b03163314806115095750336001600160a01b037f000000000000000000000000000000000000000000000000000000000000000016145b6115255760405162461bcd60e51b815260040161078d906137c5565b6001805461ffff60a01b191661010160a01b179055565b60608060008060008563ffffffff16118015611564575060085463ffffffff90811690861611155b6115805760405162461bcd60e51b815260040161078d90613771565b63ffffffff8516600090815260056020526040808220815160a081019092528054829082906115ae906135cd565b80601f01602080910402602001604051908101604052809291908181526020018280546115da906135cd565b80156116275780601f106115fc57610100808354040283529160200191611627565b820191906000526020600020905b81548152906001019060200180831161160a57829003601f168201915b50505050508152602001600182018054611640906135cd565b80601f016020809104026020016040519081016040528092919081815260200182805461166c906135cd565b80156116b95780601f1061168e576101008083540402835291602001916116b9565b820191906000526020600020905b81548152906001019060200180831161169c57829003601f168201915b50505091835250506002919091015463ffffffff808216602080850191909152600160201b830460ff161515604080860191909152650100000000009093049091166060938401528351908401519184015193909201519199909850919650945092505050565b6001546001600160a01b03163314806117615750336001600160a01b037f000000000000000000000000000000000000000000000000000000000000000016145b61177d5760405162461bcd60e51b815260040161078d906137c5565b600154600160a01b900460ff16156117a75760405162461bcd60e51b815260040161078d90613541565b6001600160a01b0382166117cd5760405162461bcd60e51b815260040161078d9061379c565b60008160048111156117e1576117e16133b6565b036118235760405162461bcd60e51b815260206004820152601260248201527143616e6e6f742061737369676e204e4f4e4560701b604482015260640161078d565b6004816004811115611837576118376133b6565b0361191457336001600160a01b037f000000000000000000000000000000000000000000000000000000000000000016146118bf5760405162461bcd60e51b815260206004820152602260248201527f4f6e6c79206f776e65722063616e2061737369676e20636f6d6d697373696f6e60448201526132b960f11b606482015260840161078d565b6001546001600160a01b03908116908316036119145760405162461bcd60e51b815260206004820152601460248201527320b63932b0b23c9031b7b6b6b4b9b9b4b7b732b960611b604482015260640161078d565b6040518060800160405280826004811115611931576119316133b6565b81526020016001151581526020014263ffffffff168152602001336001600160a01b0316815250600080846001600160a01b03166001600160a01b0316815260200190815260200160002060008201518160000160006101000a81548160ff021916908360048111156119a6576119a66133b6565b02179055506020820151815460408401516060909401516001600160a01b0316600160301b026601000000000000600160d01b031963ffffffff909516620100000265ffffffff000019931515610100029390931665ffffffffff00199092169190911791909117929092169190911790556004816004811115611a2c57611a2c6133b6565b148015611a4757506001546001600160a01b03838116911614155b15611a9c57600180546001600160a01b038481166001600160a01b0319831681179093556040519116919082907fd5ac32accaab437dd0b2a40e9ec05c4b9b41fb7008b2821e9c6bf8c6c6751eeb90600090a3505b33816004811115611aaf57611aaf6133b6565b6040516001600160a01b038516907f2459ac88ac07c4020108de12f1f8675bbf7e6928b4cfc156bde4727aacf7897390600090a45050565b6001546001600160a01b03163314611b115760405162461bcd60e51b815260040161078d90613516565b600154600160a01b900460ff1615611b3b5760405162461bcd60e51b815260040161078d90613541565b600354600160681b900460ff1615611b655760405162461bcd60e51b815260040161078d90613568565b600854600160481b900460ff1615611bb45760405162461bcd60e51b815260206004820152601260248201527110db1bdcd9481d9bdd1a5b99c8199a5c9cdd60721b604482015260640161078d565b600354600160901b900463ffffffff16611bfb5760405162461bcd60e51b81526020600482015260086024820152674e6f20766f74657360c01b604482015260640161078d565b600354600160201b900463ffffffff164211611c4e5760405162461bcd60e51b8152602060048201526012602482015271115b1958dd1a5bdb881b9bdd08195b99195960721b604482015260640161078d565b6000611c5861300e565b6003805463ffffffff808416600160b01b81026dffffffff0000000000000000ffff60601b1990931692909217600160681b17909255600081815260056020526040908190206002810154915194955091937fb43dd9b6498ed2862915679ff6a8ff702a8fb4486667a699b1b604c1848f728393611cd8939216906137fc565b60405180910390a250565b6001546001600160a01b0316331480611d245750336001600160a01b037f000000000000000000000000000000000000000000000000000000000000000016145b611d405760405162461bcd60e51b815260040161078d906137c5565b600154600160a01b900460ff1615611d6a5760405162461bcd60e51b815260040161078d90613541565b6001600160a01b038116611d905760405162461bcd60e51b815260040161078d9061379c565b7f00000000000000000000000000000000000000000000000000000000000000006001600160a01b0316816001600160a01b031603611e075760405162461bcd60e51b815260206004820152601360248201527221b0b73737ba103932bb37b5b29037bbb732b960691b604482015260640161078d565b6001546001600160a01b0390811690821603611e655760405162461bcd60e51b815260206004820152601a60248201527f43616e6e6f74207265766f6b6520636f6d6d697373696f6e6572000000000000604482015260640161078d565b6001600160a01b03811660009081526020819052604081205460ff1690816004811115611e9457611e946133b6565b03611ed55760405162461bcd60e51b81526020600482015260116024820152704e6f20726f6c6520746f207265766f6b6560781b604482015260640161078d565b6040805160808101825260008082526020808301829052828401829052606083018290526001600160a01b03861682528190529190912081518154829060ff19166001836004811115611f2a57611f2a6133b6565b02179055506020820151815460408401516060909401516001600160a01b0316600160301b026601000000000000600160d01b031963ffffffff909516620100000265ffffffff000019931515610100029390931665ffffffffff001990921691909117919091179290921691909117905533816004811115611faf57611faf6133b6565b6040516001600160a01b038516907fdc8ee88592cee6126ab42f95859fdf2bbf7b0a614a14d4fb307b601e2b5b0b0590600090a45050565b600354600280546060926000928392839283928392839283928392909163ffffffff80821692600160201b8304821692600160401b810483169260ff600160601b8304811693600160681b840490911692600160701b8104831692600160901b8204811692600160b01b90920416908990612061906135cd565b80601f016020809104026020016040519081016040528092919081815260200182805461208d906135cd565b80156120da5780601f106120af576101008083540402835291602001916120da565b820191906000526020600020905b8154815290600101906020018083116120bd57829003601f168201915b50505050509850985098509850985098509850985098509850909192939495969798565b600854600160481b900460ff1680156121205750600354600160601b900460ff165b8015612134575060035463ffffffff164210155b801561214f5750600354600160201b900463ffffffff164211155b61218b5760405162461bcd60e51b815260206004820152600d60248201526c159bdd1a5b99c818db1bdcd959609a1b604482015260640161078d565b3360009081526004602052604090205460ff166121db5760405162461bcd60e51b815260206004820152600e60248201526d139bdd081c9959da5cdd195c995960921b604482015260640161078d565b33600090815260046020526040902054610100900460ff16156122305760405162461bcd60e51b815260206004820152600d60248201526c105b1c9958591e481d9bdd1959609a1b604482015260640161078d565b8060008163ffffffff16118015612253575060085463ffffffff90811690821611155b61226f5760405162461bcd60e51b815260040161078d90613771565b63ffffffff8116600090815260056020526040902060020154600160201b900460ff166122d35760405162461bcd60e51b815260206004820152601260248201527143616e64696461746520696e61637469766560701b604482015260640161078d565b600154600160a01b900460ff16156122fd5760405162461bcd60e51b815260040161078d90613541565b600354600160681b900460ff16156123275760405162461bcd60e51b815260040161078d90613568565b336000908152600460209081526040808320805463ffffffff808816600160301b810269ffffffff00000000ff0019909316929092176101001790925584526005909252822060020180549091169161237f83613594565b82546101009290920a63ffffffff81810219909316918316021790915560038054600160901b9004909116915060126123b783613594565b91906101000a81548163ffffffff021916908363ffffffff160217905550508163ffffffff16336001600160a01b03167fbc7233f7691aac91bc322c5ab2e9dfc5cff367f4207a3976ed89fc0d517cf8ba42604051612422919063ffffffff91909116815260200190565b60405180910390a35050565b6001546001600160a01b031633146124585760405162461bcd60e51b815260040161078d90613516565b600154600160a01b900460ff16156124825760405162461bcd60e51b815260040161078d90613541565b600354600160681b900460ff16156124ac5760405162461bcd60e51b815260040161078d90613568565b600854600160481b900460ff166124f75760405162461bcd60e51b815260206004820152600f60248201526e2b37ba34b733903737ba1037b832b760891b604482015260640161078d565b6008805469ff000000000000000000191690556003805467ffffffff000000001916600160201b4263ffffffff1602179055565b600854600160401b900460ff1680156125535750600354600160401b900463ffffffff164211155b6125955760405162461bcd60e51b8152602060048201526013602482015272149959da5cdd1c985d1a5bdb8818db1bdcd959606a1b604482015260640161078d565b600154600160a01b900460ff16156125bf5760405162461bcd60e51b815260040161078d90613541565b600354600160681b900460ff16156125e95760405162461bcd60e51b815260040161078d90613568565b3360009081526004602052604090205460ff161561263e5760405162461bcd60e51b8152602060048201526012602482015271105b1c9958591e481c9959da5cdd195c995960721b604482015260640161078d565b6040805160a08101825260018152600060208083018281526008805463ffffffff600160201b9182900481168789019081526060880187815242831660808a0190815233808a52600489528b8a209a518b5498519451935192518616600160501b0263ffffffff60501b19938716600160301b0269ffffffff0000000000001995881662010000029590951669ffffffffffffffff0000199615156101000261ff00199315159390931661ffff19909b169a909a17919091179490941697909717919091171617909655815460068552878620805463ffffffff191691839004881691909117905590540484168352600790915292902080546001600160a01b03191690921790915560038054600160701b900490911690600e61276183613594565b82546101009290920a63ffffffff8181021990931691831602179091556008546040514283168152600160201b909104909116915033907fef11677f5cc4b4d7cd4952714e83899c4c7f92a151b0c8d157cd49618ea69dc59060200160405180910390a360088054600160201b900463ffffffff169060046127e283613594565b91906101000a81548163ffffffff021916908363ffffffff16021790555050565b6001546001600160a01b03163314806128445750336001600160a01b037f000000000000000000000000000000000000000000000000000000000000000016145b6128605760405162461bcd60e51b815260040161078d906137c5565b6001805460ff600160a01b808304821615810260ff60a01b199093169290921792839055910416156128b95760405133907f0e453e53649b13b8c30ef82dd7bce6c745cfcc7a1dc95170b4750764194f19b290600090a2565b60405133907f92414512bd79c80103975d8bef2f4e78aa5930c2869b4bd6139d98836ba8d91890600090a2565b6001546001600160a01b031633146129105760405162461bcd60e51b815260040161078d90613516565b600154600160a01b900460ff161561293a5760405162461bcd60e51b815260040161078d90613541565b600354600160681b900460ff16156129645760405162461bcd60e51b815260040161078d90613568565b8361299f5760405162461bcd60e51b815260206004820152600b60248201526a456d707479207469746c6560a81b604482015260640161078d565b428363ffffffff16116129e75760405162461bcd60e51b815260206004820152601060248201526f496e76616c696420646561646c696e6560801b604482015260640161078d565b8263ffffffff168263ffffffff1611612a375760405162461bcd60e51b8152602060048201526012602482015271496e76616c69642073746172742074696d6560701b604482015260640161078d565b8163ffffffff168163ffffffff1611612a855760405162461bcd60e51b815260206004820152601060248201526f496e76616c696420656e642074696d6560801b604482015260640161078d565b610e10612a9283836134f2565b63ffffffff161015612adb5760405162461bcd60e51b8152602060048201526012602482015271111d5c985d1a5bdb881d1bdbc81cda1bdc9d60721b604482015260640161078d565b62278d00612ae983836134f2565b63ffffffff161115612b315760405162461bcd60e51b81526020600482015260116024820152704475726174696f6e20746f6f206c6f6e6760781b604482015260640161078d565b600354600160601b900460ff1615612b7d5760405162461bcd60e51b815260206004820152600f60248201526e456c656374696f6e2061637469766560881b604482015260640161078d565b60405180610120016040528086868080601f016020809104026020016040519081016040528093929190818152602001838380828437600092018290525093855250505063ffffffff80861660208401528481166040840152861660608301526001608083015260a0820181905260c0820181905260e082018190526101009091015280516002908190612c119082613656565b50602082015160019190910180546040808501516060860151608087015160a088015160c089015160e08a0151610100909a015163ffffffff998a1667ffffffffffffffff1990981697909717600160201b958a1695909502949094176cffffffffff00000000000000001916600160401b938916840260ff60601b191617600160601b921515929092029190911764ffffffffff60681b1916600160681b9115159190910263ffffffff60701b191617600160701b928716929092029190911767ffffffffffffffff60901b1916600160901b9686169690960263ffffffff60b01b191695909517600160b01b94909216939093021790556008805461ffff60401b1916909217909155517f3980100dbdf34ee76c93803be602b01a88d8b9db3e07a13b3691c256d442ed2b90612d529087908790869086908990613893565b60405180910390a15050505050565b600560205260009081526040902080548190612d7c906135cd565b80601f0160208091040260200160405190810160405280929190818152602001828054612da8906135cd565b8015612df55780601f10612dca57610100808354040283529160200191612df5565b820191906000526020600020905b815481529060010190602001808311612dd857829003601f168201915b505050505090806001018054612e0a906135cd565b80601f0160208091040260200160405190810160405280929190818152602001828054612e36906135cd565b8015612e835780601f10612e5857610100808354040283529160200191612e83565b820191906000526020600020905b815481529060010190602001808311612e6657829003601f168201915b5050506002909301549192505063ffffffff8082169160ff600160201b82041691650100000000009091041685565b336001600160a01b037f00000000000000000000000000000000000000000000000000000000000000001614612f175760405162461bcd60e51b815260206004820152600a60248201526927b7363c9037bbb732b960b11b604482015260640161078d565b6001805460ff60a81b19169055565b600280548190612f35906135cd565b80601f0160208091040260200160405190810160405280929190818152602001828054612f61906135cd565b8015612fae5780601f10612f8357610100808354040283529160200191612fae565b820191906000526020600020905b815481529060010190602001808311612f9157829003601f168201915b5050506001909301549192505063ffffffff80821691600160201b8104821691600160401b820481169160ff600160601b8204811692600160681b830490911691600160701b8104821691600160901b8204811691600160b01b90041689565b60085460009063ffffffff166130565760405162461bcd60e51b815260206004820152600d60248201526c4e6f2063616e6469646174657360981b604482015260640161078d565b6001600081905260056020527f1471eb6eb2c5e789fc3de43f8ce62938c7d1836ec861730447e2ada8fd81017d5463ffffffff1660025b60085463ffffffff908116908216116131245763ffffffff8116600090815260056020526040902060020154600160201b900460ff1680156130eb575063ffffffff8181166000908152600560205260409020600201548184169116115b156131125763ffffffff808216600090815260056020526040902060020154919350169050815b8061311c81613594565b91505061308d565b509092915050565b80356001600160a01b038116811461314357600080fd5b919050565b6000806040838503121561315b57600080fd5b6131648361312c565b915060208301356005811061317857600080fd5b809150509250929050565b60008083601f84011261319557600080fd5b50813567ffffffffffffffff8111156131ad57600080fd5b6020830191508360208285010111156131c557600080fd5b9250929050565b600080600080604085870312156131e257600080fd5b843567ffffffffffffffff808211156131fa57600080fd5b61320688838901613183565b9096509450602087013591508082111561321f57600080fd5b5061322c87828801613183565b95989497509550505050565b803563ffffffff8116811461314357600080fd5b60006020828403121561325e57600080fd5b61098a82613238565b60006020828403121561327957600080fd5b61098a8261312c565b6000815180845260005b818110156132a85760208185018101518683018201520161328c565b506000602082860101526020601f19601f83011685010191505092915050565b600063ffffffff8087168352608060208401526132e86080840187613282565b83810360408501526132fa8187613282565b92505080841660608401525095945050505050565b6080815260006133226080830187613282565b82810360208401526133348187613282565b63ffffffff959095166040840152505090151560609091015292915050565b60006101208083526133678184018d613282565b63ffffffff9b8c166020850152998b16604084015250509588166060870152931515608086015291151560a0850152851660c0840152841660e083015290921661010090920191909152919050565b634e487b7160e01b600052602160045260246000fd5b60808101600586106133ee57634e487b7160e01b600052602160045260246000fd5b948152921515602084015263ffffffff9190911660408301526001600160a01b031660609091015290565b60008060008060006080868803121561343157600080fd5b853567ffffffffffffffff81111561344857600080fd5b61345488828901613183565b9096509450613467905060208701613238565b925061347560408701613238565b915061348360608701613238565b90509295509295909350565b60a0815260006134a260a0830188613282565b82810360208401526134b48188613282565b63ffffffff968716604085015294151560608401525050921660809092019190915292915050565b634e487b7160e01b600052601160045260246000fd5b63ffffffff82811682821603908082111561350f5761350f6134dc565b5092915050565b60208082526011908201527027b7363c9031b7b6b6b4b9b9b4b7b732b960791b604082015260600190565b6020808252600d908201526c14de5cdd195b481c185d5cd959609a1b604082015260600190565b602080825260129082015271115b1958dd1a5bdb88199a5b985b1a5e995960721b604082015260600190565b600063ffffffff8083168181036135ad576135ad6134dc565b6001019392505050565b634e487b7160e01b600052604160045260246000fd5b600181811c908216806135e157607f821691505b60208210810361360157634e487b7160e01b600052602260045260246000fd5b50919050565b601f82111561365157600081815260208120601f850160051c8101602086101561362e5750805b601f850160051c820191505b8181101561364d5782815560010161363a565b5050505b505050565b815167ffffffffffffffff811115613670576136706135b7565b6136848161367e84546135cd565b84613607565b602080601f8311600181146136b957600084156136a15750858301515b600019600386901b1c1916600185901b17855561364d565b600085815260208120601f198616915b828110156136e8578886015182559484019460019091019084016136c9565b50858210156137065787850151600019600388901b60f8161c191681555b5050505050600190811b01905550565b81835281816020850137506000828201602090810191909152601f909101601f19169091010190565b604081526000613753604083018688613716565b8281036020840152613766818587613716565b979650505050505050565b602080825260119082015270496e76616c69642063616e64696461746560781b604082015260600190565b6020808252600f908201526e496e76616c6964206164647265737360881b604082015260600190565b6020808252601a908201527f4f6e6c7920636f6d6d697373696f6e6572206f72206f776e6572000000000000604082015260600190565b60408152600080845461380e816135cd565b8060408601526060600180841660008114613830576001811461384a5761387b565b60ff1985168884015283151560051b88018301955061387b565b8960005260208060002060005b868110156138725781548b8201870152908401908201613857565b8a018501975050505b5050505063ffffffff8516602085015250905061098a565b6080815260006138a7608083018789613716565b63ffffffff958616602084015293851660408301525092166060909201919091529291505056fea26469706673582212208641b20539ac97bbd0399e3697ddb3f4c9cb0bc57658cbf0c3b628850b757a4164736f6c63430008130033",
  "immutableReferences": {
    "65": [
      {
        "length": 32,
        "start": 806
      },
      {
        "length": 32,
        "start": 2506
      },
      {
        "length": 32,
        "start": 4424
      },
      {
        "length": 32,
        "start": 5351
      },
      {
        "length": 32,
        "start": 5951
      },
      {
        "length": 32,
        "start": 6215
      },
      {
        "length": 32,
        "start": 7426
      },
      {
        "length": 32,
        "start": 7570
      },
      {
        "length": 32,
        "start": 10274
      },
      {
        "length": 32,
        "start": 11965
      }
    ]
  },
  "source": "// SPDX-License-Identifier: MIT\npragma solidity ^0.8.19;\n\ncontract Electra {    \n    enum Role { NONE, VOTER, OBSERVER, ADMIN, COMMISSIONER }\n    \n    struct User {\n        Role role;\n        bool isActive;\n        uint32 assignedAt;\n        address assignedBy;\n    }\n    \n    struct Voter {\n        bool isRegistered;\n        bool hasVoted;\n        uint32 voterID;\n        uint32 candidateVoted;\n        uint32 registrationTime;\n    }\n    \n    struct Candidate {\n        string name;\n        string party;\n        uint32 voteCount;\n        bool isActive;\n        uint32 addedAt;\n    }\n    \n    struct Election {\n        string title;\n        uint32 startTime;\n        uint32 endTime;\n        uint32 registrationDeadline;\n        bool isActive;\n        bool isFinalized;\n        uint32 totalVoters;\n        uint32 totalVotes;\n        uint32 winnerID;\n    }\n    \n    // ==================== STATE VARIABLES ====================\n    \n    // Access Control\n    mapping(address => User) public users;\n    address public immutable systemOwner;\n    address public currentCommissioner;\n    \n    // Emergency controls\n    bool public systemPaused;\n    bool public emergencyMode;\n    \n    // Core election data\n    Election public currentElection;\n    mapping(address => Voter) public voters;\n    mapping(uint32 => Candidate) public candidates;\n    \n    // Mappings for efficient access\n    mapping(address => uint32) public voterToID;\n    mapping(uint32 => address) public idToVoter;\n    \n    // Counters\n    uint32 public totalCandidates;\n    uint32 public nextVoterID = 1;\n    \n    // Election states\n    bool public registrationOpen;\n    bool public votingOpen;\n    \n    // Constants\n    uint32 public constant MAX_CANDIDATES = 50;\n    uint32 public constant MIN_VOTING_DURATION = 1 hours;\n    uint32 public constant MAX_VOTING_DURATION = 30 days;\n    \n    // ==================== EVENTS ====================\n    \n    event RoleAssigned(address indexed user, Role indexed role, address indexed assignedBy);\n    event RoleRevoked(address indexed user, Role indexed oldRole, address indexed revokedBy);\n    event CommissionerChanged(address indexed oldCommissioner, address indexed newCommissioner);\n    event SystemPaused(address indexed pausedBy);\n    event SystemUnpaused(address indexed unpausedBy);\n    \n    event ElectionCreated(string title, uint32 startTime, uint32 endTime, uint32 registrationDeadline);\n    event VoterRegistered(address indexed voter, uint32 indexed voterID, uint32 timestamp);\n    event CandidateAdded(uint32 indexed candidateID, string name, string party, address indexed addedBy);\n    event VoteCast(address indexed voter, uint32 indexed candidateID, uint32 timestamp);\n    event ElectionFinalized(uint32 indexed winnerID, string winnerName, uint32 totalVotes);\n        \n    modifier onlyOwner() {\n        require(msg.sender == systemOwner, \"Only owner\");\n        _;\n    }\n    \n    modifier onlyCommissioner() {\n        require(msg.sender == currentCommissioner, \"Only commissioner\");\n        _;\n    }\n    \n    modifier onlyCommissionerOrOwner() {\n        require(msg.sender == currentCommissioner || msg.sender == systemOwner, \"Only commissioner or owner\");\n        _;\n    }\n    \n    modifier onlyAdmin() {\n        require(\n            users[msg.sender].role >= Role.ADMIN || msg.sender == systemOwner,\n            \"Admin access required\"\n        );\n        _;\n    }\n    \n    modifier whenNotPaused() {\n        require(!systemPaused, \"System paused\");\n        _;\n    }\n    \n    modifier registrationIsOpen() {\n        require(registrationOpen && block.timestamp <= currentElection.registrationDeadline, \"Registration closed\");\n        _;\n    }\n    \n    modifier votingIsOpen() {\n        require(\n            votingOpen && \n            currentElection.isActive && \n            block.timestamp >= currentElection.startTime && \n            block.timestamp <= currentElection.endTime,\n            \"Voting closed\"\n        );\n        _;\n    }\n    \n    modifier onlyRegisteredVoter() {\n        require(voters[msg.sender].isRegistered, \"Not registered\");\n        _;\n    }\n    \n    modifier hasNotVoted() {\n        require(!voters[msg.sender].hasVoted, \"Already voted\");\n        _;\n    }\n    \n    modifier electionNotFinalized() {\n        require(!currentElection.isFinalized, \"Election finalized\");\n        _;\n    }\n    \n    modifier validCandidate(uint32 _candidateID) {\n        require(_candidateID > 0 && _candidateID <= totalCandidates, \"Invalid candidate\");\n        require(candidates[_candidateID].isActive, \"Candidate inactive\");\n        _;\n    }\n\n    constructor() {\n        systemOwner = msg.sender;\n        currentCommissioner = msg.sender;\n        \n        users[msg.sender] = User({\n            role: Role.COMMISSIONER,\n            isActive: true,\n            assignedAt: uint32(block.timestamp),\n            assignedBy: msg.sender\n        });\n        \n        emit RoleAssigned(msg.sender, Role.COMMISSIONER, msg.sender);\n    }\n        \n    function assignRole(address _user, Role _role) \n        external \n        onlyCommissionerOrOwner \n        whenNotPaused \n    {\n        require(_user != address(0), \"Invalid address\");\n        require(_role != Role.NONE, \"Cannot assign NONE\");\n        \n        if (_role == Role.COMMISSIONER) {\n            require(msg.sender == systemOwner, \"Only owner can assign commissioner\");\n            require(_user != currentCommissioner, \"Already commissioner\");\n        }\n        \n        users[_user] = User({\n            role: _role,\n            isActive: true,\n            assignedAt: uint32(block.timestamp),\n            assignedBy: msg.sender\n        });\n        \n        if (_role == Role.COMMISSIONER && _user != currentCommissioner) {\n            address oldCommissioner = currentCommissioner;\n            currentCommissioner = _user;\n            emit CommissionerChanged(oldCommissioner, _user);\n        }\n        \n        emit RoleAssigned(_user, _role, msg.sender);\n    }\n    \n    function revokeRole(address _user) \n        external \n        onlyCommissionerOrOwner \n        whenNotPaused \n    {\n        require(_user != address(0), \"Invalid address\");\n        require(_user != systemOwner, \"Cannot revoke owner\");\n        require(_user != currentCommissioner, \"Cannot revoke commissioner\");\n        \n        Role oldRole = users[_user].role;\n        require(oldRole != Role.NONE, \"No role to revoke\");\n        \n        users[_user] = User({\n            role: Role.NONE,\n            isActive: false,\n            assignedAt: 0,\n            assignedBy: address(0)\n        });\n        \n        emit RoleRevoked(_user, oldRole, msg.sender);\n    }\n    \n    function pauseSystem() external onlyCommissionerOrOwner {\n        systemPaused = !systemPaused;\n        if (systemPaused) {\n            emit SystemPaused(msg.sender);\n        } else {\n            emit SystemUnpaused(msg.sender);\n        }\n    }\n    \n    function activateEmergency() external onlyCommissionerOrOwner {\n        emergencyMode = true;\n        systemPaused = true;\n    }\n    \n    function deactivateEmergency() external onlyOwner {\n        emergencyMode = false;\n    }\n    \n    // ==================== ELECTION MANAGEMENT ====================\n    \n    function createElection(\n        string calldata _title,\n        uint32 _registrationDeadline,\n        uint32 _startTime,\n        uint32 _endTime\n    ) external onlyCommissioner whenNotPaused electionNotFinalized {\n        require(bytes(_title).length > 0, \"Empty title\");\n        require(_registrationDeadline > block.timestamp, \"Invalid deadline\");\n        require(_startTime > _registrationDeadline, \"Invalid start time\");\n        require(_endTime > _startTime, \"Invalid end time\");\n        require(_endTime - _startTime >= MIN_VOTING_DURATION, \"Duration too short\");\n        require(_endTime - _startTime <= MAX_VOTING_DURATION, \"Duration too long\");\n        require(!currentElection.isActive, \"Election active\");\n        \n        currentElection = Election({\n            title: _title,\n            startTime: _startTime,\n            endTime: _endTime,\n            registrationDeadline: _registrationDeadline,\n            isActive: true,\n            isFinalized: false,\n            totalVoters: 0,\n            totalVotes: 0,\n            winnerID: 0\n        });\n        \n        registrationOpen = true;\n        votingOpen = false;\n        \n        emit ElectionCreated(_title, _startTime, _endTime, _registrationDeadline);\n    }\n    \n    function startVoting() external onlyCommissioner whenNotPaused electionNotFinalized {\n        require(currentElection.isActive, \"No active election\");\n        require(!votingOpen, \"Voting already open\");\n        require(totalCandidates >= 2, \"Need at least 2 candidates\");\n        \n        registrationOpen = false;\n        votingOpen = true;\n        \n        if (block.timestamp < currentElection.startTime) {\n            currentElection.startTime = uint32(block.timestamp);\n        }\n    }\n    \n    function endVoting() external onlyCommissioner whenNotPaused electionNotFinalized {\n        require(votingOpen, \"Voting not open\");\n        votingOpen = false;\n        currentElection.endTime = uint32(block.timestamp);\n    }\n    \n    function finalizeElection() external onlyCommissioner whenNotPaused electionNotFinalized {\n        require(!votingOpen, \"Close voting first\");\n        require(currentElection.totalVotes > 0, \"No votes\");\n        require(block.timestamp > currentElection.endTime, \"Election not ended\");\n        \n        uint32 winnerID = _calculateWinner();\n        \n        currentElection.isFinalized = true;\n        currentElection.isActive = false;\n        currentElection.winnerID = winnerID;\n        \n        emit ElectionFinalized(winnerID, candidates[winnerID].name, candidates[winnerID].voteCount);\n    }\n    \n    // ==================== CANDIDATE MANAGEMENT ====================\n    \n    function addCandidate(\n        string calldata _name,\n        string calldata _party\n    ) external onlyAdmin whenNotPaused electionNotFinalized {\n        require(bytes(_name).length > 0, \"Empty name\");\n        require(bytes(_party).length > 0, \"Empty party\");\n        require(totalCandidates < MAX_CANDIDATES, \"Max candidates reached\");\n        require(!votingOpen, \"Cannot add during voting\");\n        require(currentElection.isActive, \"No active election\");\n        \n        totalCandidates++;\n        candidates[totalCandidates] = Candidate({\n            name: _name,\n            party: _party,\n            voteCount: 0,\n            isActive: true,\n            addedAt: uint32(block.timestamp)\n        });\n        \n        emit CandidateAdded(totalCandidates, _name, _party, msg.sender);\n    }\n    \n    function deactivateCandidate(uint32 _candidateID) \n        external \n        onlyCommissioner \n        whenNotPaused \n        validCandidate(_candidateID) \n        electionNotFinalized \n    {\n        require(!votingOpen, \"Cannot deactivate during voting\");\n        candidates[_candidateID].isActive = false;\n    }\n    \n    // ==================== VOTER MANAGEMENT ====================\n    \n    function registerVoter(address _voterAddress) \n        external \n        onlyAdmin \n        registrationIsOpen \n        whenNotPaused \n        electionNotFinalized \n    {\n        require(_voterAddress != address(0), \"Invalid address\");\n        require(!voters[_voterAddress].isRegistered, \"Already registered\");\n        \n        voters[_voterAddress] = Voter({\n            isRegistered: true,\n            hasVoted: false,\n            candidateVoted: 0,\n            voterID: nextVoterID,\n            registrationTime: uint32(block.timestamp)\n        });\n        \n        voterToID[_voterAddress] = nextVoterID;\n        idToVoter[nextVoterID] = _voterAddress;\n        \n        currentElection.totalVoters++;\n        \n        emit VoterRegistered(_voterAddress, nextVoterID, uint32(block.timestamp));\n        nextVoterID++;\n    }\n    \n    function selfRegister() \n        external \n        registrationIsOpen \n        whenNotPaused \n        electionNotFinalized \n    {\n        require(!voters[msg.sender].isRegistered, \"Already registered\");\n        \n        voters[msg.sender] = Voter({\n            isRegistered: true,\n            hasVoted: false,\n            candidateVoted: 0,\n            voterID: nextVoterID,\n            registrationTime: uint32(block.timestamp)\n        });\n        \n        voterToID[msg.sender] = nextVoterID;\n        idToVoter[nextVoterID] = msg.sender;\n        \n        currentElection.totalVoters++;\n        \n        emit VoterRegistered(msg.sender, nextVoterID, uint32(block.timestamp));\n        nextVoterID++;\n    }\n    \n    // ==================== VOTING ====================\n    \n    function vote(uint32 _candidateID) \n        external \n        votingIsOpen \n        onlyRegisteredVoter \n        hasNotVoted \n        validCandidate(_candidateID) \n        whenNotPaused \n        electionNotFinalized \n    {\n        voters[msg.sender].hasVoted = true;\n        voters[msg.sender].candidateVoted = _candidateID;\n        \n        candidates[_candidateID].voteCount++;\n        currentElection.totalVotes++;\n        \n        emit VoteCast(msg.sender, _candidateID, uint32(block.timestamp));\n    }\n    \n    // ==================== VIEW FUNCTIONS ====================\n    \n    function checkRole(address _user, Role _role) external view returns (bool) {\n        return users[_user].role == _role && users[_user].isActive;\n    }\n    \n    function getVoterInfo(address _voterAddress) \n        external \n        view \n        returns (\n            bool isRegistered,\n            bool hasVoted,\n            uint32 candidateVoted,\n            uint32 voterID,\n            uint32 registrationTime\n        ) \n    {\n        Voter memory voter = voters[_voterAddress];\n        return (\n            voter.isRegistered,\n            voter.hasVoted,\n            voter.candidateVoted,\n            voter.voterID,\n            voter.registrationTime\n        );\n    }\n    \n    function getCandidateInfo(uint32 _candidateID) \n        external \n        view \n        returns (\n            string memory name,\n            string memory party,\n            uint32 voteCount,\n            bool isActive\n        ) \n    {\n        require(_candidateID > 0 && _candidateID <= totalCandidates, \"Invalid candidate\");\n        Candidate memory candidate = candidates[_candidateID];\n        return (candidate.name, candidate.party, candidate.voteCount, candidate.isActive);\n    }\n    \n    function getElectionInfo() \n        external \n        view \n        returns (\n            string memory title,\n            uint32 startTime,\n            uint32 endTime,\n            uint32 registrationDeadline,\n            bool isActive,\n            bool isFinalized,\n            uint32 totalVotersCount,\n            uint32 totalVotes,\n            uint32 winnerID\n        ) \n    {\n        return (\n            currentElection.title,\n            currentElection.startTime,\n            currentElection.endTime,\n            currentElection.registrationDeadline,\n            currentElection.isActive,\n            currentElection.isFinalized,\n            currentElection.totalVoters,\n            currentElection.totalVotes,\n            currentElection.winnerID\n        );\n    }\n    \n    function getElectionStatus() \n        external \n        view \n        returns (\n            bool registrationActive,\n            bool votingActive,\n            uint32 timeUntilStart,\n            uint32 timeUntilEnd\n        ) \n    {\n        registrationActive = registrationOpen && block.timestamp <= currentElection.registrationDeadline;\n        votingActive = votingOpen && \n                      block.timestamp >= currentElection.startTime && \n                      block.timestamp <= currentElection.endTime;\n        \n        timeUntilStart = currentElection.startTime > block.timestamp ? \n                        currentElection.startTime - uint32(block.timestamp) : 0;\n        timeUntilEnd = currentElection.endTime > block.timestamp ? \n                      currentElection.endTime - uint32(block.timestamp) : 0;\n    }\n    \n    function getCurrentWinner() \n        external \n        view \n        returns (\n            uint32 winnerID,\n            string memory winnerName,\n            string memory winnerParty,\n            uint32 maxVotes\n        ) \n    {\n        require(totalCandidates > 0, \"No candidates\");\n        \n        winnerID = _calculateWinner();\n        maxVotes = candidates[winnerID].voteCount;\n        \n        if (winnerID > 0) {\n            winnerName = candidates[winnerID].name;\n            winnerParty = candidates[winnerID].party;\n        }\n    }\n    \n    // ==================== INTERNAL FUNCTIONS ====================\n    \n    function _calculateWinner() internal view returns (uint32) {\n        require(totalCandidates > 0, \"No candidates\");\n        \n        uint32 winnerID = 1;\n        uint32 maxVotes = candidates[1].voteCount;\n        \n        for (uint32 i = 2; i <= totalCandidates; i++) {\n            if (candidates[i].isActive && candidates[i].voteCount > maxVotes) {\n                maxVotes = candidates[i].voteCount;\n                winnerID = i;\n            }\n        }\n        \n        return winnerID;\n    }\n}",
  "sourcePath": "/home/godsfavour/ALU/electra/contracts/Electra.sol",
  "compiler": {
    "name": "solc",
    "version": "0.8.19+commit.7dd6d404.Emscripten.clang"
  },
  "schemaVersion": "3.4.16",
  "updatedAt": "2025-07-24T09:20:36.634Z",
  "networkType": "ethereum",
  "devdoc": {
    "kind": "dev",
    "methods": {},
    "version": 1
  },
  "userdoc": {
    "kind": "user",
    "methods": {},
    "version": 1
  }
}