{
  "contractName": "Electra",
  "abi": [
    {
      "inputs": [],
      "stateMutability": "nonpayable",
      "type": "constructor"
    },
    {
      "anonymous": false,
      "inputs": [
        {
          "indexed": true,
          "internalType": "uint256",
          "name": "candidateID",
          "type": "uint256"
        },
        {
          "indexed": false,
          "internalType": "string",
          "name": "name",
          "type": "string"
        },
        {
          "indexed": false,
          "internalType": "string",
          "name": "party",
          "type": "string"
        },
        {
          "indexed": true,
          "internalType": "address",
          "name": "addedBy",
          "type": "address"
        }
      ],
      "name": "CandidateAdded",
      "type": "event"
    },
    {
      "anonymous": false,
      "inputs": [
        {
          "indexed": true,
          "internalType": "uint256",
          "name": "candidateID",
          "type": "uint256"
        },
        {
          "indexed": true,
          "internalType": "address",
          "name": "deactivatedBy",
          "type": "address"
        }
      ],
      "name": "CandidateDeactivated",
      "type": "event"
    },
    {
      "anonymous": false,
      "inputs": [
        {
          "indexed": true,
          "internalType": "address",
          "name": "oldCommissioner",
          "type": "address"
        },
        {
          "indexed": true,
          "internalType": "address",
          "name": "newCommissioner",
          "type": "address"
        }
      ],
      "name": "CommissionerChanged",
      "type": "event"
    },
    {
      "anonymous": false,
      "inputs": [
        {
          "indexed": false,
          "internalType": "string",
          "name": "title",
          "type": "string"
        },
        {
          "indexed": false,
          "internalType": "uint256",
          "name": "startTime",
          "type": "uint256"
        },
        {
          "indexed": false,
          "internalType": "uint256",
          "name": "endTime",
          "type": "uint256"
        },
        {
          "indexed": false,
          "internalType": "uint256",
          "name": "registrationDeadline",
          "type": "uint256"
        }
      ],
      "name": "ElectionCreated",
      "type": "event"
    },
    {
      "anonymous": false,
      "inputs": [
        {
          "indexed": false,
          "internalType": "uint256",
          "name": "endTime",
          "type": "uint256"
        },
        {
          "indexed": false,
          "internalType": "uint256",
          "name": "totalVotes",
          "type": "uint256"
        }
      ],
      "name": "ElectionEnded",
      "type": "event"
    },
    {
      "anonymous": false,
      "inputs": [
        {
          "indexed": true,
          "internalType": "uint256",
          "name": "winnerID",
          "type": "uint256"
        },
        {
          "indexed": false,
          "internalType": "string",
          "name": "winnerName",
          "type": "string"
        },
        {
          "indexed": false,
          "internalType": "uint256",
          "name": "totalVotes",
          "type": "uint256"
        }
      ],
      "name": "ElectionFinalized",
      "type": "event"
    },
    {
      "anonymous": false,
      "inputs": [
        {
          "indexed": false,
          "internalType": "uint256",
          "name": "startTime",
          "type": "uint256"
        },
        {
          "indexed": false,
          "internalType": "uint256",
          "name": "endTime",
          "type": "uint256"
        }
      ],
      "name": "ElectionStarted",
      "type": "event"
    },
    {
      "anonymous": false,
      "inputs": [
        {
          "indexed": true,
          "internalType": "address",
          "name": "activatedBy",
          "type": "address"
        }
      ],
      "name": "EmergencyActivated",
      "type": "event"
    },
    {
      "anonymous": false,
      "inputs": [
        {
          "indexed": true,
          "internalType": "address",
          "name": "deactivatedBy",
          "type": "address"
        }
      ],
      "name": "EmergencyDeactivated",
      "type": "event"
    },
    {
      "anonymous": false,
      "inputs": [
        {
          "indexed": false,
          "internalType": "uint256",
          "name": "totalVoters",
          "type": "uint256"
        }
      ],
      "name": "RegistrationClosed",
      "type": "event"
    },
    {
      "anonymous": false,
      "inputs": [
        {
          "indexed": false,
          "internalType": "uint256",
          "name": "deadline",
          "type": "uint256"
        }
      ],
      "name": "RegistrationOpened",
      "type": "event"
    },
    {
      "anonymous": false,
      "inputs": [
        {
          "indexed": true,
          "internalType": "address",
          "name": "user",
          "type": "address"
        },
        {
          "indexed": true,
          "internalType": "enum ElectraAccessControl.Role",
          "name": "role",
          "type": "uint8"
        },
        {
          "indexed": true,
          "internalType": "address",
          "name": "assignedBy",
          "type": "address"
        }
      ],
      "name": "RoleAssigned",
      "type": "event"
    },
    {
      "anonymous": false,
      "inputs": [
        {
          "indexed": true,
          "internalType": "address",
          "name": "user",
          "type": "address"
        },
        {
          "indexed": true,
          "internalType": "enum ElectraAccessControl.Role",
          "name": "oldRole",
          "type": "uint8"
        },
        {
          "indexed": true,
          "internalType": "address",
          "name": "revokedBy",
          "type": "address"
        }
      ],
      "name": "RoleRevoked",
      "type": "event"
    },
    {
      "anonymous": false,
      "inputs": [
        {
          "indexed": true,
          "internalType": "address",
          "name": "pausedBy",
          "type": "address"
        }
      ],
      "name": "SystemPaused",
      "type": "event"
    },
    {
      "anonymous": false,
      "inputs": [
        {
          "indexed": true,
          "internalType": "address",
          "name": "unpausedBy",
          "type": "address"
        }
      ],
      "name": "SystemUnpaused",
      "type": "event"
    },
    {
      "anonymous": false,
      "inputs": [
        {
          "indexed": true,
          "internalType": "address",
          "name": "voter",
          "type": "address"
        },
        {
          "indexed": true,
          "internalType": "uint256",
          "name": "candidateID",
          "type": "uint256"
        },
        {
          "indexed": false,
          "internalType": "uint256",
          "name": "timestamp",
          "type": "uint256"
        },
        {
          "indexed": false,
          "internalType": "uint256",
          "name": "voteRecordID",
          "type": "uint256"
        }
      ],
      "name": "VoteCast",
      "type": "event"
    },
    {
      "anonymous": false,
      "inputs": [
        {
          "indexed": true,
          "internalType": "address",
          "name": "voter",
          "type": "address"
        },
        {
          "indexed": true,
          "internalType": "uint256",
          "name": "voterID",
          "type": "uint256"
        },
        {
          "indexed": false,
          "internalType": "uint256",
          "name": "timestamp",
          "type": "uint256"
        }
      ],
      "name": "VoterRegistered",
      "type": "event"
    },
    {
      "anonymous": false,
      "inputs": [
        {
          "indexed": false,
          "internalType": "uint256",
          "name": "newEndTime",
          "type": "uint256"
        },
        {
          "indexed": false,
          "internalType": "uint256",
          "name": "extensionBy",
          "type": "uint256"
        }
      ],
      "name": "VotingExtended",
      "type": "event"
    },
    {
      "inputs": [],
      "name": "MAX_CANDIDATES",
      "outputs": [
        {
          "internalType": "uint256",
          "name": "",
          "type": "uint256"
        }
      ],
      "stateMutability": "view",
      "type": "function"
    },
    {
      "inputs": [],
      "name": "MAX_VOTING_DURATION",
      "outputs": [
        {
          "internalType": "uint256",
          "name": "",
          "type": "uint256"
        }
      ],
      "stateMutability": "view",
      "type": "function"
    },
    {
      "inputs": [],
      "name": "MIN_VOTING_DURATION",
      "outputs": [
        {
          "internalType": "uint256",
          "name": "",
          "type": "uint256"
        }
      ],
      "stateMutability": "view",
      "type": "function"
    },
    {
      "inputs": [],
      "name": "activateEmergency",
      "outputs": [],
      "stateMutability": "nonpayable",
      "type": "function"
    },
    {
      "inputs": [
        {
          "internalType": "address",
          "name": "_user",
          "type": "address"
        },
        {
          "internalType": "enum ElectraAccessControl.Role",
          "name": "_role",
          "type": "uint8"
        }
      ],
      "name": "assignRole",
      "outputs": [],
      "stateMutability": "nonpayable",
      "type": "function"
    },
    {
      "inputs": [
        {
          "internalType": "uint256",
          "name": "",
          "type": "uint256"
        }
      ],
      "name": "candidates",
      "outputs": [
        {
          "internalType": "string",
          "name": "name",
          "type": "string"
        },
        {
          "internalType": "string",
          "name": "party",
          "type": "string"
        },
        {
          "internalType": "string",
          "name": "manifesto",
          "type": "string"
        },
        {
          "internalType": "uint256",
          "name": "voteCount",
          "type": "uint256"
        },
        {
          "internalType": "bool",
          "name": "isActive",
          "type": "bool"
        },
        {
          "internalType": "uint256",
          "name": "candidateID",
          "type": "uint256"
        },
        {
          "internalType": "uint256",
          "name": "addedAt",
          "type": "uint256"
        }
      ],
      "stateMutability": "view",
      "type": "function"
    },
    {
      "inputs": [
        {
          "internalType": "address",
          "name": "_user",
          "type": "address"
        },
        {
          "internalType": "enum ElectraAccessControl.Role",
          "name": "_role",
          "type": "uint8"
        }
      ],
      "name": "checkRole",
      "outputs": [
        {
          "internalType": "bool",
          "name": "",
          "type": "bool"
        }
      ],
      "stateMutability": "view",
      "type": "function"
    },
    {
      "inputs": [],
      "name": "currentCommissioner",
      "outputs": [
        {
          "internalType": "address",
          "name": "",
          "type": "address"
        }
      ],
      "stateMutability": "view",
      "type": "function"
    },
    {
      "inputs": [],
      "name": "currentElection",
      "outputs": [
        {
          "internalType": "string",
          "name": "title",
          "type": "string"
        },
        {
          "internalType": "string",
          "name": "description",
          "type": "string"
        },
        {
          "internalType": "uint256",
          "name": "startTime",
          "type": "uint256"
        },
        {
          "internalType": "uint256",
          "name": "endTime",
          "type": "uint256"
        },
        {
          "internalType": "uint256",
          "name": "registrationDeadline",
          "type": "uint256"
        },
        {
          "internalType": "bool",
          "name": "isActive",
          "type": "bool"
        },
        {
          "internalType": "bool",
          "name": "isFinalized",
          "type": "bool"
        },
        {
          "internalType": "uint256",
          "name": "totalVoters",
          "type": "uint256"
        },
        {
          "internalType": "uint256",
          "name": "totalVotes",
          "type": "uint256"
        },
        {
          "internalType": "uint256",
          "name": "winnerID",
          "type": "uint256"
        }
      ],
      "stateMutability": "view",
      "type": "function"
    },
    {
      "inputs": [],
      "name": "deactivateEmergency",
      "outputs": [],
      "stateMutability": "nonpayable",
      "type": "function"
    },
    {
      "inputs": [
        {
          "internalType": "address",
          "name": "_user",
          "type": "address"
        }
      ],
      "name": "deactivateUser",
      "outputs": [],
      "stateMutability": "nonpayable",
      "type": "function"
    },
    {
      "inputs": [],
      "name": "emergencyMode",
      "outputs": [
        {
          "internalType": "bool",
          "name": "",
          "type": "bool"
        }
      ],
      "stateMutability": "view",
      "type": "function"
    },
    {
      "inputs": [],
      "name": "getSystemStats",
      "outputs": [
        {
          "internalType": "uint256",
          "name": "admins",
          "type": "uint256"
        },
        {
          "internalType": "uint256",
          "name": "voters",
          "type": "uint256"
        },
        {
          "internalType": "uint256",
          "name": "observers",
          "type": "uint256"
        },
        {
          "internalType": "bool",
          "name": "paused",
          "type": "bool"
        },
        {
          "internalType": "bool",
          "name": "emergency",
          "type": "bool"
        },
        {
          "internalType": "address",
          "name": "owner",
          "type": "address"
        },
        {
          "internalType": "address",
          "name": "commissioner",
          "type": "address"
        }
      ],
      "stateMutability": "view",
      "type": "function"
    },
    {
      "inputs": [
        {
          "internalType": "address",
          "name": "_user",
          "type": "address"
        }
      ],
      "name": "getUserInfo",
      "outputs": [
        {
          "internalType": "enum ElectraAccessControl.Role",
          "name": "role",
          "type": "uint8"
        },
        {
          "internalType": "bool",
          "name": "isActive",
          "type": "bool"
        },
        {
          "internalType": "uint256",
          "name": "assignedAt",
          "type": "uint256"
        },
        {
          "internalType": "address",
          "name": "assignedBy",
          "type": "address"
        }
      ],
      "stateMutability": "view",
      "type": "function"
    },
    {
      "inputs": [
        {
          "internalType": "uint256",
          "name": "",
          "type": "uint256"
        }
      ],
      "name": "idToVoter",
      "outputs": [
        {
          "internalType": "address",
          "name": "",
          "type": "address"
        }
      ],
      "stateMutability": "view",
      "type": "function"
    },
    {
      "inputs": [],
      "name": "isSystemOperational",
      "outputs": [
        {
          "internalType": "bool",
          "name": "",
          "type": "bool"
        }
      ],
      "stateMutability": "view",
      "type": "function"
    },
    {
      "inputs": [],
      "name": "nextVoteRecord",
      "outputs": [
        {
          "internalType": "uint256",
          "name": "",
          "type": "uint256"
        }
      ],
      "stateMutability": "view",
      "type": "function"
    },
    {
      "inputs": [],
      "name": "nextVoterID",
      "outputs": [
        {
          "internalType": "uint256",
          "name": "",
          "type": "uint256"
        }
      ],
      "stateMutability": "view",
      "type": "function"
    },
    {
      "inputs": [
        {
          "internalType": "address",
          "name": "_user",
          "type": "address"
        },
        {
          "internalType": "enum ElectraAccessControl.Role[]",
          "name": "_roles",
          "type": "uint8[]"
        }
      ],
      "name": "onlyAnyRole",
      "outputs": [
        {
          "internalType": "bool",
          "name": "",
          "type": "bool"
        }
      ],
      "stateMutability": "view",
      "type": "function"
    },
    {
      "inputs": [],
      "name": "pauseSystem",
      "outputs": [],
      "stateMutability": "nonpayable",
      "type": "function"
    },
    {
      "inputs": [
        {
          "internalType": "address",
          "name": "_user",
          "type": "address"
        }
      ],
      "name": "reactivateUser",
      "outputs": [],
      "stateMutability": "nonpayable",
      "type": "function"
    },
    {
      "inputs": [],
      "name": "registrationOpen",
      "outputs": [
        {
          "internalType": "bool",
          "name": "",
          "type": "bool"
        }
      ],
      "stateMutability": "view",
      "type": "function"
    },
    {
      "inputs": [
        {
          "internalType": "address",
          "name": "_user",
          "type": "address"
        }
      ],
      "name": "revokeRole",
      "outputs": [],
      "stateMutability": "nonpayable",
      "type": "function"
    },
    {
      "inputs": [],
      "name": "systemOwner",
      "outputs": [
        {
          "internalType": "address",
          "name": "",
          "type": "address"
        }
      ],
      "stateMutability": "view",
      "type": "function"
    },
    {
      "inputs": [],
      "name": "systemPaused",
      "outputs": [
        {
          "internalType": "bool",
          "name": "",
          "type": "bool"
        }
      ],
      "stateMutability": "view",
      "type": "function"
    },
    {
      "inputs": [],
      "name": "totalAdmins",
      "outputs": [
        {
          "internalType": "uint256",
          "name": "",
          "type": "uint256"
        }
      ],
      "stateMutability": "view",
      "type": "function"
    },
    {
      "inputs": [],
      "name": "totalCandidates",
      "outputs": [
        {
          "internalType": "uint256",
          "name": "",
          "type": "uint256"
        }
      ],
      "stateMutability": "view",
      "type": "function"
    },
    {
      "inputs": [],
      "name": "totalObservers",
      "outputs": [
        {
          "internalType": "uint256",
          "name": "",
          "type": "uint256"
        }
      ],
      "stateMutability": "view",
      "type": "function"
    },
    {
      "inputs": [],
      "name": "totalVoters",
      "outputs": [
        {
          "internalType": "uint256",
          "name": "",
          "type": "uint256"
        }
      ],
      "stateMutability": "view",
      "type": "function"
    },
    {
      "inputs": [
        {
          "internalType": "address",
          "name": "_newOwner",
          "type": "address"
        }
      ],
      "name": "transferOwnership",
      "outputs": [],
      "stateMutability": "nonpayable",
      "type": "function"
    },
    {
      "inputs": [],
      "name": "unpauseSystem",
      "outputs": [],
      "stateMutability": "nonpayable",
      "type": "function"
    },
    {
      "inputs": [
        {
          "internalType": "bytes32",
          "name": "",
          "type": "bytes32"
        }
      ],
      "name": "usedHashes",
      "outputs": [
        {
          "internalType": "bool",
          "name": "",
          "type": "bool"
        }
      ],
      "stateMutability": "view",
      "type": "function"
    },
    {
      "inputs": [
        {
          "internalType": "address",
          "name": "",
          "type": "address"
        }
      ],
      "name": "users",
      "outputs": [
        {
          "internalType": "enum ElectraAccessControl.Role",
          "name": "role",
          "type": "uint8"
        },
        {
          "internalType": "bool",
          "name": "isActive",
          "type": "bool"
        },
        {
          "internalType": "uint256",
          "name": "assignedAt",
          "type": "uint256"
        },
        {
          "internalType": "address",
          "name": "assignedBy",
          "type": "address"
        }
      ],
      "stateMutability": "view",
      "type": "function"
    },
    {
      "inputs": [
        {
          "internalType": "uint256",
          "name": "",
          "type": "uint256"
        }
      ],
      "name": "voteRecords",
      "outputs": [
        {
          "internalType": "address",
          "name": "voter",
          "type": "address"
        },
        {
          "internalType": "uint256",
          "name": "candidateID",
          "type": "uint256"
        },
        {
          "internalType": "uint256",
          "name": "timestamp",
          "type": "uint256"
        },
        {
          "internalType": "bytes32",
          "name": "transactionHash",
          "type": "bytes32"
        }
      ],
      "stateMutability": "view",
      "type": "function"
    },
    {
      "inputs": [
        {
          "internalType": "address",
          "name": "",
          "type": "address"
        }
      ],
      "name": "voterToID",
      "outputs": [
        {
          "internalType": "uint256",
          "name": "",
          "type": "uint256"
        }
      ],
      "stateMutability": "view",
      "type": "function"
    },
    {
      "inputs": [
        {
          "internalType": "address",
          "name": "",
          "type": "address"
        }
      ],
      "name": "voters",
      "outputs": [
        {
          "internalType": "bool",
          "name": "isRegistered",
          "type": "bool"
        },
        {
          "internalType": "bool",
          "name": "hasVoted",
          "type": "bool"
        },
        {
          "internalType": "uint256",
          "name": "candidateVoted",
          "type": "uint256"
        },
        {
          "internalType": "uint256",
          "name": "voterID",
          "type": "uint256"
        },
        {
          "internalType": "uint256",
          "name": "registrationTime",
          "type": "uint256"
        },
        {
          "internalType": "bytes32",
          "name": "verificationHash",
          "type": "bytes32"
        }
      ],
      "stateMutability": "view",
      "type": "function"
    },
    {
      "inputs": [],
      "name": "votingOpen",
      "outputs": [
        {
          "internalType": "bool",
          "name": "",
          "type": "bool"
        }
      ],
      "stateMutability": "view",
      "type": "function"
    },
    {
      "inputs": [
        {
          "internalType": "string",
          "name": "_title",
          "type": "string"
        },
        {
          "internalType": "string",
          "name": "_description",
          "type": "string"
        },
        {
          "internalType": "uint256",
          "name": "_registrationDeadline",
          "type": "uint256"
        },
        {
          "internalType": "uint256",
          "name": "_startTime",
          "type": "uint256"
        },
        {
          "internalType": "uint256",
          "name": "_endTime",
          "type": "uint256"
        }
      ],
      "name": "createElection",
      "outputs": [],
      "stateMutability": "nonpayable",
      "type": "function"
    },
    {
      "inputs": [],
      "name": "startVoting",
      "outputs": [],
      "stateMutability": "nonpayable",
      "type": "function"
    },
    {
      "inputs": [],
      "name": "endVoting",
      "outputs": [],
      "stateMutability": "nonpayable",
      "type": "function"
    },
    {
      "inputs": [],
      "name": "finalizeElection",
      "outputs": [],
      "stateMutability": "nonpayable",
      "type": "function"
    },
    {
      "inputs": [
        {
          "internalType": "string",
          "name": "_name",
          "type": "string"
        },
        {
          "internalType": "string",
          "name": "_party",
          "type": "string"
        },
        {
          "internalType": "string",
          "name": "_manifesto",
          "type": "string"
        }
      ],
      "name": "addCandidate",
      "outputs": [],
      "stateMutability": "nonpayable",
      "type": "function"
    },
    {
      "inputs": [
        {
          "internalType": "uint256",
          "name": "_candidateID",
          "type": "uint256"
        }
      ],
      "name": "deactivateCandidate",
      "outputs": [],
      "stateMutability": "nonpayable",
      "type": "function"
    },
    {
      "inputs": [
        {
          "internalType": "address",
          "name": "_voterAddress",
          "type": "address"
        }
      ],
      "name": "registerVoter",
      "outputs": [],
      "stateMutability": "nonpayable",
      "type": "function"
    },
    {
      "inputs": [],
      "name": "selfRegister",
      "outputs": [],
      "stateMutability": "nonpayable",
      "type": "function"
    },
    {
      "inputs": [
        {
          "internalType": "uint256",
          "name": "_candidateID",
          "type": "uint256"
        }
      ],
      "name": "vote",
      "outputs": [],
      "stateMutability": "nonpayable",
      "type": "function"
    },
    {
      "inputs": [
        {
          "internalType": "uint256",
          "name": "_additionalHours",
          "type": "uint256"
        }
      ],
      "name": "extendVotingPeriod",
      "outputs": [],
      "stateMutability": "nonpayable",
      "type": "function"
    },
    {
      "inputs": [],
      "name": "emergencyResetElection",
      "outputs": [],
      "stateMutability": "nonpayable",
      "type": "function"
    },
    {
      "inputs": [
        {
          "internalType": "address",
          "name": "_voterAddress",
          "type": "address"
        }
      ],
      "name": "getVoterInfo",
      "outputs": [
        {
          "internalType": "bool",
          "name": "isRegistered",
          "type": "bool"
        },
        {
          "internalType": "bool",
          "name": "hasVoted",
          "type": "bool"
        },
        {
          "internalType": "uint256",
          "name": "candidateVoted",
          "type": "uint256"
        },
        {
          "internalType": "uint256",
          "name": "voterID",
          "type": "uint256"
        },
        {
          "internalType": "uint256",
          "name": "registrationTime",
          "type": "uint256"
        },
        {
          "internalType": "bytes32",
          "name": "verificationHash",
          "type": "bytes32"
        }
      ],
      "stateMutability": "view",
      "type": "function"
    },
    {
      "inputs": [
        {
          "internalType": "uint256",
          "name": "_candidateID",
          "type": "uint256"
        }
      ],
      "name": "getCandidateInfo",
      "outputs": [
        {
          "internalType": "string",
          "name": "name",
          "type": "string"
        },
        {
          "internalType": "string",
          "name": "party",
          "type": "string"
        },
        {
          "internalType": "string",
          "name": "manifesto",
          "type": "string"
        },
        {
          "internalType": "uint256",
          "name": "voteCount",
          "type": "uint256"
        },
        {
          "internalType": "bool",
          "name": "isActive",
          "type": "bool"
        }
      ],
      "stateMutability": "view",
      "type": "function"
    },
    {
      "inputs": [],
      "name": "getAllCandidates",
      "outputs": [
        {
          "internalType": "uint256[]",
          "name": "candidateIDs",
          "type": "uint256[]"
        },
        {
          "internalType": "string[]",
          "name": "names",
          "type": "string[]"
        },
        {
          "internalType": "string[]",
          "name": "parties",
          "type": "string[]"
        },
        {
          "internalType": "uint256[]",
          "name": "voteCounts",
          "type": "uint256[]"
        },
        {
          "internalType": "bool[]",
          "name": "isActiveArray",
          "type": "bool[]"
        }
      ],
      "stateMutability": "view",
      "type": "function"
    },
    {
      "inputs": [],
      "name": "getElectionInfo",
      "outputs": [
        {
          "internalType": "string",
          "name": "title",
          "type": "string"
        },
        {
          "internalType": "string",
          "name": "description",
          "type": "string"
        },
        {
          "internalType": "uint256",
          "name": "startTime",
          "type": "uint256"
        },
        {
          "internalType": "uint256",
          "name": "endTime",
          "type": "uint256"
        },
        {
          "internalType": "uint256",
          "name": "registrationDeadline",
          "type": "uint256"
        },
        {
          "internalType": "bool",
          "name": "isActive",
          "type": "bool"
        },
        {
          "internalType": "bool",
          "name": "isFinalized",
          "type": "bool"
        },
        {
          "internalType": "uint256",
          "name": "totalVoters",
          "type": "uint256"
        },
        {
          "internalType": "uint256",
          "name": "totalVotes",
          "type": "uint256"
        },
        {
          "internalType": "uint256",
          "name": "winnerID",
          "type": "uint256"
        }
      ],
      "stateMutability": "view",
      "type": "function"
    },
    {
      "inputs": [],
      "name": "getElectionStatus",
      "outputs": [
        {
          "internalType": "bool",
          "name": "registrationActive",
          "type": "bool"
        },
        {
          "internalType": "bool",
          "name": "votingActive",
          "type": "bool"
        },
        {
          "internalType": "uint256",
          "name": "timeUntilStart",
          "type": "uint256"
        },
        {
          "internalType": "uint256",
          "name": "timeUntilEnd",
          "type": "uint256"
        },
        {
          "internalType": "uint256",
          "name": "timeUntilRegistrationDeadline",
          "type": "uint256"
        }
      ],
      "stateMutability": "view",
      "type": "function"
    },
    {
      "inputs": [],
      "name": "getCurrentWinner",
      "outputs": [
        {
          "internalType": "uint256",
          "name": "winnerID",
          "type": "uint256"
        },
        {
          "internalType": "string",
          "name": "winnerName",
          "type": "string"
        },
        {
          "internalType": "string",
          "name": "winnerParty",
          "type": "string"
        },
        {
          "internalType": "uint256",
          "name": "maxVotes",
          "type": "uint256"
        },
        {
          "internalType": "bool",
          "name": "isTie",
          "type": "bool"
        }
      ],
      "stateMutability": "view",
      "type": "function"
    },
    {
      "inputs": [
        {
          "internalType": "uint256",
          "name": "_recordID",
          "type": "uint256"
        }
      ],
      "name": "getVoteRecord",
      "outputs": [
        {
          "internalType": "address",
          "name": "voter",
          "type": "address"
        },
        {
          "internalType": "uint256",
          "name": "candidateID",
          "type": "uint256"
        },
        {
          "internalType": "uint256",
          "name": "timestamp",
          "type": "uint256"
        },
        {
          "internalType": "bytes32",
          "name": "transactionHash",
          "type": "bytes32"
        }
      ],
      "stateMutability": "view",
      "type": "function"
    },
    {
      "inputs": [
        {
          "internalType": "address",
          "name": "_voter",
          "type": "address"
        },
        {
          "internalType": "bytes32",
          "name": "_hash",
          "type": "bytes32"
        }
      ],
      "name": "verifyVote",
      "outputs": [
        {
          "internalType": "bool",
          "name": "",
          "type": "bool"
        }
      ],
      "stateMutability": "view",
      "type": "function"
    },
    {
      "inputs": [],
      "name": "getElectionStatistics",
      "outputs": [
        {
          "internalType": "uint256",
          "name": "totalRegisteredVoters",
          "type": "uint256"
        },
        {
          "internalType": "uint256",
          "name": "totalVotesCast",
          "type": "uint256"
        },
        {
          "internalType": "uint256",
          "name": "voterTurnoutPercentage",
          "type": "uint256"
        },
        {
          "internalType": "uint256",
          "name": "activeCandidates",
          "type": "uint256"
        },
        {
          "internalType": "uint256",
          "name": "totalCandidatesCount",
          "type": "uint256"
        },
        {
          "internalType": "bool",
          "name": "hasWinner",
          "type": "bool"
        },
        {
          "internalType": "bool",
          "name": "electionComplete",
          "type": "bool"
        }
      ],
      "stateMutability": "view",
      "type": "function"
    }
  ],
  "bytecode": "0x60806040526006805461ffff191690553480156200001c57600080fd5b5060018054336001600160a01b031991821681178355600280549092168117909155604080516080810182526004808252602080830186905242838501526060830185905260009485528490529190922082518154939491939092849260ff199092169190849081111562000095576200009562000123565b02179055506020820151815461ff0019166101009115159190910217815560408201516001820155606090910151600290910180546001600160a01b0319166001600160a01b0390921691909117905533600460405133907f2459ac88ac07c4020108de12f1f8675bbf7e6928b4cfc156bde4727aacf7897390600090a46001601681905560175562000139565b634e487b7160e01b600052602160045260246000fd5b61558380620001496000396000f3fe608060405234801561001057600080fd5b50600436106103835760003560e01c806386852dca116101de578063c3403ddf1161010f578063eb68048b116100ad578063f8c705711161007c578063f8c7057114610948578063fa68694814610971578063fcae83a714610979578063ff50e12f1461098157600080fd5b8063eb68048b1461091a578063eefe85e414610923578063f07860961461092d578063f2fde38b1461093557600080fd5b8063d86a28bb116100e9578063d86a28bb146108c0578063dc1d4fb7146108c8578063ddf70d3c146108d0578063eaf1061c1461091157600080fd5b8063c3403ddf1461084f578063c9d5d5e914610857578063d1ce59a71461086057600080fd5b8063a7acaffa1161017c578063ad71f8dc11610156578063ad71f8dc146107fe578063aef18bf714610811578063b3363c4614610834578063b8a7ffb81461084757600080fd5b8063a7acaffa146107a0578063a87430ba146107a8578063a95824b4146107ec57600080fd5b806397341d59116101b857806397341d59146106845780639d2f83f0146106975780639ed1f255146106a4578063a3ec138d1461075b57600080fd5b806386852dca1461064a57806391f7a598146106685780639593c69c1461067b57600080fd5b806338db6dd3116102b85780636386c1c71161025657806370f67cfe1161023057806370f67cfe146105f3578063736f88cd1461061757806380e52e3f1461062457806381a294571461063757600080fd5b80636386c1c7146105bf5780636a65c910146105e25780636cc6837e146105eb57600080fd5b8063457e8b9711610292578063457e8b97146105935780634c7612401461059b5780635f5300ff146105a3578063630a195b146105ac57600080fd5b806338db6dd31461055a5780633e48689b1461056d578063450695921461058057600080fd5b8063268b8c6911610325578063329bfc33116102ff578063329bfc33146104e757806333779254146105005780633477ee2e1461052b5780633866965c1461055157600080fd5b8063268b8c691461046157806327eae9e9146104a05780632e6997fe146104ce57600080fd5b80631a47767b116103615780631a47767b146103f65780631ec6b60a1461040957806323a3ad72146104115780632488d9091461042457600080fd5b80630121b93f146103885780630905f5601461039d578063122902a6146103c4575b600080fd5b61039b6103963660046149ca565b610994565b005b6006546103af90610100900460ff1681565b60405190151581526020015b60405180910390f35b6103cc610ddd565b6040805195151586529315156020860152928401919091526060830152608082015260a0016103bb565b61039b6104043660046149ff565b610e98565b61039b61106b565b6103af61041f366004614a29565b611254565b6104376104323660046149ca565b6112c8565b604080516001600160a01b03909516855260208501939093529183015260608201526080016103bb565b61043761046f3660046149ca565b60126020526000908152604090208054600182015460028301546003909301546001600160a01b0390921692909184565b6104c06104ae3660046149ff565b60136020526000908152604090205481565b6040519081526020016103bb565b6104d6611376565b6040516103bb959493929190614b35565b6104ef611754565b6040516103bb959493929190614bca565b600154610513906001600160a01b031681565b6040516001600160a01b0390911681526020016103bb565b61053e6105393660046149ca565b6118d3565b6040516103bb9796959493929190614c0f565b6104c060155481565b61039b6105683660046149ff565b611aaa565b61039b61057b3660046149ca565b611f10565b600254610513906001600160a01b031681565b61039b612073565b61039b612146565b6104c060045481565b61039b6105ba366004614a29565b612205565b6105d26105cd3660046149ff565b61261d565b6040516103bb9493929190614c85565b6104c060175481565b61039b6126cc565b6106066106013660046149ca565b6128aa565b6040516103bb959493929190614ccc565b6018546103af9060ff1681565b61039b6106323660046149ff565b612b15565b61039b6106453660046149ff565b612df6565b610652612f85565b6040516103bb9a99989796959493929190614d05565b6103af610676366004614d6f565b613108565b6104c060055481565b61039b6106923660046149ca565b613152565b6006546103af9060ff1681565b61072c6106b23660046149ff565b6001600160a01b0316600090815260106020908152604091829020825160c081018452815460ff8082161515808452610100909204161515938201849052600183015494820185905260028301546060830181905260038401546080840181905260049094015460a0909301839052909593949390929190565b6040805196151587529415156020870152938501929092526060840152608083015260a082015260c0016103bb565b61072c6107693660046149ff565b6010602052600090815260409020805460018201546002830154600384015460049094015460ff8085169561010090950416939086565b6103af61330a565b6105d26107b63660046149ff565b60006020819052908152604090208054600182015460029092015460ff808316936101009093041691906001600160a01b031684565b6018546103af90610100900460ff1681565b61039b61080c366004614e50565b61332d565b6103af61081f3660046149ca565b60196020526000908152604090205460ff1681565b6103af610842366004614ed8565b6136c0565b61039b61377e565b61039b613861565b6104c060165481565b6003546004546005546006546001546002546040805196875260208701959095529385019290925260ff8082161515606086015261010090910416151560808401526001600160a01b0390811660a08401521660c082015260e0016103bb565b61039b613948565b61039b613c88565b6108d8613d54565b6040805197885260208801969096529486019390935260608501919091526080840152151560a0830152151560c082015260e0016103bb565b6104c0610e1081565b6104c060035481565b6104c062278d0081565b6104c0603281565b61039b6109433660046149ff565b613db2565b6105136109563660046149ca565b6014602052600090815260409020546001600160a01b031681565b61039b614047565b610652614100565b61039b61098f366004614f98565b614258565b601854610100900460ff166109c45760405162461bcd60e51b81526004016109bb90615017565b60405180910390fd5b600c5460ff16610a0f5760405162461bcd60e51b8152602060048201526016602482015275456c656374696f6e206973206e6f742061637469766560501b60448201526064016109bb565b600954421015610a615760405162461bcd60e51b815260206004820152601a60248201527f566f74696e6720686173206e6f7420737461727465642079657400000000000060448201526064016109bb565b600a54421115610ab35760405162461bcd60e51b815260206004820152601760248201527f566f74696e6720706572696f642068617320656e64656400000000000000000060448201526064016109bb565b3360009081526010602052604090205460ff16610b125760405162461bcd60e51b815260206004820152601e60248201527f596f7520617265206e6f74207265676973746572656420746f20766f7465000060448201526064016109bb565b33600090815260106020526040902054610100900460ff1615610b705760405162461bcd60e51b8152602060048201526016602482015275165bdd481a185d9948185b1c9958591e481d9bdd195960521b60448201526064016109bb565b80600081118015610b8357506015548111155b610b9f5760405162461bcd60e51b81526004016109bb9061504e565b60008181526011602052604090206004015460ff16610bfa5760405162461bcd60e51b815260206004820152601760248201527643616e646964617465206973206e6f742061637469766560481b60448201526064016109bb565b60065460ff1615610c1d5760405162461bcd60e51b81526004016109bb9061507c565b600c54610100900460ff1615610c455760405162461bcd60e51b81526004016109bb906150b3565b33600090815260208190526040902054610100900460ff16610ca95760405162461bcd60e51b815260206004820152601a60248201527f55736572206163636f756e74206973206e6f742061637469766500000000000060448201526064016109bb565b336000908152601060209081526040808320805461ff00191661010017815560010185905584835260119091528120600301805491610ce783615100565b9091555050600e8054906000610cfc83615100565b91905055506040518060800160405280336001600160a01b03168152602001838152602001428152602001600143610d349190615119565b40905260178054600090815260126020908152604091829020845181546001600160a01b0319166001600160a01b039091161781558482015160018201558483015160028201556060909401516003909401939093559054815142815292830152839133917fa23fc440c6fc2e19ce408adc0b47622097fa7ea64409d71d33ba3fcdb5b4cd95910160405180910390a360178054906000610dd483615100565b91905055505050565b601854600090819081908190819060ff168015610dfc5750600b544211155b601854909550610100900460ff168015610e1857506009544210155b8015610e265750600a544211155b93504260076002015411610e3b576000610e49565b600954610e49904290615119565b92504260076003015411610e5e576000610e6c565b600a54610e6c904290615119565b91504260076004015411610e81576000610e8f565b600b54610e8f904290615119565b90509091929394565b6002546001600160a01b0316331480610ebb57506001546001600160a01b031633145b610ed75760405162461bcd60e51b81526004016109bb9061512c565b60065460ff1615610efa5760405162461bcd60e51b81526004016109bb9061507c565b6001600160a01b038116610f205760405162461bcd60e51b81526004016109bb9061517e565b6001546001600160a01b0390811690821603610f7e5760405162461bcd60e51b815260206004820152601760248201527f43616e6e6f742064656163746976617465206f776e657200000000000000000060448201526064016109bb565b6002546001600160a01b0390811690821603610fdc5760405162461bcd60e51b815260206004820152601e60248201527f43616e6e6f74206465616374697661746520636f6d6d697373696f6e6572000060448201526064016109bb565b6001600160a01b038116600090815260208190526040902054610100900460ff166110495760405162461bcd60e51b815260206004820152601860248201527f5573657220697320616c726561647920696e616374697665000000000000000060448201526064016109bb565b6001600160a01b03166000908152602081905260409020805461ff0019169055565b6002546001600160a01b031633146110955760405162461bcd60e51b81526004016109bb906151ac565b60065460ff16156110b85760405162461bcd60e51b81526004016109bb9061507c565b600c54610100900460ff16156110e05760405162461bcd60e51b81526004016109bb906150b3565b600c5460ff166111025760405162461bcd60e51b81526004016109bb906151f5565b601854610100900460ff16156111535760405162461bcd60e51b81526020600482015260166024820152752b37ba34b7339034b99030b63932b0b23c9037b832b760511b60448201526064016109bb565b600260155410156111b95760405162461bcd60e51b815260206004820152602a60248201527f4e656564206174206c6561737420322063616e6469646174657320746f20737460448201526961727420766f74696e6760b01b60648201526084016109bb565b6018805461ffff19166101001790556009544210156111d757426009555b600d546040519081527f383b6ce38b867405b4f42fa404692e07842868068badd063c9bfeb0e7f263f629060200160405180910390a1600954600a546040517fff6a30dd22f5e8b783044c7d895a6e8592b55c56f139978d44dc39daf596731f9261124a92908252602082015260400190565b60405180910390a1565b600081600481111561126857611268614c6f565b6001600160a01b03841660009081526020819052604090205460ff16600481111561129557611295614c6f565b1480156112bf57506001600160a01b038316600090815260208190526040902054610100900460ff165b90505b92915050565b6000806000806000851180156112df575060175485105b61131f5760405162461bcd60e51b8152602060048201526011602482015270125b9d985b1a59081c9958dbdc99081251607a1b60448201526064016109bb565b50505060009182525060126020908152604091829020825160808101845281546001600160a01b03168082526001830154938201849052600283015494820185905260039092015460609091018190529093919291565b606080606080606060155467ffffffffffffffff81111561139957611399614d99565b6040519080825280602002602001820160405280156113c2578160200160208202803683370190505b50945060155467ffffffffffffffff8111156113e0576113e0614d99565b60405190808252806020026020018201604052801561141357816020015b60608152602001906001900390816113fe5790505b50935060155467ffffffffffffffff81111561143157611431614d99565b60405190808252806020026020018201604052801561146457816020015b606081526020019060019003908161144f5790505b50925060155467ffffffffffffffff81111561148257611482614d99565b6040519080825280602002602001820160405280156114ab578160200160208202803683370190505b50915060155467ffffffffffffffff8111156114c9576114c9614d99565b6040519080825280602002602001820160405280156114f2578160200160208202803683370190505b50905060015b601554811161174c57808661150e600183615119565b8151811061151e5761151e615221565b6020908102919091018101919091526000828152601190915260409020805461154690615237565b80601f016020809104026020016040519081016040528092919081815260200182805461157290615237565b80156115bf5780601f10611594576101008083540402835291602001916115bf565b820191906000526020600020905b8154815290600101906020018083116115a257829003601f168201915b5050505050856001836115d29190615119565b815181106115e2576115e2615221565b602002602001018190525060116000828152602001908152602001600020600101805461160e90615237565b80601f016020809104026020016040519081016040528092919081815260200182805461163a90615237565b80156116875780601f1061165c57610100808354040283529160200191611687565b820191906000526020600020905b81548152906001019060200180831161166a57829003601f168201915b50505050508460018361169a9190615119565b815181106116aa576116aa615221565b60200260200101819052506011600082815260200190815260200160002060030154836001836116da9190615119565b815181106116ea576116ea615221565b60209081029190910181019190915260008281526011909152604090206004015460ff168261171a600184615119565b8151811061172a5761172a615221565b911515602092830291909101909101528061174481615100565b9150506114f8565b509091929394565b600060608060008060006015541161177e5760405162461bcd60e51b81526004016109bb9061526b565b6117866146aa565b9196509250905084156118cc57600085815260116020526040902080546117ac90615237565b80601f01602080910402602001604051908101604052809291908181526020018280546117d890615237565b80156118255780601f106117fa57610100808354040283529160200191611825565b820191906000526020600020905b81548152906001019060200180831161180857829003601f168201915b505050600088815260116020526040902060010180549397509261184b92509050615237565b80601f016020809104026020016040519081016040528092919081815260200182805461187790615237565b80156118c45780601f10611899576101008083540402835291602001916118c4565b820191906000526020600020905b8154815290600101906020018083116118a757829003601f168201915b505050505092505b9091929394565b6011602052600090815260409020805481906118ee90615237565b80601f016020809104026020016040519081016040528092919081815260200182805461191a90615237565b80156119675780601f1061193c57610100808354040283529160200191611967565b820191906000526020600020905b81548152906001019060200180831161194a57829003601f168201915b50505050509080600101805461197c90615237565b80601f01602080910402602001604051908101604052809291908181526020018280546119a890615237565b80156119f55780601f106119ca576101008083540402835291602001916119f5565b820191906000526020600020905b8154815290600101906020018083116119d857829003601f168201915b505050505090806002018054611a0a90615237565b80601f0160208091040260200160405190810160405280929190818152602001828054611a3690615237565b8015611a835780601f10611a5857610100808354040283529160200191611a83565b820191906000526020600020905b815481529060010190602001808311611a6657829003601f168201915b505050506003830154600484015460058501546006909501549394919360ff909116925087565b60036004813360009081526020819052604090205460ff166004811115611ad357611ad3614c6f565b1480611b125750806004811115611aec57611aec614c6f565b3360009081526020819052604090205460ff166004811115611b1057611b10614c6f565b145b611b5e5760405162461bcd60e51b815260206004820152601d60248201527f496e73756666696369656e7420726f6c65207065726d697373696f6e7300000060448201526064016109bb565b60185460ff16611bb05760405162461bcd60e51b815260206004820152601e60248201527f566f74657220726567697374726174696f6e206973206e6f74206f70656e000060448201526064016109bb565b600b54421115611c025760405162461bcd60e51b815260206004820181905260248201527f526567697374726174696f6e20646561646c696e65206861732070617373656460448201526064016109bb565b60065460ff1615611c255760405162461bcd60e51b81526004016109bb9061507c565b600c54610100900460ff1615611c4d5760405162461bcd60e51b81526004016109bb906150b3565b6001600160a01b038316611c9b5760405162461bcd60e51b8152602060048201526015602482015274496e76616c696420766f746572206164647265737360581b60448201526064016109bb565b6001600160a01b03831660009081526010602052604090205460ff1615611d045760405162461bcd60e51b815260206004820152601860248201527f566f74657220616c72656164792072656769737465726564000000000000000060448201526064016109bb565b600c5460ff16611d265760405162461bcd60e51b81526004016109bb906151f5565b6016546040516bffffffffffffffffffffffff19606086901b166020820152603481019190915242605482015260009060740160408051601f1981840301815291815281516020928301206000818152601990935291205490915060ff1615611dcb5760405162461bcd60e51b815260206004820152601760248201527612185cda0818dbdb1b1a5cda5bdb8819195d1958dd1959604a1b60448201526064016109bb565b60008181526019602090815260408083208054600160ff199091168117909155815160c0810183528181528084018581528184018681526016805460608501908152426080860190815260a086018b81526001600160a01b038f16808c5260108b52898c2097518854975161ffff1990981690151561ff0019161761010097151597909702969096178755935196860196909655516002850155935160038401555160049092019190915590546013845282852081905584526014909252822080546001600160a01b0319169091179055600d805491611eaa83615100565b9190505550601654846001600160a01b03167f49a90692135172b11ff45007ef12b97c37df00bc650e48846f88da97b191b2d042604051611eed91815260200190565b60405180910390a360168054906000611f0583615100565b919050555050505050565b6002546001600160a01b03163314611f3a5760405162461bcd60e51b81526004016109bb906151ac565b60065460ff1615611f5d5760405162461bcd60e51b81526004016109bb9061507c565b600c54610100900460ff1615611f855760405162461bcd60e51b81526004016109bb906150b3565b601854610100900460ff16611fac5760405162461bcd60e51b81526004016109bb90615017565b600081118015611fbd575060488111155b6120095760405162461bcd60e51b815260206004820152601860248201527f496e76616c696420657874656e73696f6e20706572696f64000000000000000060448201526064016109bb565b600061201782610e106152a2565b9050806007600301600082825461202e91906152b9565b9091555050600a5460408051918252602082018390527f08eae76bff3f0db9155642195c7acef29cebd0edfd129eec8aa084b21ea008c2910160405180910390a15050565b6002546001600160a01b031633148061209657506001546001600160a01b031633145b6120b25760405162461bcd60e51b81526004016109bb9061512c565b600654610100900460ff161561210a5760405162461bcd60e51b815260206004820181905260248201527f456d657267656e6379206d6f646520697320616c72656164792061637469766560448201526064016109bb565b6006805461ffff191661010117905560405133907f9a6c70a9b6cc4c8f400cf98c010ae7db0524ed985860f1c0b7366d82b200008390600090a2565b6002546001600160a01b031633148061216957506001546001600160a01b031633145b6121855760405162461bcd60e51b81526004016109bb9061512c565b60065460ff166121ce5760405162461bcd60e51b815260206004820152601460248201527314de5cdd195b481a5cc81b9bdd081c185d5cd95960621b60448201526064016109bb565b6006805460ff1916905560405133907f92414512bd79c80103975d8bef2f4e78aa5930c2869b4bd6139d98836ba8d91890600090a2565b6002546001600160a01b031633148061222857506001546001600160a01b031633145b6122445760405162461bcd60e51b81526004016109bb9061512c565b60065460ff16156122675760405162461bcd60e51b81526004016109bb9061507c565b6001600160a01b03821661228d5760405162461bcd60e51b81526004016109bb9061517e565b60008160048111156122a1576122a1614c6f565b036122ee5760405162461bcd60e51b815260206004820152601760248201527f43616e6e6f742061737369676e204e4f4e4520726f6c6500000000000000000060448201526064016109bb565b6001546001600160a01b03838116911614158061231c5750600481600481111561231a5761231a614c6f565b145b6123685760405162461bcd60e51b815260206004820152601a60248201527f4f776e6572206d75737420626520636f6d6d697373696f6e657200000000000060448201526064016109bb565b600481600481111561237c5761237c614c6f565b03612449576001546001600160a01b031633146123eb5760405162461bcd60e51b815260206004820152602760248201527f4f6e6c79206f776e65722063616e2061737369676e20636f6d6d697373696f6e604482015266657220726f6c6560c81b60648201526084016109bb565b6002546001600160a01b03908116908316036124495760405162461bcd60e51b815260206004820152601c60248201527f5573657220697320616c726561647920636f6d6d697373696f6e65720000000060448201526064016109bb565b6001600160a01b03821660009081526020819052604090205460ff166124718183600161479a565b604051806080016040528083600481111561248e5761248e614c6f565b8152602001600115158152602001428152602001336001600160a01b0316815250600080856001600160a01b03166001600160a01b0316815260200190815260200160002060008201518160000160006101000a81548160ff021916908360048111156124fd576124fd614c6f565b02179055506020820151815461ff0019166101009115159190910217815560408201516001820155606090910151600290910180546001600160a01b0319166001600160a01b03909216919091179055600482600481111561256157612561614c6f565b14801561257c57506002546001600160a01b03848116911614155b156125d157600280546001600160a01b038581166001600160a01b0319831681179093556040519116919082907fd5ac32accaab437dd0b2a40e9ec05c4b9b41fb7008b2821e9c6bf8c6c6751eeb90600090a3505b338260048111156125e4576125e4614c6f565b6040516001600160a01b038616907f2459ac88ac07c4020108de12f1f8675bbf7e6928b4cfc156bde4727aacf7897390600090a4505050565b6001600160a01b038116600090815260208190526040808220815160808101909252805483928392839283929190829060ff16600481111561266157612661614c6f565b600481111561267257612672614c6f565b81528154610100900460ff16151560208083019190915260018301546040808401919091526002909301546001600160a01b0316606092830152835190840151928401519390910151909991985091965090945092505050565b6002546001600160a01b031633146126f65760405162461bcd60e51b81526004016109bb906151ac565b60065460ff16156127195760405162461bcd60e51b81526004016109bb9061507c565b600c54610100900460ff16156127415760405162461bcd60e51b81526004016109bb906150b3565b601854610100900460ff16156127a95760405162461bcd60e51b815260206004820152602760248201527f566f74696e67206d75737420626520636c6f736564206265666f72652066696e604482015266616c697a696e6760c81b60648201526084016109bb565b600e546127e85760405162461bcd60e51b815260206004820152600d60248201526c139bc81d9bdd195cc818d85cdd609a1b60448201526064016109bb565b600a5442116128395760405162461bcd60e51b815260206004820152601960248201527f456c656374696f6e20706572696f64206e6f7420656e6465640000000000000060448201526064016109bb565b60006128436148b5565b600c805461ffff1916610100179055600f819055600081815260116020526040908190206003810154915192935083927f874a9bc42f40327d827042a9180876e55468aa20510d4fcfafb215dea34304c59261289f92916152cc565b60405180910390a250565b60608060606000806000861180156128c457506015548611155b6128e05760405162461bcd60e51b81526004016109bb9061504e565b600086815260116020526040808220815160e0810190925280548290829061290790615237565b80601f016020809104026020016040519081016040528092919081815260200182805461293390615237565b80156129805780601f1061295557610100808354040283529160200191612980565b820191906000526020600020905b81548152906001019060200180831161296357829003601f168201915b5050505050815260200160018201805461299990615237565b80601f01602080910402602001604051908101604052809291908181526020018280546129c590615237565b8015612a125780601f106129e757610100808354040283529160200191612a12565b820191906000526020600020905b8154815290600101906020018083116129f557829003601f168201915b50505050508152602001600282018054612a2b90615237565b80601f0160208091040260200160405190810160405280929190818152602001828054612a5790615237565b8015612aa45780601f10612a7957610100808354040283529160200191612aa4565b820191906000526020600020905b815481529060010190602001808311612a8757829003601f168201915b50505050508152602001600382015481526020016004820160009054906101000a900460ff1615151515815260200160058201548152602001600682015481525050905080600001518160200151826040015183606001518460800151955095509550955095505091939590929450565b6002546001600160a01b0316331480612b3857506001546001600160a01b031633145b612b545760405162461bcd60e51b81526004016109bb9061512c565b60065460ff1615612b775760405162461bcd60e51b81526004016109bb9061507c565b6001600160a01b038116612b9d5760405162461bcd60e51b81526004016109bb9061517e565b6001546001600160a01b0390811690821603612bfb5760405162461bcd60e51b815260206004820152601a60248201527f43616e6e6f74207265766f6b65206f776e6572277320726f6c6500000000000060448201526064016109bb565b6002546001600160a01b0390811690821603612c635760405162461bcd60e51b815260206004820152602160248201527f43616e6e6f74207265766f6b6520636f6d6d697373696f6e6572277320726f6c6044820152606560f81b60648201526084016109bb565b6001600160a01b03811660009081526020819052604081205460ff166004811115612c9057612c90614c6f565b03612cdd5760405162461bcd60e51b815260206004820152601a60248201527f5573657220686173206e6f20726f6c6520746f207265766f6b6500000000000060448201526064016109bb565b6001600160a01b03811660009081526020819052604081205460ff1690612d069082908061479a565b6040805160808101825260008082526020808301829052828401829052606083018290526001600160a01b03861682528190529190912081518154829060ff19166001836004811115612d5b57612d5b614c6f565b02179055506020820151815461ff0019166101009115159190910217815560408201516001820155606090910151600290910180546001600160a01b0319166001600160a01b0390921691909117905533816004811115612dbe57612dbe614c6f565b6040516001600160a01b038516907fdc8ee88592cee6126ab42f95859fdf2bbf7b0a614a14d4fb307b601e2b5b0b0590600090a45050565b6002546001600160a01b0316331480612e1957506001546001600160a01b031633145b612e355760405162461bcd60e51b81526004016109bb9061512c565b60065460ff1615612e585760405162461bcd60e51b81526004016109bb9061507c565b6001600160a01b038116612e7e5760405162461bcd60e51b81526004016109bb9061517e565b6001600160a01b038116600090815260208190526040902054610100900460ff1615612ee55760405162461bcd60e51b81526020600482015260166024820152755573657220697320616c72656164792061637469766560501b60448201526064016109bb565b6001600160a01b03811660009081526020819052604081205460ff166004811115612f1257612f12614c6f565b03612f5f5760405162461bcd60e51b815260206004820152601960248201527f5573657220686173206e6f20726f6c652061737369676e65640000000000000060448201526064016109bb565b6001600160a01b03166000908152602081905260409020805461ff001916610100179055565b600954600a54600b54600c54600d54600e54600f546007805460609889986000988998899889988998899889988998919760089792969095929460ff808316956101009093041693929091908a90612fdc90615237565b80601f016020809104026020016040519081016040528092919081815260200182805461300890615237565b80156130555780601f1061302a57610100808354040283529160200191613055565b820191906000526020600020905b81548152906001019060200180831161303857829003601f168201915b5050505050995088805461306890615237565b80601f016020809104026020016040519081016040528092919081815260200182805461309490615237565b80156130e15780601f106130b6576101008083540402835291602001916130e1565b820191906000526020600020905b8154815290600101906020018083116130c457829003601f168201915b50505050509850995099509950995099509950995099509950995090919293949596979899565b6001600160a01b038216600090815260106020526040812060040154821480156112bf575050506001600160a01b0316600090815260106020526040902054610100900460ff1690565b6002546001600160a01b0316331461317c5760405162461bcd60e51b81526004016109bb906151ac565b60065460ff161561319f5760405162461bcd60e51b81526004016109bb9061507c565b806000811180156131b257506015548111155b6131ce5760405162461bcd60e51b81526004016109bb9061504e565b60008181526011602052604090206004015460ff166132295760405162461bcd60e51b815260206004820152601760248201527643616e646964617465206973206e6f742061637469766560481b60448201526064016109bb565b600c54610100900460ff16156132515760405162461bcd60e51b81526004016109bb906150b3565b601854610100900460ff16156132c35760405162461bcd60e51b815260206004820152603160248201527f43616e6e6f7420646561637469766174652063616e64696461746573207768696044820152703632903b37ba34b7339034b99037b832b760791b60648201526084016109bb565b600082815260116020526040808220600401805460ff1916905551339184917ff4353794b596b8811303ba2ec282475a07b7ea9e376320ed37f23a557ff74fb09190a35050565b60065460009060ff161580156133285750600654610100900460ff16155b905090565b60036004813360009081526020819052604090205460ff16600481111561335657613356614c6f565b1480613395575080600481111561336f5761336f614c6f565b3360009081526020819052604090205460ff16600481111561339357613393614c6f565b145b6133e15760405162461bcd60e51b815260206004820152601d60248201527f496e73756666696369656e7420726f6c65207065726d697373696f6e7300000060448201526064016109bb565b60065460ff16156134045760405162461bcd60e51b81526004016109bb9061507c565b600c54610100900460ff161561342c5760405162461bcd60e51b81526004016109bb906150b3565b600085511161347d5760405162461bcd60e51b815260206004820152601e60248201527f43616e646964617465206e616d652063616e6e6f7420626520656d707479000060448201526064016109bb565b60008451116134ce5760405162461bcd60e51b815260206004820152601a60248201527f5061727479206e616d652063616e6e6f7420626520656d70747900000000000060448201526064016109bb565b6032601554106135205760405162461bcd60e51b815260206004820152601a60248201527f4d6178696d756d2063616e64696461746573207265616368656400000000000060448201526064016109bb565b601854610100900460ff161561358b5760405162461bcd60e51b815260206004820152602a60248201527f43616e6e6f74206164642063616e64696461746573207768696c6520766f746960448201526937339034b99037b832b760b11b60648201526084016109bb565b600c5460ff166135ad5760405162461bcd60e51b81526004016109bb906151f5565b601580549060006135bd83615100565b90915550506040805160e08101825286815260208082018790528183018690526000606083018190526001608084015260155460a084018190524260c085015281526011909152919091208151819061361690826153ae565b506020820151600182019061362b90826153ae565b506040820151600282019061364090826153ae565b5060608201516003820155608082015160048201805460ff191691151591909117905560a0820151600582015560c0909101516006909101556015546040513391907fee2b147ff262d63daa02b764754e32ce0ecd6d4ee6fdf23f2075fb7ece8670fa906136b1908990899061546e565b60405180910390a35050505050565b6001600160a01b038216600090815260208190526040812054610100900460ff166136ed575060006112c2565b6001600160a01b03831660009081526020819052604081205460ff16905b83518110156137735783818151811061372657613726615221565b6020026020010151600481111561373f5761373f614c6f565b82600481111561375157613751614c6f565b03613761576001925050506112c2565b8061376b81615100565b91505061370b565b506000949350505050565b6001546001600160a01b031633146137a85760405162461bcd60e51b81526004016109bb9061549c565b60065460ff166137f15760405162461bcd60e51b815260206004820152601460248201527314de5cdd195b481a5cc81b9bdd081c185d5cd95960621b60448201526064016109bb565b600654610100900460ff166138485760405162461bcd60e51b815260206004820152601960248201527f456d657267656e6379206d6f6465206e6f74206163746976650000000000000060448201526064016109bb565b600c805461ffff19908116909155601880549091169055565b6002546001600160a01b0316331461388b5760405162461bcd60e51b81526004016109bb906151ac565b60065460ff16156138ae5760405162461bcd60e51b81526004016109bb9061507c565b600c54610100900460ff16156138d65760405162461bcd60e51b81526004016109bb906150b3565b601854610100900460ff166138fd5760405162461bcd60e51b81526004016109bb90615017565b6018805461ff001916905542600a819055600e546040517f32e2c12037f9600b91a766ce53eab6909f3bdb865851cd9a8c7fafbdf249a9ce9261124a92908252602082015260400190565b60185460ff1661399a5760405162461bcd60e51b815260206004820152601e60248201527f566f74657220726567697374726174696f6e206973206e6f74206f70656e000060448201526064016109bb565b600b544211156139ec5760405162461bcd60e51b815260206004820181905260248201527f526567697374726174696f6e20646561646c696e65206861732070617373656460448201526064016109bb565b60065460ff1615613a0f5760405162461bcd60e51b81526004016109bb9061507c565b600c54610100900460ff1615613a375760405162461bcd60e51b81526004016109bb906150b3565b3360009081526010602052604090205460ff1615613a975760405162461bcd60e51b815260206004820152601a60248201527f596f752061726520616c7265616479207265676973746572656400000000000060448201526064016109bb565b600c5460ff16613ab95760405162461bcd60e51b81526004016109bb906151f5565b6016546040516bffffffffffffffffffffffff193360601b166020820152603481019190915242605482015260009060740160408051601f1981840301815291815281516020928301206000818152601990935291205490915060ff1615613b5d5760405162461bcd60e51b815260206004820152601760248201527612185cda0818dbdb1b1a5cda5bdb8819195d1958dd1959604a1b60448201526064016109bb565b60008181526019602090815260408083208054600160ff199091168117909155815160c0810183528181528084018581528184018681526016805460608501908152426080860190815260a086018b815233808c5260108b52898c2097518854975161ffff1990981690151561ff0019161761010097151597909702969096178755935196860196909655516002850155935160038401555160049092019190915590546013845282852081905584526014909252822080546001600160a01b0319169091179055600d805491613c3383615100565b909155505060165460405142815233907f49a90692135172b11ff45007ef12b97c37df00bc650e48846f88da97b191b2d09060200160405180910390a360168054906000613c8083615100565b919050555050565b6002546001600160a01b0316331480613cab57506001546001600160a01b031633145b613cc75760405162461bcd60e51b81526004016109bb9061512c565b60065460ff1615613d1a5760405162461bcd60e51b815260206004820152601860248201527f53797374656d20697320616c726561647920706175736564000000000000000060448201526064016109bb565b6006805460ff1916600117905560405133907f0e453e53649b13b8c30ef82dd7bce6c745cfcc7a1dc95170b4750764194f19b290600090a2565b600d54600e5460008080808086613d6c576000613d82565b86613d788760646152a2565b613d8291906154e5565b9450613d8c61497b565b601554600f54600c54999a98999798929791965015159450610100900460ff1692509050565b6001546001600160a01b03163314613ddc5760405162461bcd60e51b81526004016109bb9061549c565b6001600160a01b038116613e325760405162461bcd60e51b815260206004820152601960248201527f496e76616c6964206e6577206f776e657220616464726573730000000000000060448201526064016109bb565b6001546001600160a01b0390811690821603613e9f5760405162461bcd60e51b815260206004820152602660248201527f4e6577206f776e6572206973207468652073616d652061732063757272656e746044820152651037bbb732b960d11b60648201526084016109bb565b600180546001600160a01b038381166001600160a01b03198316811784556040805160808101825260048082526020808301889052428385015294909516606082018190526000938452938390529120815181549395929491939092849260ff19909216918490811115613f1557613f15614c6f565b0217905550602082810151825461ff00191661010091151591909102178255604080840151600180850191909155606094850151600290940180546001600160a01b0319166001600160a01b0395861617905581516080810183526003815280840182905242818401528785169581019590955292851660009081529182905290208251815491929091839160ff1990911690836004811115613fba57613fba614c6f565b0217905550602082015181549015156101000261ff00199091161781556040808301516001830155606090920151600291820180546001600160a01b039283166001600160a01b031991821617909155825486831691168117909255915190918316907fd5ac32accaab437dd0b2a40e9ec05c4b9b41fb7008b2821e9c6bf8c6c6751eeb90600090a35050565b6001546001600160a01b031633146140715760405162461bcd60e51b81526004016109bb9061549c565b600654610100900460ff166140c85760405162461bcd60e51b815260206004820152601c60248201527f456d657267656e6379206d6f6465206973206e6f74206163746976650000000060448201526064016109bb565b6006805461ff001916905560405133907f58c23c36c22817a3e5aea11ee4ed5a1815c9770b63d1c162bbfc7a446688189590600090a2565b60078054819061410f90615237565b80601f016020809104026020016040519081016040528092919081815260200182805461413b90615237565b80156141885780601f1061415d57610100808354040283529160200191614188565b820191906000526020600020905b81548152906001019060200180831161416b57829003601f168201915b50505050509080600101805461419d90615237565b80601f01602080910402602001604051908101604052809291908181526020018280546141c990615237565b80156142165780601f106141eb57610100808354040283529160200191614216565b820191906000526020600020905b8154815290600101906020018083116141f957829003601f168201915b5050506002840154600385015460048601546005870154600688015460078901546008909901549798949793965091945060ff8082169461010090920416928a565b6002546001600160a01b031633146142825760405162461bcd60e51b81526004016109bb906151ac565b60065460ff16156142a55760405162461bcd60e51b81526004016109bb9061507c565b600c54610100900460ff16156142cd5760405162461bcd60e51b81526004016109bb906150b3565b600085511161431e5760405162461bcd60e51b815260206004820152601e60248201527f456c656374696f6e207469746c652063616e6e6f7420626520656d707479000060448201526064016109bb565b42831161437d5760405162461bcd60e51b815260206004820152602760248201527f526567697374726174696f6e20646561646c696e65206d75737420626520696e6044820152662066757475726560c81b60648201526084016109bb565b8282116143e25760405162461bcd60e51b815260206004820152602d60248201527f566f74696e67206d75737420737461727420616674657220726567697374726160448201526c74696f6e20646561646c696e6560981b60648201526084016109bb565b81811161443b5760405162461bcd60e51b815260206004820152602160248201527f456e642074696d65206d7573742062652061667465722073746172742074696d6044820152606560f81b60648201526084016109bb565b610e106144488383615119565b10156144965760405162461bcd60e51b815260206004820152601960248201527f566f74696e67206475726174696f6e20746f6f2073686f72740000000000000060448201526064016109bb565b62278d006144a48383615119565b11156144f25760405162461bcd60e51b815260206004820152601860248201527f566f74696e67206475726174696f6e20746f6f206c6f6e67000000000000000060448201526064016109bb565b600c5460ff16156145455760405162461bcd60e51b815260206004820152601d60248201527f416e20656c656374696f6e20697320616c72656164792061637469766500000060448201526064016109bb565b6040805161014081018252868152602081018690529081018390526060810182905260808101849052600160a0820152600060c0820181905260e0820181905261010082018190526101208201526007806145a088826153ae565b50602082015160018201906145b590826153ae565b506040828101516002830155606083015160038301556080830151600483015560a083015160058301805460c086015161ffff1991821693151561ff0019169390931761010093151584021790915560e085015160068501559084015160078401556101209093015160089092019190915560188054909216600117909155517f9fa0f9aa5d20b446eac9258a8202745ba53d250bb62b5f60dd02de31aed75a7c90614668908790859085908890615507565b60405180910390a16040518381527fe0a3eabfba8d6b242de244fdd6f0372ee66d472686b2cfd89420ef24c04622019060200160405180910390a15050505050565b600080600080601554116146d05760405162461bcd60e51b81526004016109bb9061526b565b50600091508190508060015b60155481116147945760008181526011602052604090206004015460ff168015614716575060008181526011602052604090206003015483105b1561473b57600081815260116020526040812060030154919450909250905082614782565b60008181526011602052604090206004015460ff16801561476c575060008181526011602052604090206003015483145b80156147785750600083115b1561478257600191505b8061478c81615100565b9150506146dc565b50909192565b60038360048111156147ae576147ae614c6f565b036147cd57600380549060006147c383615536565b9190505550614825565b60018360048111156147e1576147e1614c6f565b036147f657600480549060006147c383615536565b600283600481111561480a5761480a614c6f565b03614825576005805490600061481f83615536565b91905055505b80156148b057600382600481111561483f5761483f614c6f565b0361485e576003805490600061485483615100565b9190505550505050565b600182600481111561487257614872614c6f565b03614887576004805490600061485483615100565b600282600481111561489b5761489b614c6f565b036148b0576005805490600061485483615100565b505050565b600080601554116148d85760405162461bcd60e51b81526004016109bb9061526b565b6001600081905260116020527f17bc176d2408558f6e4111feebc3cab4e16b63e967be91cde721f4c8a488b5555460025b60155481116149735760008181526011602052604090206004015460ff168015614943575060008181526011602052604090206003015482105b15614961576000818152601160205260409020600301549092509050815b8061496b81615100565b915050614909565b509092915050565b60008060015b60155481116149c45760008181526011602052604090206004015460ff16156149b257816149ae81615100565b9250505b806149bc81615100565b915050614981565b50919050565b6000602082840312156149dc57600080fd5b5035919050565b80356001600160a01b03811681146149fa57600080fd5b919050565b600060208284031215614a1157600080fd5b6112bf826149e3565b8035600581106149fa57600080fd5b60008060408385031215614a3c57600080fd5b614a45836149e3565b9150614a5360208401614a1a565b90509250929050565b600081518084526020808501945080840160005b83811015614a8c57815187529582019590820190600101614a70565b509495945050505050565b6000815180845260005b81811015614abd57602081850181015186830182015201614aa1565b506000602082860101526020601f19601f83011685010191505092915050565b600082825180855260208086019550808260051b84010181860160005b84811015614b2857601f19868403018952614b16838351614a97565b98840198925090830190600101614afa565b5090979650505050505050565b60a081526000614b4860a0830188614a5c565b602083820381850152614b5b8289614add565b91508382036040850152614b6f8288614add565b91508382036060850152614b838287614a5c565b8481036080860152855180825282870193509082019060005b81811015614bba578451151583529383019391830191600101614b9c565b50909a9950505050505050505050565b85815260a060208201526000614be360a0830187614a97565b8281036040840152614bf58187614a97565b606084019590955250509015156080909101529392505050565b60e081526000614c2260e083018a614a97565b8281036020840152614c34818a614a97565b90508281036040840152614c488189614a97565b60608401979097525050921515608084015260a083019190915260c0909101529392505050565b634e487b7160e01b600052602160045260246000fd5b6080810160058610614ca757634e487b7160e01b600052602160045260246000fd5b948152921515602084015260408301919091526001600160a01b031660609091015290565b60a081526000614cdf60a0830188614a97565b8281036020840152614cf18188614a97565b90508281036040840152614bf58187614a97565b6000610140808352614d198184018e614a97565b90508281036020840152614d2d818d614a97565b604084019b909b5250506060810197909752608087019590955292151560a086015290151560c085015260e08401526101008301526101209091015292915050565b60008060408385031215614d8257600080fd5b614d8b836149e3565b946020939093013593505050565b634e487b7160e01b600052604160045260246000fd5b604051601f8201601f1916810167ffffffffffffffff81118282101715614dd857614dd8614d99565b604052919050565b600082601f830112614df157600080fd5b813567ffffffffffffffff811115614e0b57614e0b614d99565b614e1e601f8201601f1916602001614daf565b818152846020838601011115614e3357600080fd5b816020850160208301376000918101602001919091529392505050565b600080600060608486031215614e6557600080fd5b833567ffffffffffffffff80821115614e7d57600080fd5b614e8987838801614de0565b94506020860135915080821115614e9f57600080fd5b614eab87838801614de0565b93506040860135915080821115614ec157600080fd5b50614ece86828701614de0565b9150509250925092565b60008060408385031215614eeb57600080fd5b614ef4836149e3565b915060208084013567ffffffffffffffff80821115614f1257600080fd5b818601915086601f830112614f2657600080fd5b813581811115614f3857614f38614d99565b8060051b9150614f49848301614daf565b8181529183018401918481019089841115614f6357600080fd5b938501935b83851015614f8857614f7985614a1a565b82529385019390850190614f68565b8096505050505050509250929050565b600080600080600060a08688031215614fb057600080fd5b853567ffffffffffffffff80821115614fc857600080fd5b614fd489838a01614de0565b96506020880135915080821115614fea57600080fd5b50614ff788828901614de0565b959895975050505060408401359360608101359360809091013592509050565b6020808252601c908201527f566f74696e67206973206e6f742063757272656e746c79206f70656e00000000604082015260600190565b602080825260149082015273125b9d985b1a590818d85b991a59185d1948125160621b604082015260600190565b6020808252601a908201527f53797374656d2069732063757272656e746c7920706175736564000000000000604082015260600190565b6020808252601b908201527f456c656374696f6e20686173206265656e2066696e616c697a65640000000000604082015260600190565b634e487b7160e01b600052601160045260246000fd5b600060018201615112576151126150ea565b5060010190565b818103818111156112c2576112c26150ea565b60208082526032908201527f4f6e6c7920636f6d6d697373696f6e6572206f72206f776e65722063616e207060408201527132b93337b936903a3434b99030b1ba34b7b760711b606082015260800190565b602080825260149082015273496e76616c69642075736572206164647265737360601b604082015260600190565b60208082526029908201527f4f6e6c7920636f6d6d697373696f6e65722063616e20706572666f726d20746860408201526834b99030b1ba34b7b760b91b606082015260800190565b60208082526012908201527127379030b1ba34bb329032b632b1ba34b7b760711b604082015260600190565b634e487b7160e01b600052603260045260246000fd5b600181811c9082168061524b57607f821691505b6020821081036149c457634e487b7160e01b600052602260045260246000fd5b60208082526017908201527f4e6f2063616e6469646174657320617661696c61626c65000000000000000000604082015260600190565b80820281158282048414176112c2576112c26150ea565b808201808211156112c2576112c26150ea565b6040815260008084546152de81615237565b8060408601526060600180841660008114615300576001811461531a5761534b565b60ff1985168884015283151560051b88018301955061534b565b8960005260208060002060005b868110156153425781548b8201870152908401908201615327565b8a018501975050505b50505050506020929092019290925292915050565b601f8211156148b057600081815260208120601f850160051c810160208610156153875750805b601f850160051c820191505b818110156153a657828155600101615393565b505050505050565b815167ffffffffffffffff8111156153c8576153c8614d99565b6153dc816153d68454615237565b84615360565b602080601f83116001811461541157600084156153f95750858301515b600019600386901b1c1916600185901b1785556153a6565b600085815260208120601f198616915b8281101561544057888601518255948401946001909101908401615421565b508582101561545e5787850151600019600388901b60f8161c191681555b5050505050600190811b01905550565b6040815260006154816040830185614a97565b82810360208401526154938185614a97565b95945050505050565b60208082526029908201527f4f6e6c792073797374656d206f776e65722063616e20706572666f726d20746860408201526834b99030b1ba34b7b760b91b606082015260800190565b60008261550257634e487b7160e01b600052601260045260246000fd5b500490565b60808152600061551a6080830187614a97565b6020830195909552506040810192909252606090910152919050565b600081615545576155456150ea565b50600019019056fea26469706673582212203f62aa80c8b4c2d380ce2f58e65ff37bb910a633347be9a5676d32aef25b8a6e64736f6c63430008130033",
  "immutableReferences": {},
  "source": "// SPDX-License-Identifier: MIT\npragma solidity ^0.8.19;\n\nimport \"./ElectraAccessControl.sol\";\n\ncontract Electra is ElectraAccessControl {\n    \n    // ==================== STRUCTS ====================\n    \n    /**\n     * @dev Voter information structure\n     */\n    struct Voter {\n        bool isRegistered;\n        bool hasVoted;\n        uint256 candidateVoted;\n        uint256 voterID;\n        uint256 registrationTime;\n        bytes32 verificationHash;\n    }\n    \n    /**\n     * @dev Candidate information structure\n     */\n    struct Candidate {\n        string name;\n        string party;\n        string manifesto;\n        uint256 voteCount;\n        bool isActive;\n        uint256 candidateID;\n        uint256 addedAt;\n    }\n    \n    /**\n     * @dev Election information structure\n     */\n    struct Election {\n        string title;\n        string description;\n        uint256 startTime;\n        uint256 endTime;\n        uint256 registrationDeadline;\n        bool isActive;\n        bool isFinalized;\n        uint256 totalVoters;\n        uint256 totalVotes;\n        uint256 winnerID;\n    }\n    \n    /**\n     * @dev Vote record for transparency\n     */\n    struct VoteRecord {\n        address voter;\n        uint256 candidateID;\n        uint256 timestamp;\n        bytes32 transactionHash;\n    }\n    \n    // ==================== STATE VARIABLES ====================\n    \n    // Core election data\n    Election public currentElection;\n    mapping(address => Voter) public voters;\n    mapping(uint256 => Candidate) public candidates;\n    mapping(uint256 => VoteRecord) public voteRecords;\n    \n    // Mappings for efficient access\n    mapping(address => uint256) public voterToID;\n    mapping(uint256 => address) public idToVoter;\n    \n    // Counters\n    uint256 public totalCandidates;\n    uint256 public nextVoterID;\n    uint256 public nextVoteRecord;\n    \n    // Election states\n    bool public registrationOpen;\n    bool public votingOpen;\n    \n    // Security features\n    mapping(bytes32 => bool) public usedHashes;\n    uint256 public constant MAX_CANDIDATES = 50;\n    uint256 public constant MIN_VOTING_DURATION = 1 hours;\n    uint256 public constant MAX_VOTING_DURATION = 30 days;\n    \n    // ==================== EVENTS ====================\n    \n    event ElectionCreated(\n        string title,\n        uint256 startTime,\n        uint256 endTime,\n        uint256 registrationDeadline\n    );\n    \n    event VoterRegistered(\n        address indexed voter,\n        uint256 indexed voterID,\n        uint256 timestamp\n    );\n    \n    // FIXED: Removed 'indexed' from string parameters\n    event CandidateAdded(\n        uint256 indexed candidateID,\n        string name,\n        string party,\n        address indexed addedBy\n    );\n    \n    event VoteCast(\n        address indexed voter,\n        uint256 indexed candidateID,\n        uint256 timestamp,\n        uint256 voteRecordID\n    );\n    \n    event ElectionStarted(uint256 startTime, uint256 endTime);\n    event ElectionEnded(uint256 endTime, uint256 totalVotes);\n    event ElectionFinalized(uint256 indexed winnerID, string winnerName, uint256 totalVotes);\n    \n    event RegistrationOpened(uint256 deadline);\n    event RegistrationClosed(uint256 totalVoters);\n    \n    event CandidateDeactivated(uint256 indexed candidateID, address indexed deactivatedBy);\n    event VotingExtended(uint256 newEndTime, uint256 extensionBy);\n    \n    // ==================== MODIFIERS ====================\n    \n    modifier registrationIsOpen() {\n        require(registrationOpen, \"Voter registration is not open\");\n        require(\n            block.timestamp <= currentElection.registrationDeadline,\n            \"Registration deadline has passed\"\n        );\n        _;\n    }\n    \n    modifier votingIsOpen() {\n        require(votingOpen, \"Voting is not currently open\");\n        require(currentElection.isActive, \"Election is not active\");\n        require(\n            block.timestamp >= currentElection.startTime,\n            \"Voting has not started yet\"\n        );\n        require(\n            block.timestamp <= currentElection.endTime,\n            \"Voting period has ended\"\n        );\n        _;\n    }\n    \n    modifier onlyRegisteredVoter() {\n        require(voters[msg.sender].isRegistered, \"You are not registered to vote\");\n        _;\n    }\n    \n    modifier hasNotVoted() {\n        require(!voters[msg.sender].hasVoted, \"You have already voted\");\n        _;\n    }\n    \n    modifier electionNotFinalized() {\n        require(!currentElection.isFinalized, \"Election has been finalized\");\n        _;\n    }\n    \n    modifier validCandidate(uint256 _candidateID) {\n        require(_candidateID > 0 && _candidateID <= totalCandidates, \"Invalid candidate ID\");\n        require(candidates[_candidateID].isActive, \"Candidate is not active\");\n        _;\n    }\n\n    constructor() ElectraAccessControl() {\n        nextVoterID = 1;\n        nextVoteRecord = 1;\n    }\n    \n    /**\n     * @dev Create a new election\n     * @param _title Election title\n     * @param _description Election description\n     * @param _registrationDeadline Registration deadline timestamp\n     * @param _startTime Voting start time\n     * @param _endTime Voting end time\n     */\n    function createElection(\n        string memory _title,\n        string memory _description,\n        uint256 _registrationDeadline,\n        uint256 _startTime,\n        uint256 _endTime\n    ) external onlyCommissioner whenNotPaused electionNotFinalized {\n        require(bytes(_title).length > 0, \"Election title cannot be empty\");\n        require(_registrationDeadline > block.timestamp, \"Registration deadline must be in future\");\n        require(_startTime > _registrationDeadline, \"Voting must start after registration deadline\");\n        require(_endTime > _startTime, \"End time must be after start time\");\n        require(\n            _endTime - _startTime >= MIN_VOTING_DURATION,\n            \"Voting duration too short\"\n        );\n        require(\n            _endTime - _startTime <= MAX_VOTING_DURATION,\n            \"Voting duration too long\"\n        );\n        require(!currentElection.isActive, \"An election is already active\");\n        \n        currentElection = Election({\n            title: _title,\n            description: _description,\n            startTime: _startTime,\n            endTime: _endTime,\n            registrationDeadline: _registrationDeadline,\n            isActive: true,\n            isFinalized: false,\n            totalVoters: 0,\n            totalVotes: 0,\n            winnerID: 0\n        });\n        \n        registrationOpen = true;\n        votingOpen = false;\n        \n        emit ElectionCreated(_title, _startTime, _endTime, _registrationDeadline);\n        emit RegistrationOpened(_registrationDeadline);\n    }\n    \n    /**\n     * @dev Start the voting period manually (before scheduled time)\n     * FIXED: Allow commissioner to override registration deadline for testing\n     */\n    function startVoting() \n        external \n        onlyCommissioner \n        whenNotPaused \n        electionNotFinalized \n    {\n        require(currentElection.isActive, \"No active election\");\n        require(!votingOpen, \"Voting is already open\");\n        require(totalCandidates >= 2, \"Need at least 2 candidates to start voting\");\n        \n        // FIXED: Allow commissioner to start voting even before registration deadline\n        // This is useful for testing and emergency situations\n        \n        registrationOpen = false;\n        votingOpen = true;\n        \n        // Update start time if starting early\n        if (block.timestamp < currentElection.startTime) {\n            currentElection.startTime = block.timestamp;\n        }\n        \n        emit RegistrationClosed(currentElection.totalVoters);\n        emit ElectionStarted(currentElection.startTime, currentElection.endTime);\n    }\n    \n    /**\n     * @dev End the voting period manually\n     */\n    function endVoting() \n        external \n        onlyCommissioner \n        whenNotPaused \n        electionNotFinalized \n    {\n        require(votingOpen, \"Voting is not currently open\");\n        \n        votingOpen = false;\n        currentElection.endTime = block.timestamp;\n        \n        emit ElectionEnded(currentElection.endTime, currentElection.totalVotes);\n    }\n    \n    /**\n     * @dev Finalize the election and declare winner\n     */\n    function finalizeElection() \n        external \n        onlyCommissioner \n        whenNotPaused \n        electionNotFinalized \n    {\n        require(!votingOpen, \"Voting must be closed before finalizing\");\n        require(currentElection.totalVotes > 0, \"No votes cast\");\n        require(block.timestamp > currentElection.endTime, \"Election period not ended\");\n        \n        // Find the winner\n        uint256 winnerID = _calculateWinner();\n        \n        currentElection.isFinalized = true;\n        currentElection.isActive = false;\n        currentElection.winnerID = winnerID;\n        \n        emit ElectionFinalized(\n            winnerID,\n            candidates[winnerID].name,\n            candidates[winnerID].voteCount\n        );\n    }\n    \n    // ==================== CANDIDATE MANAGEMENT ====================\n    \n    /**\n     * @dev Add a new candidate to the election\n     * @param _name Candidate name\n     * @param _party Political party\n     * @param _manifesto Candidate manifesto\n     */\n    function addCandidate(\n        string memory _name,\n        string memory _party,\n        string memory _manifesto\n    ) external hasAnyRole(Role.ADMIN, Role.COMMISSIONER) whenNotPaused electionNotFinalized {\n        require(bytes(_name).length > 0, \"Candidate name cannot be empty\");\n        require(bytes(_party).length > 0, \"Party name cannot be empty\");\n        require(totalCandidates < MAX_CANDIDATES, \"Maximum candidates reached\");\n        require(!votingOpen, \"Cannot add candidates while voting is open\");\n        require(currentElection.isActive, \"No active election\");\n        \n        totalCandidates++;\n        candidates[totalCandidates] = Candidate({\n            name: _name,\n            party: _party,\n            manifesto: _manifesto,\n            voteCount: 0,\n            isActive: true,\n            candidateID: totalCandidates,\n            addedAt: block.timestamp\n        });\n        \n        emit CandidateAdded(totalCandidates, _name, _party, msg.sender);\n    }\n    \n    /**\n     * @dev Deactivate a candidate\n     * @param _candidateID ID of the candidate to deactivate\n     */\n    function deactivateCandidate(uint256 _candidateID) \n        external \n        onlyCommissioner \n        whenNotPaused \n        validCandidate(_candidateID) \n        electionNotFinalized \n    {\n        require(!votingOpen, \"Cannot deactivate candidates while voting is open\");\n        \n        candidates[_candidateID].isActive = false;\n        emit CandidateDeactivated(_candidateID, msg.sender);\n    }\n    \n    // ==================== VOTER MANAGEMENT ====================\n    \n    /**\n     * @dev Register a new voter\n     * @param _voterAddress Address of the voter to register\n     */\n    function registerVoter(address _voterAddress) \n        external \n        hasAnyRole(Role.ADMIN, Role.COMMISSIONER) \n        registrationIsOpen \n        whenNotPaused \n        electionNotFinalized \n    {\n        require(_voterAddress != address(0), \"Invalid voter address\");\n        require(!voters[_voterAddress].isRegistered, \"Voter already registered\");\n        require(currentElection.isActive, \"No active election\");\n        \n        // Generate verification hash\n        bytes32 verificationHash = keccak256(\n            abi.encodePacked(_voterAddress, nextVoterID, block.timestamp)\n        );\n        \n        require(!usedHashes[verificationHash], \"Hash collision detected\");\n        usedHashes[verificationHash] = true;\n        \n        voters[_voterAddress] = Voter({\n            isRegistered: true,\n            hasVoted: false,\n            candidateVoted: 0,\n            voterID: nextVoterID,\n            registrationTime: block.timestamp,\n            verificationHash: verificationHash\n        });\n        \n        voterToID[_voterAddress] = nextVoterID;\n        idToVoter[nextVoterID] = _voterAddress;\n        \n        currentElection.totalVoters++;\n        \n        emit VoterRegistered(_voterAddress, nextVoterID, block.timestamp);\n        nextVoterID++;\n    }\n    \n    /**\n     * @dev Self-register as a voter (if permitted)\n     */\n    function selfRegister() \n        external \n        registrationIsOpen \n        whenNotPaused \n        electionNotFinalized \n    {\n        require(!voters[msg.sender].isRegistered, \"You are already registered\");\n        require(currentElection.isActive, \"No active election\");\n        \n        // For POC, allow self-registration\n        // In production, this would require additional verification\n        \n        bytes32 verificationHash = keccak256(\n            abi.encodePacked(msg.sender, nextVoterID, block.timestamp)\n        );\n        \n        require(!usedHashes[verificationHash], \"Hash collision detected\");\n        usedHashes[verificationHash] = true;\n        \n        voters[msg.sender] = Voter({\n            isRegistered: true,\n            hasVoted: false,\n            candidateVoted: 0,\n            voterID: nextVoterID,\n            registrationTime: block.timestamp,\n            verificationHash: verificationHash\n        });\n        \n        voterToID[msg.sender] = nextVoterID;\n        idToVoter[nextVoterID] = msg.sender;\n        \n        currentElection.totalVoters++;\n        \n        emit VoterRegistered(msg.sender, nextVoterID, block.timestamp);\n        nextVoterID++;\n    }\n    \n    // ==================== VOTING ====================\n    \n    /**\n     * @dev Cast a vote for a candidate\n     * @param _candidateID ID of the candidate to vote for\n     */\n    function vote(uint256 _candidateID) \n        external \n        votingIsOpen \n        onlyRegisteredVoter \n        hasNotVoted \n        validCandidate(_candidateID) \n        whenNotPaused \n        electionNotFinalized \n        onlyActiveUser\n    {\n        // Record the vote\n        voters[msg.sender].hasVoted = true;\n        voters[msg.sender].candidateVoted = _candidateID;\n        \n        // Update candidate vote count\n        candidates[_candidateID].voteCount++;\n        \n        // Update total votes\n        currentElection.totalVotes++;\n        \n        // Create vote record for transparency\n        voteRecords[nextVoteRecord] = VoteRecord({\n            voter: msg.sender,\n            candidateID: _candidateID,\n            timestamp: block.timestamp,\n            transactionHash: blockhash(block.number - 1)\n        });\n        \n        emit VoteCast(msg.sender, _candidateID, block.timestamp, nextVoteRecord);\n        nextVoteRecord++;\n    }\n    \n    // ==================== EMERGENCY CONTROLS ====================\n    \n    /**\n     * @dev Extend voting period in case of emergency\n     * @param _additionalHours Additional hours to extend voting\n     */\n    function extendVotingPeriod(uint256 _additionalHours) \n        external \n        onlyCommissioner \n        whenNotPaused \n        electionNotFinalized \n    {\n        require(votingOpen, \"Voting is not currently open\");\n        require(_additionalHours > 0 && _additionalHours <= 72, \"Invalid extension period\");\n        \n        uint256 extension = _additionalHours * 1 hours;\n        currentElection.endTime += extension;\n        \n        emit VotingExtended(currentElection.endTime, extension);\n    }\n\n    function emergencyResetElection() \n        external \n        onlyOwner \n        whenPaused \n    {\n        require(emergencyMode, \"Emergency mode not active\");\n        \n        // Reset election state\n        currentElection.isActive = false;\n        currentElection.isFinalized = false;\n        registrationOpen = false;\n        votingOpen = false;\n        \n        // Note: Vote data is preserved for audit purposes\n        // Only the election state is reset\n    }\n    \n    // ==================== VIEW FUNCTIONS ====================\n    \n    function getVoterInfo(address _voterAddress) \n        external \n        view \n        returns (\n            bool isRegistered,\n            bool hasVoted,\n            uint256 candidateVoted,\n            uint256 voterID,\n            uint256 registrationTime,\n            bytes32 verificationHash\n        ) \n    {\n        Voter memory voter = voters[_voterAddress];\n        return (\n            voter.isRegistered,\n            voter.hasVoted,\n            voter.candidateVoted,\n            voter.voterID,\n            voter.registrationTime,\n            voter.verificationHash\n        );\n    }\n    \n    function getCandidateInfo(uint256 _candidateID) \n        external \n        view \n        returns (\n            string memory name,\n            string memory party,\n            string memory manifesto,\n            uint256 voteCount,\n            bool isActive\n        ) \n    {\n        require(_candidateID > 0 && _candidateID <= totalCandidates, \"Invalid candidate ID\");\n        Candidate memory candidate = candidates[_candidateID];\n        return (\n            candidate.name,\n            candidate.party,\n            candidate.manifesto,\n            candidate.voteCount,\n            candidate.isActive\n        );\n    }\n    \n    function getAllCandidates() \n        external \n        view \n        returns (\n            uint256[] memory candidateIDs,\n            string[] memory names,\n            string[] memory parties,\n            uint256[] memory voteCounts,\n            bool[] memory isActiveArray\n        ) \n    {\n        candidateIDs = new uint256[](totalCandidates);\n        names = new string[](totalCandidates);\n        parties = new string[](totalCandidates);\n        voteCounts = new uint256[](totalCandidates);\n        isActiveArray = new bool[](totalCandidates);\n        \n        for (uint256 i = 1; i <= totalCandidates; i++) {\n            candidateIDs[i-1] = i;\n            names[i-1] = candidates[i].name;\n            parties[i-1] = candidates[i].party;\n            voteCounts[i-1] = candidates[i].voteCount;\n            isActiveArray[i-1] = candidates[i].isActive;\n        }\n    }\n    \n    function getElectionInfo() \n        external \n        view \n        returns (\n            string memory title,\n            string memory description,\n            uint256 startTime,\n            uint256 endTime,\n            uint256 registrationDeadline,\n            bool isActive,\n            bool isFinalized,\n            uint256 totalVoters,\n            uint256 totalVotes,\n            uint256 winnerID\n        ) \n    {\n        return (\n            currentElection.title,\n            currentElection.description,\n            currentElection.startTime,\n            currentElection.endTime,\n            currentElection.registrationDeadline,\n            currentElection.isActive,\n            currentElection.isFinalized,\n            currentElection.totalVoters,\n            currentElection.totalVotes,\n            currentElection.winnerID\n        );\n    }\n    \n    function getElectionStatus() \n        external \n        view \n        returns (\n            bool registrationActive,\n            bool votingActive,\n            uint256 timeUntilStart,\n            uint256 timeUntilEnd,\n            uint256 timeUntilRegistrationDeadline\n        ) \n    {\n        registrationActive = registrationOpen && \n                           block.timestamp <= currentElection.registrationDeadline;\n        \n        votingActive = votingOpen && \n                      block.timestamp >= currentElection.startTime && \n                      block.timestamp <= currentElection.endTime;\n        \n        timeUntilStart = currentElection.startTime > block.timestamp ? \n                        currentElection.startTime - block.timestamp : 0;\n        \n        timeUntilEnd = currentElection.endTime > block.timestamp ? \n                      currentElection.endTime - block.timestamp : 0;\n        \n        timeUntilRegistrationDeadline = currentElection.registrationDeadline > block.timestamp ? \n                                       currentElection.registrationDeadline - block.timestamp : 0;\n    }\n    \n    function getCurrentWinner() \n        external \n        view \n        returns (\n            uint256 winnerID,\n            string memory winnerName,\n            string memory winnerParty,\n            uint256 maxVotes,\n            bool isTie\n        ) \n    {\n        require(totalCandidates > 0, \"No candidates available\");\n        \n        (winnerID, maxVotes, isTie) = _calculateWinnerWithTieCheck();\n        \n        if (winnerID > 0) {\n            winnerName = candidates[winnerID].name;\n            winnerParty = candidates[winnerID].party;\n        }\n    }\n    \n    function getVoteRecord(uint256 _recordID) \n        external \n        view \n        returns (\n            address voter,\n            uint256 candidateID,\n            uint256 timestamp,\n            bytes32 transactionHash\n        ) \n    {\n        require(_recordID > 0 && _recordID < nextVoteRecord, \"Invalid record ID\");\n        VoteRecord memory record = voteRecords[_recordID];\n        return (record.voter, record.candidateID, record.timestamp, record.transactionHash);\n    }\n    \n    /**\n     * @dev Verify a vote using verification hash\n     * @param _voter Voter address\n     * @param _hash Verification hash\n     * @return Whether the vote is valid\n     */\n    function verifyVote(address _voter, bytes32 _hash) \n        external \n        view \n        returns (bool) \n    {\n        return voters[_voter].verificationHash == _hash && voters[_voter].hasVoted;\n    }\n    \n    function getElectionStatistics() \n        external \n        view \n        returns (\n            uint256 totalRegisteredVoters,\n            uint256 totalVotesCast,\n            uint256 voterTurnoutPercentage,\n            uint256 activeCandidates,\n            uint256 totalCandidatesCount,\n            bool hasWinner,\n            bool electionComplete\n        ) \n    {\n        totalRegisteredVoters = currentElection.totalVoters;\n        totalVotesCast = currentElection.totalVotes;\n        \n        voterTurnoutPercentage = totalRegisteredVoters > 0 ? \n                               (totalVotesCast * 100) / totalRegisteredVoters : 0;\n        \n        activeCandidates = _countActiveCandidates();\n        totalCandidatesCount = totalCandidates;\n        \n        hasWinner = currentElection.winnerID > 0;\n        electionComplete = currentElection.isFinalized;\n    }\n    \n    // ==================== INTERNAL FUNCTIONS ====================\n    \n    /**\n     * @dev Calculate the winner of the election\n     * @return Winner candidate ID\n     */\n    function _calculateWinner() internal view returns (uint256) {\n        require(totalCandidates > 0, \"No candidates available\");\n        \n        uint256 winnerID = 1;\n        uint256 maxVotes = candidates[1].voteCount;\n        \n        for (uint256 i = 2; i <= totalCandidates; i++) {\n            if (candidates[i].isActive && candidates[i].voteCount > maxVotes) {\n                maxVotes = candidates[i].voteCount;\n                winnerID = i;\n            }\n        }\n        \n        return winnerID;\n    }\n\n    function _calculateWinnerWithTieCheck() \n        internal \n        view \n        returns (uint256 winnerID, uint256 maxVotes, bool isTie) \n    {\n        require(totalCandidates > 0, \"No candidates available\");\n        \n        winnerID = 0;\n        maxVotes = 0;\n        isTie = false;\n        \n        // Find maximum votes\n        for (uint256 i = 1; i <= totalCandidates; i++) {\n            if (candidates[i].isActive && candidates[i].voteCount > maxVotes) {\n                maxVotes = candidates[i].voteCount;\n                winnerID = i;\n                isTie = false;\n            } else if (candidates[i].isActive && candidates[i].voteCount == maxVotes && maxVotes > 0) {\n                isTie = true;\n            }\n        }\n    }\n    \n    /**\n     * @dev Count active candidates\n     * @return Number of active candidates\n     */\n    function _countActiveCandidates() internal view returns (uint256) {\n        uint256 count = 0;\n        for (uint256 i = 1; i <= totalCandidates; i++) {\n            if (candidates[i].isActive) {\n                count++;\n            }\n        }\n        return count;\n    }\n}\n",
  "sourcePath": "/home/godsfavour/ALU/electra/contracts/Electra.sol",
  "compiler": {
    "name": "solc",
    "version": "0.8.19+commit.7dd6d404.Emscripten.clang"
  },
  "schemaVersion": "3.4.16",
  "updatedAt": "2025-07-22T12:34:36.289Z",
  "devdoc": {
    "kind": "dev",
    "methods": {
      "activateEmergency()": {
        "details": "Activate emergency mode"
      },
      "addCandidate(string,string,string)": {
        "details": "Add a new candidate to the election",
        "params": {
          "_manifesto": "Candidate manifesto",
          "_name": "Candidate name",
          "_party": "Political party"
        }
      },
      "assignRole(address,uint8)": {
        "details": "Assign a role to a user",
        "params": {
          "_role": "Role to assign",
          "_user": "Address of the user"
        }
      },
      "checkRole(address,uint8)": {
        "details": "Check if a user has a specific role",
        "params": {
          "_role": "Role to check",
          "_user": "Address of the user"
        },
        "returns": {
          "_0": "Whether the user has the role"
        }
      },
      "createElection(string,string,uint256,uint256,uint256)": {
        "details": "Create a new election",
        "params": {
          "_description": "Election description",
          "_endTime": "Voting end time",
          "_registrationDeadline": "Registration deadline timestamp",
          "_startTime": "Voting start time",
          "_title": "Election title"
        }
      },
      "deactivateCandidate(uint256)": {
        "details": "Deactivate a candidate",
        "params": {
          "_candidateID": "ID of the candidate to deactivate"
        }
      },
      "deactivateEmergency()": {
        "details": "Deactivate emergency mode"
      },
      "deactivateUser(address)": {
        "details": "Deactivate a user without changing their role",
        "params": {
          "_user": "Address of the user"
        }
      },
      "endVoting()": {
        "details": "End the voting period manually"
      },
      "extendVotingPeriod(uint256)": {
        "details": "Extend voting period in case of emergency",
        "params": {
          "_additionalHours": "Additional hours to extend voting"
        }
      },
      "finalizeElection()": {
        "details": "Finalize the election and declare winner"
      },
      "isSystemOperational()": {
        "details": "Check if system is operational",
        "returns": {
          "_0": "Whether system is operational"
        }
      },
      "onlyAnyRole(address,uint8[])": {
        "details": "Check if a user has any of the specified roles",
        "params": {
          "_roles": "Array of roles to check",
          "_user": "Address of the user"
        },
        "returns": {
          "_0": "Whether the user has any of the roles"
        }
      },
      "pauseSystem()": {
        "details": "Pause the entire system"
      },
      "reactivateUser(address)": {
        "details": "Reactivate a user",
        "params": {
          "_user": "Address of the user"
        }
      },
      "registerVoter(address)": {
        "details": "Register a new voter",
        "params": {
          "_voterAddress": "Address of the voter to register"
        }
      },
      "revokeRole(address)": {
        "details": "Revoke a user's role",
        "params": {
          "_user": "Address of the user"
        }
      },
      "selfRegister()": {
        "details": "Self-register as a voter (if permitted)"
      },
      "startVoting()": {
        "details": "Start the voting period manually (before scheduled time) FIXED: Allow commissioner to override registration deadline for testing"
      },
      "transferOwnership(address)": {
        "details": "Transfer system ownership (emergency only)",
        "params": {
          "_newOwner": "Address of the new owner"
        }
      },
      "unpauseSystem()": {
        "details": "Unpause the system"
      },
      "verifyVote(address,bytes32)": {
        "details": "Verify a vote using verification hash",
        "params": {
          "_hash": "Verification hash",
          "_voter": "Voter address"
        },
        "returns": {
          "_0": "Whether the vote is valid"
        }
      },
      "vote(uint256)": {
        "details": "Cast a vote for a candidate",
        "params": {
          "_candidateID": "ID of the candidate to vote for"
        }
      }
    },
    "version": 1
  },
  "userdoc": {
    "kind": "user",
    "methods": {},
    "version": 1
  }
}