{
  "contractName": "Electra",
  "abi": [
    {
      "inputs": [],
      "stateMutability": "nonpayable",
      "type": "constructor"
    },
    {
      "anonymous": false,
      "inputs": [
        {
          "indexed": true,
          "internalType": "uint32",
          "name": "candidateID",
          "type": "uint32"
        },
        {
          "indexed": false,
          "internalType": "string",
          "name": "name",
          "type": "string"
        },
        {
          "indexed": false,
          "internalType": "string",
          "name": "party",
          "type": "string"
        },
        {
          "indexed": true,
          "internalType": "address",
          "name": "addedBy",
          "type": "address"
        }
      ],
      "name": "CandidateAdded",
      "type": "event"
    },
    {
      "anonymous": false,
      "inputs": [
        {
          "indexed": true,
          "internalType": "address",
          "name": "oldCommissioner",
          "type": "address"
        },
        {
          "indexed": true,
          "internalType": "address",
          "name": "newCommissioner",
          "type": "address"
        }
      ],
      "name": "CommissionerChanged",
      "type": "event"
    },
    {
      "anonymous": false,
      "inputs": [
        {
          "indexed": false,
          "internalType": "string",
          "name": "title",
          "type": "string"
        },
        {
          "indexed": false,
          "internalType": "uint32",
          "name": "startTime",
          "type": "uint32"
        },
        {
          "indexed": false,
          "internalType": "uint32",
          "name": "endTime",
          "type": "uint32"
        },
        {
          "indexed": false,
          "internalType": "uint32",
          "name": "registrationDeadline",
          "type": "uint32"
        }
      ],
      "name": "ElectionCreated",
      "type": "event"
    },
    {
      "anonymous": false,
      "inputs": [
        {
          "indexed": true,
          "internalType": "uint32",
          "name": "winnerID",
          "type": "uint32"
        },
        {
          "indexed": false,
          "internalType": "string",
          "name": "winnerName",
          "type": "string"
        },
        {
          "indexed": false,
          "internalType": "uint32",
          "name": "totalVotes",
          "type": "uint32"
        }
      ],
      "name": "ElectionFinalized",
      "type": "event"
    },
    {
      "anonymous": false,
      "inputs": [
        {
          "indexed": true,
          "internalType": "address",
          "name": "user",
          "type": "address"
        },
        {
          "indexed": true,
          "internalType": "enum Electra.Role",
          "name": "role",
          "type": "uint8"
        },
        {
          "indexed": true,
          "internalType": "address",
          "name": "assignedBy",
          "type": "address"
        }
      ],
      "name": "RoleAssigned",
      "type": "event"
    },
    {
      "anonymous": false,
      "inputs": [
        {
          "indexed": true,
          "internalType": "address",
          "name": "user",
          "type": "address"
        },
        {
          "indexed": true,
          "internalType": "enum Electra.Role",
          "name": "oldRole",
          "type": "uint8"
        },
        {
          "indexed": true,
          "internalType": "address",
          "name": "revokedBy",
          "type": "address"
        }
      ],
      "name": "RoleRevoked",
      "type": "event"
    },
    {
      "anonymous": false,
      "inputs": [
        {
          "indexed": true,
          "internalType": "address",
          "name": "pausedBy",
          "type": "address"
        }
      ],
      "name": "SystemPaused",
      "type": "event"
    },
    {
      "anonymous": false,
      "inputs": [
        {
          "indexed": true,
          "internalType": "address",
          "name": "unpausedBy",
          "type": "address"
        }
      ],
      "name": "SystemUnpaused",
      "type": "event"
    },
    {
      "anonymous": false,
      "inputs": [
        {
          "indexed": true,
          "internalType": "address",
          "name": "voter",
          "type": "address"
        },
        {
          "indexed": true,
          "internalType": "uint32",
          "name": "candidateID",
          "type": "uint32"
        },
        {
          "indexed": false,
          "internalType": "uint32",
          "name": "timestamp",
          "type": "uint32"
        }
      ],
      "name": "VoteCast",
      "type": "event"
    },
    {
      "anonymous": false,
      "inputs": [
        {
          "indexed": true,
          "internalType": "address",
          "name": "voter",
          "type": "address"
        },
        {
          "indexed": true,
          "internalType": "uint32",
          "name": "voterID",
          "type": "uint32"
        },
        {
          "indexed": false,
          "internalType": "uint32",
          "name": "timestamp",
          "type": "uint32"
        }
      ],
      "name": "VoterRegistered",
      "type": "event"
    },
    {
      "inputs": [],
      "name": "MAX_CANDIDATES",
      "outputs": [
        {
          "internalType": "uint32",
          "name": "",
          "type": "uint32"
        }
      ],
      "stateMutability": "view",
      "type": "function",
      "constant": true
    },
    {
      "inputs": [],
      "name": "MAX_VOTING_DURATION",
      "outputs": [
        {
          "internalType": "uint32",
          "name": "",
          "type": "uint32"
        }
      ],
      "stateMutability": "view",
      "type": "function",
      "constant": true
    },
    {
      "inputs": [],
      "name": "MIN_VOTING_DURATION",
      "outputs": [
        {
          "internalType": "uint32",
          "name": "",
          "type": "uint32"
        }
      ],
      "stateMutability": "view",
      "type": "function",
      "constant": true
    },
    {
      "inputs": [
        {
          "internalType": "uint32",
          "name": "",
          "type": "uint32"
        }
      ],
      "name": "candidates",
      "outputs": [
        {
          "internalType": "string",
          "name": "name",
          "type": "string"
        },
        {
          "internalType": "string",
          "name": "party",
          "type": "string"
        },
        {
          "internalType": "uint32",
          "name": "voteCount",
          "type": "uint32"
        },
        {
          "internalType": "bool",
          "name": "isActive",
          "type": "bool"
        },
        {
          "internalType": "uint32",
          "name": "addedAt",
          "type": "uint32"
        }
      ],
      "stateMutability": "view",
      "type": "function",
      "constant": true
    },
    {
      "inputs": [],
      "name": "currentCommissioner",
      "outputs": [
        {
          "internalType": "address",
          "name": "",
          "type": "address"
        }
      ],
      "stateMutability": "view",
      "type": "function",
      "constant": true
    },
    {
      "inputs": [],
      "name": "currentElection",
      "outputs": [
        {
          "internalType": "string",
          "name": "title",
          "type": "string"
        },
        {
          "internalType": "uint32",
          "name": "startTime",
          "type": "uint32"
        },
        {
          "internalType": "uint32",
          "name": "endTime",
          "type": "uint32"
        },
        {
          "internalType": "uint32",
          "name": "registrationDeadline",
          "type": "uint32"
        },
        {
          "internalType": "bool",
          "name": "isActive",
          "type": "bool"
        },
        {
          "internalType": "bool",
          "name": "isFinalized",
          "type": "bool"
        },
        {
          "internalType": "uint32",
          "name": "totalVoters",
          "type": "uint32"
        },
        {
          "internalType": "uint32",
          "name": "totalVotes",
          "type": "uint32"
        },
        {
          "internalType": "uint32",
          "name": "winnerID",
          "type": "uint32"
        }
      ],
      "stateMutability": "view",
      "type": "function",
      "constant": true
    },
    {
      "inputs": [],
      "name": "emergencyMode",
      "outputs": [
        {
          "internalType": "bool",
          "name": "",
          "type": "bool"
        }
      ],
      "stateMutability": "view",
      "type": "function",
      "constant": true
    },
    {
      "inputs": [
        {
          "internalType": "uint32",
          "name": "",
          "type": "uint32"
        }
      ],
      "name": "idToVoter",
      "outputs": [
        {
          "internalType": "address",
          "name": "",
          "type": "address"
        }
      ],
      "stateMutability": "view",
      "type": "function",
      "constant": true
    },
    {
      "inputs": [],
      "name": "nextVoterID",
      "outputs": [
        {
          "internalType": "uint32",
          "name": "",
          "type": "uint32"
        }
      ],
      "stateMutability": "view",
      "type": "function",
      "constant": true
    },
    {
      "inputs": [],
      "name": "registrationOpen",
      "outputs": [
        {
          "internalType": "bool",
          "name": "",
          "type": "bool"
        }
      ],
      "stateMutability": "view",
      "type": "function",
      "constant": true
    },
    {
      "inputs": [],
      "name": "systemOwner",
      "outputs": [
        {
          "internalType": "address",
          "name": "",
          "type": "address"
        }
      ],
      "stateMutability": "view",
      "type": "function",
      "constant": true
    },
    {
      "inputs": [],
      "name": "systemPaused",
      "outputs": [
        {
          "internalType": "bool",
          "name": "",
          "type": "bool"
        }
      ],
      "stateMutability": "view",
      "type": "function",
      "constant": true
    },
    {
      "inputs": [],
      "name": "totalCandidates",
      "outputs": [
        {
          "internalType": "uint32",
          "name": "",
          "type": "uint32"
        }
      ],
      "stateMutability": "view",
      "type": "function",
      "constant": true
    },
    {
      "inputs": [
        {
          "internalType": "address",
          "name": "",
          "type": "address"
        }
      ],
      "name": "users",
      "outputs": [
        {
          "internalType": "enum Electra.Role",
          "name": "role",
          "type": "uint8"
        },
        {
          "internalType": "bool",
          "name": "isActive",
          "type": "bool"
        },
        {
          "internalType": "uint32",
          "name": "assignedAt",
          "type": "uint32"
        },
        {
          "internalType": "address",
          "name": "assignedBy",
          "type": "address"
        }
      ],
      "stateMutability": "view",
      "type": "function",
      "constant": true
    },
    {
      "inputs": [
        {
          "internalType": "address",
          "name": "",
          "type": "address"
        }
      ],
      "name": "voterToID",
      "outputs": [
        {
          "internalType": "uint32",
          "name": "",
          "type": "uint32"
        }
      ],
      "stateMutability": "view",
      "type": "function",
      "constant": true
    },
    {
      "inputs": [
        {
          "internalType": "address",
          "name": "",
          "type": "address"
        }
      ],
      "name": "voters",
      "outputs": [
        {
          "internalType": "bool",
          "name": "isRegistered",
          "type": "bool"
        },
        {
          "internalType": "bool",
          "name": "hasVoted",
          "type": "bool"
        },
        {
          "internalType": "uint32",
          "name": "voterID",
          "type": "uint32"
        },
        {
          "internalType": "uint32",
          "name": "candidateVoted",
          "type": "uint32"
        },
        {
          "internalType": "uint32",
          "name": "registrationTime",
          "type": "uint32"
        }
      ],
      "stateMutability": "view",
      "type": "function",
      "constant": true
    },
    {
      "inputs": [],
      "name": "votingOpen",
      "outputs": [
        {
          "internalType": "bool",
          "name": "",
          "type": "bool"
        }
      ],
      "stateMutability": "view",
      "type": "function",
      "constant": true
    },
    {
      "inputs": [],
      "name": "setOwnerAsAdmin",
      "outputs": [],
      "stateMutability": "nonpayable",
      "type": "function"
    },
    {
      "inputs": [
        {
          "internalType": "address",
          "name": "_user",
          "type": "address"
        },
        {
          "internalType": "enum Electra.Role",
          "name": "_role",
          "type": "uint8"
        }
      ],
      "name": "assignRole",
      "outputs": [],
      "stateMutability": "nonpayable",
      "type": "function"
    },
    {
      "inputs": [
        {
          "internalType": "address",
          "name": "_user",
          "type": "address"
        }
      ],
      "name": "revokeRole",
      "outputs": [],
      "stateMutability": "nonpayable",
      "type": "function"
    },
    {
      "inputs": [],
      "name": "pauseSystem",
      "outputs": [],
      "stateMutability": "nonpayable",
      "type": "function"
    },
    {
      "inputs": [],
      "name": "activateEmergency",
      "outputs": [],
      "stateMutability": "nonpayable",
      "type": "function"
    },
    {
      "inputs": [],
      "name": "deactivateEmergency",
      "outputs": [],
      "stateMutability": "nonpayable",
      "type": "function"
    },
    {
      "inputs": [
        {
          "internalType": "string",
          "name": "_title",
          "type": "string"
        },
        {
          "internalType": "uint32",
          "name": "_registrationDeadline",
          "type": "uint32"
        },
        {
          "internalType": "uint32",
          "name": "_startTime",
          "type": "uint32"
        },
        {
          "internalType": "uint32",
          "name": "_endTime",
          "type": "uint32"
        }
      ],
      "name": "createElection",
      "outputs": [],
      "stateMutability": "nonpayable",
      "type": "function"
    },
    {
      "inputs": [],
      "name": "startVoting",
      "outputs": [],
      "stateMutability": "nonpayable",
      "type": "function"
    },
    {
      "inputs": [],
      "name": "endVoting",
      "outputs": [],
      "stateMutability": "nonpayable",
      "type": "function"
    },
    {
      "inputs": [],
      "name": "finalizeElection",
      "outputs": [],
      "stateMutability": "nonpayable",
      "type": "function"
    },
    {
      "inputs": [
        {
          "internalType": "string",
          "name": "_name",
          "type": "string"
        },
        {
          "internalType": "string",
          "name": "_party",
          "type": "string"
        }
      ],
      "name": "addCandidate",
      "outputs": [],
      "stateMutability": "nonpayable",
      "type": "function"
    },
    {
      "inputs": [
        {
          "internalType": "uint32",
          "name": "_candidateID",
          "type": "uint32"
        }
      ],
      "name": "deactivateCandidate",
      "outputs": [],
      "stateMutability": "nonpayable",
      "type": "function"
    },
    {
      "inputs": [
        {
          "internalType": "address",
          "name": "_voterAddress",
          "type": "address"
        }
      ],
      "name": "registerVoter",
      "outputs": [],
      "stateMutability": "nonpayable",
      "type": "function"
    },
    {
      "inputs": [],
      "name": "selfRegister",
      "outputs": [],
      "stateMutability": "nonpayable",
      "type": "function"
    },
    {
      "inputs": [
        {
          "internalType": "uint32",
          "name": "_candidateID",
          "type": "uint32"
        }
      ],
      "name": "vote",
      "outputs": [],
      "stateMutability": "nonpayable",
      "type": "function"
    },
    {
      "inputs": [
        {
          "internalType": "address",
          "name": "_user",
          "type": "address"
        },
        {
          "internalType": "enum Electra.Role",
          "name": "_role",
          "type": "uint8"
        }
      ],
      "name": "checkRole",
      "outputs": [
        {
          "internalType": "bool",
          "name": "",
          "type": "bool"
        }
      ],
      "stateMutability": "view",
      "type": "function",
      "constant": true
    },
    {
      "inputs": [
        {
          "internalType": "address",
          "name": "_voterAddress",
          "type": "address"
        }
      ],
      "name": "getVoterInfo",
      "outputs": [
        {
          "internalType": "bool",
          "name": "isRegistered",
          "type": "bool"
        },
        {
          "internalType": "bool",
          "name": "hasVoted",
          "type": "bool"
        },
        {
          "internalType": "uint32",
          "name": "candidateVoted",
          "type": "uint32"
        },
        {
          "internalType": "uint32",
          "name": "voterID",
          "type": "uint32"
        },
        {
          "internalType": "uint32",
          "name": "registrationTime",
          "type": "uint32"
        }
      ],
      "stateMutability": "view",
      "type": "function",
      "constant": true
    },
    {
      "inputs": [
        {
          "internalType": "uint32",
          "name": "_candidateID",
          "type": "uint32"
        }
      ],
      "name": "getCandidateInfo",
      "outputs": [
        {
          "internalType": "string",
          "name": "name",
          "type": "string"
        },
        {
          "internalType": "string",
          "name": "party",
          "type": "string"
        },
        {
          "internalType": "uint32",
          "name": "voteCount",
          "type": "uint32"
        },
        {
          "internalType": "bool",
          "name": "isActive",
          "type": "bool"
        }
      ],
      "stateMutability": "view",
      "type": "function",
      "constant": true
    },
    {
      "inputs": [],
      "name": "getElectionInfo",
      "outputs": [
        {
          "internalType": "string",
          "name": "title",
          "type": "string"
        },
        {
          "internalType": "uint32",
          "name": "startTime",
          "type": "uint32"
        },
        {
          "internalType": "uint32",
          "name": "endTime",
          "type": "uint32"
        },
        {
          "internalType": "uint32",
          "name": "registrationDeadline",
          "type": "uint32"
        },
        {
          "internalType": "bool",
          "name": "isActive",
          "type": "bool"
        },
        {
          "internalType": "bool",
          "name": "isFinalized",
          "type": "bool"
        },
        {
          "internalType": "uint32",
          "name": "totalVotersCount",
          "type": "uint32"
        },
        {
          "internalType": "uint32",
          "name": "totalVotes",
          "type": "uint32"
        },
        {
          "internalType": "uint32",
          "name": "winnerID",
          "type": "uint32"
        }
      ],
      "stateMutability": "view",
      "type": "function",
      "constant": true
    },
    {
      "inputs": [],
      "name": "getElectionStatus",
      "outputs": [
        {
          "internalType": "bool",
          "name": "registrationActive",
          "type": "bool"
        },
        {
          "internalType": "bool",
          "name": "votingActive",
          "type": "bool"
        },
        {
          "internalType": "uint32",
          "name": "timeUntilStart",
          "type": "uint32"
        },
        {
          "internalType": "uint32",
          "name": "timeUntilEnd",
          "type": "uint32"
        }
      ],
      "stateMutability": "view",
      "type": "function",
      "constant": true
    },
    {
      "inputs": [],
      "name": "getCurrentWinner",
      "outputs": [
        {
          "internalType": "uint32",
          "name": "winnerID",
          "type": "uint32"
        },
        {
          "internalType": "string",
          "name": "winnerName",
          "type": "string"
        },
        {
          "internalType": "string",
          "name": "winnerParty",
          "type": "string"
        },
        {
          "internalType": "uint32",
          "name": "maxVotes",
          "type": "uint32"
        }
      ],
      "stateMutability": "view",
      "type": "function",
      "constant": true
    }
  ],
  "bytecode": "0x60a06040526008805463ffffffff60201b19166401000000001790553480156200002857600080fd5b50336080818152600180546001600160a01b031916831781556040805192830181526003835260208084018390524263ffffffff168483015260608401859052600094855284905290922081518154929391929091839160ff1916908360048111156200009957620000996200021e565b02179055506020820151815460408401516060909401516001600160a01b0316660100000000000002600160301b600160d01b031963ffffffff909516620100000265ffffffff000019931515610100029390931665ffffffffff0019909216919091179190911792909216919091179055336003604051339060008051602062003d8d83398151915290600090a4604080516080810182526004808252600160208084018290524263ffffffff168486015233606085018190526000908152908190529390932082518154939491939092849260ff19909216919084908111156200018957620001896200021e565b02179055506020820151815460408401516060909401516001600160a01b0316660100000000000002600160301b600160d01b031963ffffffff909516620100000265ffffffff000019931515610100029390931665ffffffffff0019909216919091179190911792909216919091179055336004604051339060008051602062003d8d83398151915290600090a462000234565b634e487b7160e01b600052602160045260246000fd5b608051613ae2620002ab60003960008181610331015281816109dd0152818161115b015281816114fa0152818161155a015281816115d9015281816116a8015281816116d70152818161192301528181611a2b01528181611ee301528181611f7301528181612a00015261309b0152613ae26000f3fe608060405234801561001057600080fd5b50600436106102325760003560e01c806386852dca11610130578063d86a28bb116100b8578063eefe85e41161007c578063eefe85e41461064a578063f078609614610654578063fa6869481461065c578063fcae83a714610664578063ff9b04351461066c57600080fd5b8063d86a28bb146105fa578063dc1d4fb714610602578063dcfc1faf1461060a578063e8dac59f1461061d578063eaf1061c1461064157600080fd5b8063a3ec138d116100ff578063a3ec138d1461051b578063a87430ba1461056b578063a95824b4146105c7578063c3403ddf146105db578063c9d5d5e9146105e357600080fd5b806386852dca146104165780639094c763146104335780639d2f83f0146104465780639ed1f2551461045a57600080fd5b80633866965c116101be5780634f818d0c116101825780634f818d0c146103b1578063630a195b146103d45780636cc6837e146103e7578063736f88cd146103ef57806380e52e3f1461040357600080fd5b80633866965c1461036b57806338db6dd31461037b578063450695921461038e578063457e8b97146103a1578063480744e0146103a957600080fd5b806326541b561161020557806326541b56146102b357806327de4de0146102c657806327eae9e9146102d9578063329bfc3314610314578063337792541461032c57600080fd5b80630905f56014610237578063122902a6146102605780631ec6b60a1461029657806323a3ad72146102a0575b600080fd5b60015461024b90600160a81b900460ff1681565b60405190151581526020015b60405180910390f35b610268610695565b604080519415158552921515602085015263ffffffff91821692840192909252166060820152608001610257565b61029e610776565b005b61024b6102ae366004613326565b610932565b61029e6102c13660046133aa565b6109a4565b61029e6102d436600461342a565b610db8565b6102ff6102e7366004613445565b60066020526000908152604090205463ffffffff1681565b60405163ffffffff9091168152602001610257565b61031c610f59565b60405161025794939291906134a6565b6103537f000000000000000000000000000000000000000000000000000000000000000081565b6040516001600160a01b039091168152602001610257565b6008546102ff9063ffffffff1681565b61029e610389366004613445565b611122565b600154610353906001600160a01b031681565b61029e6114db565b61029e61154f565b6103c46103bf36600461342a565b611720565b60405161025794939291906134ed565b61029e6103e2366004613326565b611904565b61029e611cc8565b60085461024b90600160401b900460ff1681565b61029e610411366004613445565b611ec4565b61041e6121c5565b60405161025799989796959493929190613531565b61029e61044136600461342a565b6122dc565b60015461024b90600160a01b900460ff1681565b6104e6610468366004613445565b6001600160a01b038116600090815260046020908152604091829020825160a081018452905460ff80821615158084526101008304909116151593830184905263ffffffff6201000083048116958401869052600160301b8304811660608501819052600160501b9093041660809093018390529390939590929450565b604080519515158652931515602086015263ffffffff928316938501939093528116606084015216608082015260a001610257565b6104e6610529366004613445565b60046020526000908152604090205460ff8082169161010081049091169063ffffffff620100008204811691600160301b8104821691600160501b9091041685565b6105b7610579366004613445565b60006020819052908152604090205460ff8082169161010081049091169062010000810463ffffffff1690600160301b90046001600160a01b031684565b60405161025794939291906135aa565b60085461024b90600160481b900460ff1681565b61029e61260c565b6008546102ff90600160201b900463ffffffff1681565b61029e612709565b61029e6129e1565b61029e6106183660046135f7565b612ac4565b61063061062b36600461342a565b612f3f565b60405161025795949392919061366d565b6102ff610e1081565b6102ff62278d0081565b6102ff603281565b61029e613090565b61041e613104565b61035361067a36600461342a565b6007602052600090815260409020546001600160a01b031681565b60008060008060088054906101000a900460ff1680156106c45750600354600160401b900463ffffffff164211155b600854909450600160481b900460ff1680156106e8575060035463ffffffff164210155b80156107035750600354600160201b900463ffffffff164211155b6003549093504263ffffffff9091161161071e576000610732565b60035461073290429063ffffffff166136d0565b60035490925042600160201b90910463ffffffff161161075357600061076e565b60035461076e904290600160201b900463ffffffff166136d0565b905090919293565b6001546001600160a01b031633146107a95760405162461bcd60e51b81526004016107a0906136f4565b60405180910390fd5b600154600160a01b900460ff16156107d35760405162461bcd60e51b81526004016107a09061371f565b600354600160681b900460ff16156107fd5760405162461bcd60e51b81526004016107a090613746565b600354600160601b900460ff1661084b5760405162461bcd60e51b815260206004820152601260248201527127379030b1ba34bb329032b632b1ba34b7b760711b60448201526064016107a0565b600854600160481b900460ff161561089b5760405162461bcd60e51b81526020600482015260136024820152722b37ba34b7339030b63932b0b23c9037b832b760691b60448201526064016107a0565b600854600263ffffffff90911610156108f65760405162461bcd60e51b815260206004820152601a60248201527f4e656564206174206c6561737420322063616e6469646174657300000000000060448201526064016107a0565b6008805461ffff60401b1916600160481b17905560035463ffffffff16421015610930576003805463ffffffff19164263ffffffff161790555b565b600081600481111561094657610946613594565b6001600160a01b03841660009081526020819052604090205460ff16600481111561097357610973613594565b14801561099d57506001600160a01b038316600090815260208190526040902054610100900460ff165b9392505050565b60033360009081526020819052604090205460ff1660048111156109ca576109ca613594565b1015806109ff5750336001600160a01b037f000000000000000000000000000000000000000000000000000000000000000016145b610a435760405162461bcd60e51b815260206004820152601560248201527410591b5a5b881858d8d95cdcc81c995c5d5a5c9959605a1b60448201526064016107a0565b600154600160a01b900460ff1615610a6d5760405162461bcd60e51b81526004016107a09061371f565b600354600160681b900460ff1615610a975760405162461bcd60e51b81526004016107a090613746565b82610ad15760405162461bcd60e51b815260206004820152600a602482015269456d707479206e616d6560b01b60448201526064016107a0565b80610b0c5760405162461bcd60e51b815260206004820152600b60248201526a456d70747920706172747960a81b60448201526064016107a0565b600854603263ffffffff90911610610b5f5760405162461bcd60e51b815260206004820152601660248201527513585e0818d85b991a59185d195cc81c995858da195960521b60448201526064016107a0565b600854600160481b900460ff1615610bb95760405162461bcd60e51b815260206004820152601860248201527f43616e6e6f742061646420647572696e6720766f74696e67000000000000000060448201526064016107a0565b600354600160601b900460ff16610c075760405162461bcd60e51b815260206004820152601260248201527127379030b1ba34bb329032b632b1ba34b7b760711b60448201526064016107a0565b6008805463ffffffff16906000610c1d83613772565b91906101000a81548163ffffffff021916908363ffffffff160217905550506040518060a0016040528085858080601f016020809104026020016040519081016040528093929190818152602001838380828437600092019190915250505090825250604080516020601f86018190048102820181019092528481529181019190859085908190840183828082843760009201829052509385525050506020808301829052600160408085019190915263ffffffff4281166060909501949094526008549093168252600590522081518190610cf99082613834565b5060208201516001820190610d0e9082613834565b5060408281015160029092018054606085015160809095015163ffffffff908116650100000000000268ffffffff000000000019961515600160201b0264ffffffffff19909316958216959095179190911794909416929092179091556008549051339291909116907fb536fb3b8e4945351f99daa11afeebc3b753acd5858493fcb764998dd30f0d4c90610daa90889088908890889061391d565b60405180910390a350505050565b6001546001600160a01b03163314610de25760405162461bcd60e51b81526004016107a0906136f4565b600154600160a01b900460ff1615610e0c5760405162461bcd60e51b81526004016107a09061371f565b8060008163ffffffff16118015610e2f575060085463ffffffff90811690821611155b610e4b5760405162461bcd60e51b81526004016107a09061394f565b63ffffffff8116600090815260056020526040902060020154600160201b900460ff16610eaf5760405162461bcd60e51b815260206004820152601260248201527143616e64696461746520696e61637469766560701b60448201526064016107a0565b600354600160681b900460ff1615610ed95760405162461bcd60e51b81526004016107a090613746565b600854600160481b900460ff1615610f335760405162461bcd60e51b815260206004820152601f60248201527f43616e6e6f74206465616374697661746520647572696e6720766f74696e670060448201526064016107a0565b5063ffffffff166000908152600560205260409020600201805464ff0000000019169055565b6008546000906060908190839063ffffffff16610fa85760405162461bcd60e51b815260206004820152600d60248201526c4e6f2063616e6469646174657360981b60448201526064016107a0565b610fb06131ec565b63ffffffff808216600081815260056020526040902060020154929650911691501561111c5763ffffffff841660009081526005602052604090208054610ff6906137ab565b80601f0160208091040260200160405190810160405280929190818152602001828054611022906137ab565b801561106f5780601f106110445761010080835404028352916020019161106f565b820191906000526020600020905b81548152906001019060200180831161105257829003601f168201915b5050505063ffffffff8616600090815260056020526040902060010180549295509161109b91506137ab565b80601f01602080910402602001604051908101604052809291908181526020018280546110c7906137ab565b80156111145780601f106110e957610100808354040283529160200191611114565b820191906000526020600020905b8154815290600101906020018083116110f757829003601f168201915b505050505091505b90919293565b60033360009081526020819052604090205460ff16600481111561114857611148613594565b10158061117d5750336001600160a01b037f000000000000000000000000000000000000000000000000000000000000000016145b6111c15760405162461bcd60e51b815260206004820152601560248201527410591b5a5b881858d8d95cdcc81c995c5d5a5c9959605a1b60448201526064016107a0565b600854600160401b900460ff1680156111e95750600354600160401b900463ffffffff164211155b61122b5760405162461bcd60e51b8152602060048201526013602482015272149959da5cdd1c985d1a5bdb8818db1bdcd959606a1b60448201526064016107a0565b600154600160a01b900460ff16156112555760405162461bcd60e51b81526004016107a09061371f565b600354600160681b900460ff161561127f5760405162461bcd60e51b81526004016107a090613746565b6001600160a01b0381166112a55760405162461bcd60e51b81526004016107a09061397a565b6001600160a01b03811660009081526004602052604090205460ff16156113035760405162461bcd60e51b8152602060048201526012602482015271105b1c9958591e481c9959da5cdd195c995960721b60448201526064016107a0565b6040805160a08101825260018152600060208083018281526008805463ffffffff600160201b9182900481168789019081526060880187815242831660808a019081526001600160a01b038c16808a52600489528b8a209a518b5498519451935192518616600160501b0263ffffffff60501b19938716600160301b0269ffffffff0000000000001995881662010000029590951669ffffffffffffffff0000199615156101000261ff00199315159390931661ffff19909b169a909a17919091179490941697909717919091171617909655815460068552878620805463ffffffff191691839004881691909117905590540484168352600790915292902080546001600160a01b03191690921790915560038054600160701b900490911690600e61142f83613772565b82546101009290920a63ffffffff8181021990931691831602179091556008546040514283168152600160201b90910490911691506001600160a01b038316907fef11677f5cc4b4d7cd4952714e83899c4c7f92a151b0c8d157cd49618ea69dc59060200160405180910390a360088054600160201b900463ffffffff169060046114b983613772565b91906101000a81548163ffffffff021916908363ffffffff1602179055505050565b6001546001600160a01b031633148061151c5750336001600160a01b037f000000000000000000000000000000000000000000000000000000000000000016145b6115385760405162461bcd60e51b81526004016107a0906139a3565b6001805461ffff60a01b191661010160a01b179055565b336001600160a01b037f000000000000000000000000000000000000000000000000000000000000000016146115b45760405162461bcd60e51b815260206004820152600a60248201526927b7363c9037bbb732b960b11b60448201526064016107a0565b6040805160808101825260038152600160208083018290524263ffffffff16838501527f00000000000000000000000000000000000000000000000000000000000000006001600160a01b0316606084018190526000908152908190529290922081518154929391929091839160ff19169083600481111561163857611638613594565b021790555060208201518154604084015160609094015165ffffffffff00199091166101009215159290920265ffffffff00001916919091176201000063ffffffff9094169390930292909217600160301b600160d01b031916600160301b6001600160a01b03938416021790557f00000000000000000000000000000000000000000000000000000000000000001660036040516001600160a01b037f000000000000000000000000000000000000000000000000000000000000000016907f2459ac88ac07c4020108de12f1f8675bbf7e6928b4cfc156bde4727aacf7897390600090a4565b60608060008060008563ffffffff16118015611748575060085463ffffffff90811690861611155b6117645760405162461bcd60e51b81526004016107a09061394f565b63ffffffff8516600090815260056020526040808220815160a08101909252805482908290611792906137ab565b80601f01602080910402602001604051908101604052809291908181526020018280546117be906137ab565b801561180b5780601f106117e05761010080835404028352916020019161180b565b820191906000526020600020905b8154815290600101906020018083116117ee57829003601f168201915b50505050508152602001600182018054611824906137ab565b80601f0160208091040260200160405190810160405280929190818152602001828054611850906137ab565b801561189d5780601f106118725761010080835404028352916020019161189d565b820191906000526020600020905b81548152906001019060200180831161188057829003601f168201915b50505091835250506002919091015463ffffffff808216602080850191909152600160201b830460ff161515604080860191909152650100000000009093049091166060938401528351908401519184015193909201519199909850919650945092505050565b6001546001600160a01b03163314806119455750336001600160a01b037f000000000000000000000000000000000000000000000000000000000000000016145b6119615760405162461bcd60e51b81526004016107a0906139a3565b600154600160a01b900460ff161561198b5760405162461bcd60e51b81526004016107a09061371f565b6001600160a01b0382166119b15760405162461bcd60e51b81526004016107a09061397a565b60008160048111156119c5576119c5613594565b03611a075760405162461bcd60e51b815260206004820152601260248201527143616e6e6f742061737369676e204e4f4e4560701b60448201526064016107a0565b6004816004811115611a1b57611a1b613594565b03611af857336001600160a01b037f00000000000000000000000000000000000000000000000000000000000000001614611aa35760405162461bcd60e51b815260206004820152602260248201527f4f6e6c79206f776e65722063616e2061737369676e20636f6d6d697373696f6e60448201526132b960f11b60648201526084016107a0565b6001546001600160a01b0390811690831603611af85760405162461bcd60e51b815260206004820152601460248201527320b63932b0b23c9031b7b6b6b4b9b9b4b7b732b960611b60448201526064016107a0565b6040518060800160405280826004811115611b1557611b15613594565b81526020016001151581526020014263ffffffff168152602001336001600160a01b0316815250600080846001600160a01b03166001600160a01b0316815260200190815260200160002060008201518160000160006101000a81548160ff02191690836004811115611b8a57611b8a613594565b02179055506020820151815460408401516060909401516001600160a01b0316600160301b02600160301b600160d01b031963ffffffff909516620100000265ffffffff000019931515610100029390931665ffffffffff00199092169190911791909117929092169190911790556004816004811115611c0d57611c0d613594565b148015611c2857506001546001600160a01b03838116911614155b15611c7d57600180546001600160a01b038481166001600160a01b0319831681179093556040519116919082907fd5ac32accaab437dd0b2a40e9ec05c4b9b41fb7008b2821e9c6bf8c6c6751eeb90600090a3505b33816004811115611c9057611c90613594565b6040516001600160a01b038516907f2459ac88ac07c4020108de12f1f8675bbf7e6928b4cfc156bde4727aacf7897390600090a45050565b6001546001600160a01b03163314611cf25760405162461bcd60e51b81526004016107a0906136f4565b600154600160a01b900460ff1615611d1c5760405162461bcd60e51b81526004016107a09061371f565b600354600160681b900460ff1615611d465760405162461bcd60e51b81526004016107a090613746565b600854600160481b900460ff1615611d955760405162461bcd60e51b815260206004820152601260248201527110db1bdcd9481d9bdd1a5b99c8199a5c9cdd60721b60448201526064016107a0565b600354600160901b900463ffffffff16611ddc5760405162461bcd60e51b81526020600482015260086024820152674e6f20766f74657360c01b60448201526064016107a0565b600354600160201b900463ffffffff164211611e2f5760405162461bcd60e51b8152602060048201526012602482015271115b1958dd1a5bdb881b9bdd08195b99195960721b60448201526064016107a0565b6000611e396131ec565b6003805463ffffffff808416600160b01b81026dffffffff0000000000000000ffff60601b1990931692909217600160681b17909255600081815260056020526040908190206002810154915194955091937fb43dd9b6498ed2862915679ff6a8ff702a8fb4486667a699b1b604c1848f728393611eb9939216906139da565b60405180910390a250565b6001546001600160a01b0316331480611f055750336001600160a01b037f000000000000000000000000000000000000000000000000000000000000000016145b611f215760405162461bcd60e51b81526004016107a0906139a3565b600154600160a01b900460ff1615611f4b5760405162461bcd60e51b81526004016107a09061371f565b6001600160a01b038116611f715760405162461bcd60e51b81526004016107a09061397a565b7f00000000000000000000000000000000000000000000000000000000000000006001600160a01b0316816001600160a01b031603611fe85760405162461bcd60e51b815260206004820152601360248201527221b0b73737ba103932bb37b5b29037bbb732b960691b60448201526064016107a0565b6001546001600160a01b03908116908216036120465760405162461bcd60e51b815260206004820152601a60248201527f43616e6e6f74207265766f6b6520636f6d6d697373696f6e657200000000000060448201526064016107a0565b6001600160a01b03811660009081526020819052604081205460ff169081600481111561207557612075613594565b036120b65760405162461bcd60e51b81526020600482015260116024820152704e6f20726f6c6520746f207265766f6b6560781b60448201526064016107a0565b6040805160808101825260008082526020808301829052828401829052606083018290526001600160a01b03861682528190529190912081518154829060ff1916600183600481111561210b5761210b613594565b02179055506020820151815460408401516060909401516001600160a01b0316600160301b02600160301b600160d01b031963ffffffff909516620100000265ffffffff000019931515610100029390931665ffffffffff00199092169190911791909117929092169190911790553381600481111561218d5761218d613594565b6040516001600160a01b038516907fdc8ee88592cee6126ab42f95859fdf2bbf7b0a614a14d4fb307b601e2b5b0b0590600090a45050565b600354600280546060926000928392839283928392839283928392909163ffffffff80821692600160201b8304821692600160401b810483169260ff600160601b8304811693600160681b840490911692600160701b8104831692600160901b8204811692600160b01b9092041690899061223f906137ab565b80601f016020809104026020016040519081016040528092919081815260200182805461226b906137ab565b80156122b85780601f1061228d576101008083540402835291602001916122b8565b820191906000526020600020905b81548152906001019060200180831161229b57829003601f168201915b50505050509850985098509850985098509850985098509850909192939495969798565b600854600160481b900460ff1680156122fe5750600354600160601b900460ff165b8015612312575060035463ffffffff164210155b801561232d5750600354600160201b900463ffffffff164211155b6123695760405162461bcd60e51b815260206004820152600d60248201526c159bdd1a5b99c818db1bdcd959609a1b60448201526064016107a0565b3360009081526004602052604090205460ff166123b95760405162461bcd60e51b815260206004820152600e60248201526d139bdd081c9959da5cdd195c995960921b60448201526064016107a0565b33600090815260046020526040902054610100900460ff161561240e5760405162461bcd60e51b815260206004820152600d60248201526c105b1c9958591e481d9bdd1959609a1b60448201526064016107a0565b8060008163ffffffff16118015612431575060085463ffffffff90811690821611155b61244d5760405162461bcd60e51b81526004016107a09061394f565b63ffffffff8116600090815260056020526040902060020154600160201b900460ff166124b15760405162461bcd60e51b815260206004820152601260248201527143616e64696461746520696e61637469766560701b60448201526064016107a0565b600154600160a01b900460ff16156124db5760405162461bcd60e51b81526004016107a09061371f565b600354600160681b900460ff16156125055760405162461bcd60e51b81526004016107a090613746565b336000908152600460209081526040808320805463ffffffff808816600160301b810269ffffffff00000000ff0019909316929092176101001790925584526005909252822060020180549091169161255d83613772565b82546101009290920a63ffffffff81810219909316918316021790915560038054600160901b90049091169150601261259583613772565b91906101000a81548163ffffffff021916908363ffffffff160217905550508163ffffffff16336001600160a01b03167fbc7233f7691aac91bc322c5ab2e9dfc5cff367f4207a3976ed89fc0d517cf8ba42604051612600919063ffffffff91909116815260200190565b60405180910390a35050565b6001546001600160a01b031633146126365760405162461bcd60e51b81526004016107a0906136f4565b600154600160a01b900460ff16156126605760405162461bcd60e51b81526004016107a09061371f565b600354600160681b900460ff161561268a5760405162461bcd60e51b81526004016107a090613746565b600854600160481b900460ff166126d55760405162461bcd60e51b815260206004820152600f60248201526e2b37ba34b733903737ba1037b832b760891b60448201526064016107a0565b6008805469ff000000000000000000191690556003805467ffffffff000000001916600160201b4263ffffffff1602179055565b600854600160401b900460ff1680156127315750600354600160401b900463ffffffff164211155b6127735760405162461bcd60e51b8152602060048201526013602482015272149959da5cdd1c985d1a5bdb8818db1bdcd959606a1b60448201526064016107a0565b600154600160a01b900460ff161561279d5760405162461bcd60e51b81526004016107a09061371f565b600354600160681b900460ff16156127c75760405162461bcd60e51b81526004016107a090613746565b3360009081526004602052604090205460ff161561281c5760405162461bcd60e51b8152602060048201526012602482015271105b1c9958591e481c9959da5cdd195c995960721b60448201526064016107a0565b6040805160a08101825260018152600060208083018281526008805463ffffffff600160201b9182900481168789019081526060880187815242831660808a0190815233808a52600489528b8a209a518b5498519451935192518616600160501b0263ffffffff60501b19938716600160301b0269ffffffff0000000000001995881662010000029590951669ffffffffffffffff0000199615156101000261ff00199315159390931661ffff19909b169a909a17919091179490941697909717919091171617909655815460068552878620805463ffffffff191691839004881691909117905590540484168352600790915292902080546001600160a01b03191690921790915560038054600160701b900490911690600e61293f83613772565b82546101009290920a63ffffffff8181021990931691831602179091556008546040514283168152600160201b909104909116915033907fef11677f5cc4b4d7cd4952714e83899c4c7f92a151b0c8d157cd49618ea69dc59060200160405180910390a360088054600160201b900463ffffffff169060046129c083613772565b91906101000a81548163ffffffff021916908363ffffffff16021790555050565b6001546001600160a01b0316331480612a225750336001600160a01b037f000000000000000000000000000000000000000000000000000000000000000016145b612a3e5760405162461bcd60e51b81526004016107a0906139a3565b6001805460ff600160a01b808304821615810260ff60a01b19909316929092179283905591041615612a975760405133907f0e453e53649b13b8c30ef82dd7bce6c745cfcc7a1dc95170b4750764194f19b290600090a2565b60405133907f92414512bd79c80103975d8bef2f4e78aa5930c2869b4bd6139d98836ba8d91890600090a2565b6001546001600160a01b03163314612aee5760405162461bcd60e51b81526004016107a0906136f4565b600154600160a01b900460ff1615612b185760405162461bcd60e51b81526004016107a09061371f565b600354600160681b900460ff1615612b425760405162461bcd60e51b81526004016107a090613746565b83612b7d5760405162461bcd60e51b815260206004820152600b60248201526a456d707479207469746c6560a81b60448201526064016107a0565b428363ffffffff1611612bc55760405162461bcd60e51b815260206004820152601060248201526f496e76616c696420646561646c696e6560801b60448201526064016107a0565b8263ffffffff168263ffffffff1611612c155760405162461bcd60e51b8152602060048201526012602482015271496e76616c69642073746172742074696d6560701b60448201526064016107a0565b8163ffffffff168163ffffffff1611612c635760405162461bcd60e51b815260206004820152601060248201526f496e76616c696420656e642074696d6560801b60448201526064016107a0565b610e10612c7083836136d0565b63ffffffff161015612cb95760405162461bcd60e51b8152602060048201526012602482015271111d5c985d1a5bdb881d1bdbc81cda1bdc9d60721b60448201526064016107a0565b62278d00612cc783836136d0565b63ffffffff161115612d0f5760405162461bcd60e51b81526020600482015260116024820152704475726174696f6e20746f6f206c6f6e6760781b60448201526064016107a0565b600354600160601b900460ff1615612d5b5760405162461bcd60e51b815260206004820152600f60248201526e456c656374696f6e2061637469766560881b60448201526064016107a0565b60405180610120016040528086868080601f016020809104026020016040519081016040528093929190818152602001838380828437600092018290525093855250505063ffffffff80861660208401528481166040840152861660608301526001608083015260a0820181905260c0820181905260e082018190526101009091015280516002908190612def9082613834565b50602082015160019190910180546040808501516060860151608087015160a088015160c089015160e08a0151610100909a015163ffffffff998a1667ffffffffffffffff1990981697909717600160201b958a1695909502949094176cffffffffff00000000000000001916600160401b938916840260ff60601b191617600160601b921515929092029190911764ffffffffff60681b1916600160681b9115159190910263ffffffff60701b191617600160701b928716929092029190911767ffffffffffffffff60901b1916600160901b9686169690960263ffffffff60b01b191695909517600160b01b94909216939093021790556008805461ffff60401b1916909217909155517f3980100dbdf34ee76c93803be602b01a88d8b9db3e07a13b3691c256d442ed2b90612f309087908790869086908990613a71565b60405180910390a15050505050565b600560205260009081526040902080548190612f5a906137ab565b80601f0160208091040260200160405190810160405280929190818152602001828054612f86906137ab565b8015612fd35780601f10612fa857610100808354040283529160200191612fd3565b820191906000526020600020905b815481529060010190602001808311612fb657829003601f168201915b505050505090806001018054612fe8906137ab565b80601f0160208091040260200160405190810160405280929190818152602001828054613014906137ab565b80156130615780601f1061303657610100808354040283529160200191613061565b820191906000526020600020905b81548152906001019060200180831161304457829003601f168201915b5050506002909301549192505063ffffffff8082169160ff600160201b82041691650100000000009091041685565b336001600160a01b037f000000000000000000000000000000000000000000000000000000000000000016146130f55760405162461bcd60e51b815260206004820152600a60248201526927b7363c9037bbb732b960b11b60448201526064016107a0565b6001805460ff60a81b19169055565b600280548190613113906137ab565b80601f016020809104026020016040519081016040528092919081815260200182805461313f906137ab565b801561318c5780601f106131615761010080835404028352916020019161318c565b820191906000526020600020905b81548152906001019060200180831161316f57829003601f168201915b5050506001909301549192505063ffffffff80821691600160201b8104821691600160401b820481169160ff600160601b8204811692600160681b830490911691600160701b8104821691600160901b8204811691600160b01b90041689565b60085460009063ffffffff166132345760405162461bcd60e51b815260206004820152600d60248201526c4e6f2063616e6469646174657360981b60448201526064016107a0565b6001600081905260056020527f1471eb6eb2c5e789fc3de43f8ce62938c7d1836ec861730447e2ada8fd81017d5463ffffffff1660025b60085463ffffffff908116908216116133025763ffffffff8116600090815260056020526040902060020154600160201b900460ff1680156132c9575063ffffffff8181166000908152600560205260409020600201548184169116115b156132f05763ffffffff808216600090815260056020526040902060020154919350169050815b806132fa81613772565b91505061326b565b509092915050565b80356001600160a01b038116811461332157600080fd5b919050565b6000806040838503121561333957600080fd5b6133428361330a565b915060208301356005811061335657600080fd5b809150509250929050565b60008083601f84011261337357600080fd5b50813567ffffffffffffffff81111561338b57600080fd5b6020830191508360208285010111156133a357600080fd5b9250929050565b600080600080604085870312156133c057600080fd5b843567ffffffffffffffff808211156133d857600080fd5b6133e488838901613361565b909650945060208701359150808211156133fd57600080fd5b5061340a87828801613361565b95989497509550505050565b803563ffffffff8116811461332157600080fd5b60006020828403121561343c57600080fd5b61099d82613416565b60006020828403121561345757600080fd5b61099d8261330a565b6000815180845260005b818110156134865760208185018101518683018201520161346a565b506000602082860101526020601f19601f83011685010191505092915050565b600063ffffffff8087168352608060208401526134c66080840187613460565b83810360408501526134d88187613460565b92505080841660608401525095945050505050565b6080815260006135006080830187613460565b82810360208401526135128187613460565b63ffffffff959095166040840152505090151560609091015292915050565b60006101208083526135458184018d613460565b63ffffffff9b8c166020850152998b16604084015250509588166060870152931515608086015291151560a0850152851660c0840152841660e083015290921661010090920191909152919050565b634e487b7160e01b600052602160045260246000fd5b60808101600586106135cc57634e487b7160e01b600052602160045260246000fd5b948152921515602084015263ffffffff9190911660408301526001600160a01b031660609091015290565b60008060008060006080868803121561360f57600080fd5b853567ffffffffffffffff81111561362657600080fd5b61363288828901613361565b9096509450613645905060208701613416565b925061365360408701613416565b915061366160608701613416565b90509295509295909350565b60a08152600061368060a0830188613460565b82810360208401526136928188613460565b63ffffffff968716604085015294151560608401525050921660809092019190915292915050565b634e487b7160e01b600052601160045260246000fd5b63ffffffff8281168282160390808211156136ed576136ed6136ba565b5092915050565b60208082526011908201527027b7363c9031b7b6b6b4b9b9b4b7b732b960791b604082015260600190565b6020808252600d908201526c14de5cdd195b481c185d5cd959609a1b604082015260600190565b602080825260129082015271115b1958dd1a5bdb88199a5b985b1a5e995960721b604082015260600190565b600063ffffffff80831681810361378b5761378b6136ba565b6001019392505050565b634e487b7160e01b600052604160045260246000fd5b600181811c908216806137bf57607f821691505b6020821081036137df57634e487b7160e01b600052602260045260246000fd5b50919050565b601f82111561382f57600081815260208120601f850160051c8101602086101561380c5750805b601f850160051c820191505b8181101561382b57828155600101613818565b5050505b505050565b815167ffffffffffffffff81111561384e5761384e613795565b6138628161385c84546137ab565b846137e5565b602080601f831160018114613897576000841561387f5750858301515b600019600386901b1c1916600185901b17855561382b565b600085815260208120601f198616915b828110156138c6578886015182559484019460019091019084016138a7565b50858210156138e45787850151600019600388901b60f8161c191681555b5050505050600190811b01905550565b81835281816020850137506000828201602090810191909152601f909101601f19169091010190565b6040815260006139316040830186886138f4565b82810360208401526139448185876138f4565b979650505050505050565b602080825260119082015270496e76616c69642063616e64696461746560781b604082015260600190565b6020808252600f908201526e496e76616c6964206164647265737360881b604082015260600190565b6020808252601a908201527f4f6e6c7920636f6d6d697373696f6e6572206f72206f776e6572000000000000604082015260600190565b6040815260008084546139ec816137ab565b8060408601526060600180841660008114613a0e5760018114613a2857613a59565b60ff1985168884015283151560051b880183019550613a59565b8960005260208060002060005b86811015613a505781548b8201870152908401908201613a35565b8a018501975050505b5050505063ffffffff8516602085015250905061099d565b608081526000613a856080830187896138f4565b63ffffffff958616602084015293851660408301525092166060909201919091529291505056fea2646970667358221220c1c56491ee191130c6345ca80ba4c41aefdb2da1adf20216a38b16bc08fe451764736f6c634300081300332459ac88ac07c4020108de12f1f8675bbf7e6928b4cfc156bde4727aacf78973",
  "immutableReferences": {
    "65": [
      {
        "length": 32,
        "start": 817
      },
      {
        "length": 32,
        "start": 2525
      },
      {
        "length": 32,
        "start": 4443
      },
      {
        "length": 32,
        "start": 5370
      },
      {
        "length": 32,
        "start": 5466
      },
      {
        "length": 32,
        "start": 5593
      },
      {
        "length": 32,
        "start": 5800
      },
      {
        "length": 32,
        "start": 5847
      },
      {
        "length": 32,
        "start": 6435
      },
      {
        "length": 32,
        "start": 6699
      },
      {
        "length": 32,
        "start": 7907
      },
      {
        "length": 32,
        "start": 8051
      },
      {
        "length": 32,
        "start": 10752
      },
      {
        "length": 32,
        "start": 12443
      }
    ]
  },
  "source": "// SPDX-License-Identifier: MIT\npragma solidity ^0.8.19;\n\ncontract Electra {    \n    enum Role { NONE, VOTER, OBSERVER, ADMIN, COMMISSIONER }\n    \n    struct User {\n        Role role;\n        bool isActive;\n        uint32 assignedAt;\n        address assignedBy;\n    }\n    \n    struct Voter {\n        bool isRegistered;\n        bool hasVoted;\n        uint32 voterID;\n        uint32 candidateVoted;\n        uint32 registrationTime;\n    }\n    \n    struct Candidate {\n        string name;\n        string party;\n        uint32 voteCount;\n        bool isActive;\n        uint32 addedAt;\n    }\n    \n    struct Election {\n        string title;\n        uint32 startTime;\n        uint32 endTime;\n        uint32 registrationDeadline;\n        bool isActive;\n        bool isFinalized;\n        uint32 totalVoters;\n        uint32 totalVotes;\n        uint32 winnerID;\n    }\n    \n    // ==================== STATE VARIABLES ====================\n    \n    // Access Control\n    mapping(address => User) public users;\n    address public immutable systemOwner;\n    address public currentCommissioner;\n    \n    // Emergency controls\n    bool public systemPaused;\n    bool public emergencyMode;\n    \n    // Core election data\n    Election public currentElection;\n    mapping(address => Voter) public voters;\n    mapping(uint32 => Candidate) public candidates;\n    \n    // Mappings for efficient access\n    mapping(address => uint32) public voterToID;\n    mapping(uint32 => address) public idToVoter;\n    \n    // Counters\n    uint32 public totalCandidates;\n    uint32 public nextVoterID = 1;\n    \n    // Election states\n    bool public registrationOpen;\n    bool public votingOpen;\n    \n    // Constants\n    uint32 public constant MAX_CANDIDATES = 50;\n    uint32 public constant MIN_VOTING_DURATION = 1 hours;\n    uint32 public constant MAX_VOTING_DURATION = 30 days;\n    \n    // ==================== EVENTS ====================\n    \n    event RoleAssigned(address indexed user, Role indexed role, address indexed assignedBy);\n    event RoleRevoked(address indexed user, Role indexed oldRole, address indexed revokedBy);\n    event CommissionerChanged(address indexed oldCommissioner, address indexed newCommissioner);\n    event SystemPaused(address indexed pausedBy);\n    event SystemUnpaused(address indexed unpausedBy);\n    \n    event ElectionCreated(string title, uint32 startTime, uint32 endTime, uint32 registrationDeadline);\n    event VoterRegistered(address indexed voter, uint32 indexed voterID, uint32 timestamp);\n    event CandidateAdded(uint32 indexed candidateID, string name, string party, address indexed addedBy);\n    event VoteCast(address indexed voter, uint32 indexed candidateID, uint32 timestamp);\n    event ElectionFinalized(uint32 indexed winnerID, string winnerName, uint32 totalVotes);\n        \n    modifier onlyOwner() {\n        require(msg.sender == systemOwner, \"Only owner\");\n        _;\n    }\n    \n    modifier onlyCommissioner() {\n        require(msg.sender == currentCommissioner, \"Only commissioner\");\n        _;\n    }\n    \n    modifier onlyCommissionerOrOwner() {\n        require(msg.sender == currentCommissioner || msg.sender == systemOwner, \"Only commissioner or owner\");\n        _;\n    }\n    \n    modifier onlyAdmin() {\n        require(\n            users[msg.sender].role >= Role.ADMIN || msg.sender == systemOwner,\n            \"Admin access required\"\n        );\n        _;\n    }\n    \n    modifier whenNotPaused() {\n        require(!systemPaused, \"System paused\");\n        _;\n    }\n    \n    modifier registrationIsOpen() {\n        require(registrationOpen && block.timestamp <= currentElection.registrationDeadline, \"Registration closed\");\n        _;\n    }\n    \n    modifier votingIsOpen() {\n        require(\n            votingOpen && \n            currentElection.isActive && \n            block.timestamp >= currentElection.startTime && \n            block.timestamp <= currentElection.endTime,\n            \"Voting closed\"\n        );\n        _;\n    }\n    \n    modifier onlyRegisteredVoter() {\n        require(voters[msg.sender].isRegistered, \"Not registered\");\n        _;\n    }\n    \n    modifier hasNotVoted() {\n        require(!voters[msg.sender].hasVoted, \"Already voted\");\n        _;\n    }\n    \n    modifier electionNotFinalized() {\n        require(!currentElection.isFinalized, \"Election finalized\");\n        _;\n    }\n    \n    modifier validCandidate(uint32 _candidateID) {\n        require(_candidateID > 0 && _candidateID <= totalCandidates, \"Invalid candidate\");\n        require(candidates[_candidateID].isActive, \"Candidate inactive\");\n        _;\n    }\n\n    constructor() {\n        systemOwner = msg.sender;\n        currentCommissioner = msg.sender;\n        \n        users[msg.sender] = User({\n            role: Role.ADMIN,\n            isActive: true,\n            assignedAt: uint32(block.timestamp),\n            assignedBy: msg.sender\n        });\n        \n        emit RoleAssigned(msg.sender, Role.ADMIN, msg.sender);\n\n        users[msg.sender] = User({\n            role: Role.COMMISSIONER,\n            isActive: true,\n            assignedAt: uint32(block.timestamp),\n            assignedBy: msg.sender\n        });\n\n        emit RoleAssigned(msg.sender, Role.COMMISSIONER, msg.sender);\n    }\n\n    function setOwnerAsAdmin() external onlyOwner {\n        users[systemOwner] = User({\n            role: Role.ADMIN,\n            isActive: true,\n            assignedAt: uint32(block.timestamp),\n            assignedBy: systemOwner\n        });\n        \n        emit RoleAssigned(systemOwner, Role.ADMIN, systemOwner);\n    }\n        \n    function assignRole(address _user, Role _role) \n        external \n        onlyCommissionerOrOwner \n        whenNotPaused \n    {\n        require(_user != address(0), \"Invalid address\");\n        require(_role != Role.NONE, \"Cannot assign NONE\");\n        \n        if (_role == Role.COMMISSIONER) {\n            require(msg.sender == systemOwner, \"Only owner can assign commissioner\");\n            require(_user != currentCommissioner, \"Already commissioner\");\n        }\n        \n        users[_user] = User({\n            role: _role,\n            isActive: true,\n            assignedAt: uint32(block.timestamp),\n            assignedBy: msg.sender\n        });\n        \n        if (_role == Role.COMMISSIONER && _user != currentCommissioner) {\n            address oldCommissioner = currentCommissioner;\n            currentCommissioner = _user;\n            emit CommissionerChanged(oldCommissioner, _user);\n        }\n        \n        emit RoleAssigned(_user, _role, msg.sender);\n    }\n    \n    function revokeRole(address _user) \n        external \n        onlyCommissionerOrOwner \n        whenNotPaused \n    {\n        require(_user != address(0), \"Invalid address\");\n        require(_user != systemOwner, \"Cannot revoke owner\");\n        require(_user != currentCommissioner, \"Cannot revoke commissioner\");\n        \n        Role oldRole = users[_user].role;\n        require(oldRole != Role.NONE, \"No role to revoke\");\n        \n        users[_user] = User({\n            role: Role.NONE,\n            isActive: false,\n            assignedAt: 0,\n            assignedBy: address(0)\n        });\n        \n        emit RoleRevoked(_user, oldRole, msg.sender);\n    }\n    \n    function pauseSystem() external onlyCommissionerOrOwner {\n        systemPaused = !systemPaused;\n        if (systemPaused) {\n            emit SystemPaused(msg.sender);\n        } else {\n            emit SystemUnpaused(msg.sender);\n        }\n    }\n    \n    function activateEmergency() external onlyCommissionerOrOwner {\n        emergencyMode = true;\n        systemPaused = true;\n    }\n    \n    function deactivateEmergency() external onlyOwner {\n        emergencyMode = false;\n    }\n    \n    // ==================== ELECTION MANAGEMENT ====================\n    \n    function createElection(\n        string calldata _title,\n        uint32 _registrationDeadline,\n        uint32 _startTime,\n        uint32 _endTime\n    ) external onlyCommissioner whenNotPaused electionNotFinalized {\n        require(bytes(_title).length > 0, \"Empty title\");\n        require(_registrationDeadline > block.timestamp, \"Invalid deadline\");\n        require(_startTime > _registrationDeadline, \"Invalid start time\");\n        require(_endTime > _startTime, \"Invalid end time\");\n        require(_endTime - _startTime >= MIN_VOTING_DURATION, \"Duration too short\");\n        require(_endTime - _startTime <= MAX_VOTING_DURATION, \"Duration too long\");\n        require(!currentElection.isActive, \"Election active\");\n        \n        currentElection = Election({\n            title: _title,\n            startTime: _startTime,\n            endTime: _endTime,\n            registrationDeadline: _registrationDeadline,\n            isActive: true,\n            isFinalized: false,\n            totalVoters: 0,\n            totalVotes: 0,\n            winnerID: 0\n        });\n        \n        registrationOpen = true;\n        votingOpen = false;\n        \n        emit ElectionCreated(_title, _startTime, _endTime, _registrationDeadline);\n    }\n    \n    function startVoting() external onlyCommissioner whenNotPaused electionNotFinalized {\n        require(currentElection.isActive, \"No active election\");\n        require(!votingOpen, \"Voting already open\");\n        require(totalCandidates >= 2, \"Need at least 2 candidates\");\n        \n        registrationOpen = false;\n        votingOpen = true;\n        \n        if (block.timestamp < currentElection.startTime) {\n            currentElection.startTime = uint32(block.timestamp);\n        }\n    }\n    \n    function endVoting() external onlyCommissioner whenNotPaused electionNotFinalized {\n        require(votingOpen, \"Voting not open\");\n        votingOpen = false;\n        currentElection.endTime = uint32(block.timestamp);\n    }\n    \n    function finalizeElection() external onlyCommissioner whenNotPaused electionNotFinalized {\n        require(!votingOpen, \"Close voting first\");\n        require(currentElection.totalVotes > 0, \"No votes\");\n        require(block.timestamp > currentElection.endTime, \"Election not ended\");\n        \n        uint32 winnerID = _calculateWinner();\n        \n        currentElection.isFinalized = true;\n        currentElection.isActive = false;\n        currentElection.winnerID = winnerID;\n        \n        emit ElectionFinalized(winnerID, candidates[winnerID].name, candidates[winnerID].voteCount);\n    }\n    \n    // ==================== CANDIDATE MANAGEMENT ====================\n    \n    function addCandidate(\n        string calldata _name,\n        string calldata _party\n    ) external onlyAdmin whenNotPaused electionNotFinalized {\n        require(bytes(_name).length > 0, \"Empty name\");\n        require(bytes(_party).length > 0, \"Empty party\");\n        require(totalCandidates < MAX_CANDIDATES, \"Max candidates reached\");\n        require(!votingOpen, \"Cannot add during voting\");\n        require(currentElection.isActive, \"No active election\");\n        \n        totalCandidates++;\n        candidates[totalCandidates] = Candidate({\n            name: _name,\n            party: _party,\n            voteCount: 0,\n            isActive: true,\n            addedAt: uint32(block.timestamp)\n        });\n        \n        emit CandidateAdded(totalCandidates, _name, _party, msg.sender);\n    }\n    \n    function deactivateCandidate(uint32 _candidateID) \n        external \n        onlyCommissioner \n        whenNotPaused \n        validCandidate(_candidateID) \n        electionNotFinalized \n    {\n        require(!votingOpen, \"Cannot deactivate during voting\");\n        candidates[_candidateID].isActive = false;\n    }\n    \n    // ==================== VOTER MANAGEMENT ====================\n    \n    function registerVoter(address _voterAddress) \n        external \n        onlyAdmin \n        registrationIsOpen \n        whenNotPaused \n        electionNotFinalized \n    {\n        require(_voterAddress != address(0), \"Invalid address\");\n        require(!voters[_voterAddress].isRegistered, \"Already registered\");\n        \n        voters[_voterAddress] = Voter({\n            isRegistered: true,\n            hasVoted: false,\n            candidateVoted: 0,\n            voterID: nextVoterID,\n            registrationTime: uint32(block.timestamp)\n        });\n        \n        voterToID[_voterAddress] = nextVoterID;\n        idToVoter[nextVoterID] = _voterAddress;\n        \n        currentElection.totalVoters++;\n        \n        emit VoterRegistered(_voterAddress, nextVoterID, uint32(block.timestamp));\n        nextVoterID++;\n    }\n    \n    function selfRegister() \n        external \n        registrationIsOpen \n        whenNotPaused \n        electionNotFinalized \n    {\n        require(!voters[msg.sender].isRegistered, \"Already registered\");\n        \n        voters[msg.sender] = Voter({\n            isRegistered: true,\n            hasVoted: false,\n            candidateVoted: 0,\n            voterID: nextVoterID,\n            registrationTime: uint32(block.timestamp)\n        });\n        \n        voterToID[msg.sender] = nextVoterID;\n        idToVoter[nextVoterID] = msg.sender;\n        \n        currentElection.totalVoters++;\n        \n        emit VoterRegistered(msg.sender, nextVoterID, uint32(block.timestamp));\n        nextVoterID++;\n    }\n    \n    // ==================== VOTING ====================\n    \n    function vote(uint32 _candidateID) \n        external \n        votingIsOpen \n        onlyRegisteredVoter \n        hasNotVoted \n        validCandidate(_candidateID) \n        whenNotPaused \n        electionNotFinalized \n    {\n        voters[msg.sender].hasVoted = true;\n        voters[msg.sender].candidateVoted = _candidateID;\n        \n        candidates[_candidateID].voteCount++;\n        currentElection.totalVotes++;\n        \n        emit VoteCast(msg.sender, _candidateID, uint32(block.timestamp));\n    }\n    \n    // ==================== VIEW FUNCTIONS ====================\n    \n    function checkRole(address _user, Role _role) external view returns (bool) {\n        return users[_user].role == _role && users[_user].isActive;\n    }\n    \n    function getVoterInfo(address _voterAddress) \n        external \n        view \n        returns (\n            bool isRegistered,\n            bool hasVoted,\n            uint32 candidateVoted,\n            uint32 voterID,\n            uint32 registrationTime\n        ) \n    {\n        Voter memory voter = voters[_voterAddress];\n        return (\n            voter.isRegistered,\n            voter.hasVoted,\n            voter.candidateVoted,\n            voter.voterID,\n            voter.registrationTime\n        );\n    }\n    \n    function getCandidateInfo(uint32 _candidateID) \n        external \n        view \n        returns (\n            string memory name,\n            string memory party,\n            uint32 voteCount,\n            bool isActive\n        ) \n    {\n        require(_candidateID > 0 && _candidateID <= totalCandidates, \"Invalid candidate\");\n        Candidate memory candidate = candidates[_candidateID];\n        return (candidate.name, candidate.party, candidate.voteCount, candidate.isActive);\n    }\n    \n    function getElectionInfo() \n        external \n        view \n        returns (\n            string memory title,\n            uint32 startTime,\n            uint32 endTime,\n            uint32 registrationDeadline,\n            bool isActive,\n            bool isFinalized,\n            uint32 totalVotersCount,\n            uint32 totalVotes,\n            uint32 winnerID\n        ) \n    {\n        return (\n            currentElection.title,\n            currentElection.startTime,\n            currentElection.endTime,\n            currentElection.registrationDeadline,\n            currentElection.isActive,\n            currentElection.isFinalized,\n            currentElection.totalVoters,\n            currentElection.totalVotes,\n            currentElection.winnerID\n        );\n    }\n    \n    function getElectionStatus() \n        external \n        view \n        returns (\n            bool registrationActive,\n            bool votingActive,\n            uint32 timeUntilStart,\n            uint32 timeUntilEnd\n        ) \n    {\n        registrationActive = registrationOpen && block.timestamp <= currentElection.registrationDeadline;\n        votingActive = votingOpen && \n                      block.timestamp >= currentElection.startTime && \n                      block.timestamp <= currentElection.endTime;\n        \n        timeUntilStart = currentElection.startTime > block.timestamp ? \n                        currentElection.startTime - uint32(block.timestamp) : 0;\n        timeUntilEnd = currentElection.endTime > block.timestamp ? \n                      currentElection.endTime - uint32(block.timestamp) : 0;\n    }\n    \n    function getCurrentWinner() \n        external \n        view \n        returns (\n            uint32 winnerID,\n            string memory winnerName,\n            string memory winnerParty,\n            uint32 maxVotes\n        ) \n    {\n        require(totalCandidates > 0, \"No candidates\");\n        \n        winnerID = _calculateWinner();\n        maxVotes = candidates[winnerID].voteCount;\n        \n        if (winnerID > 0) {\n            winnerName = candidates[winnerID].name;\n            winnerParty = candidates[winnerID].party;\n        }\n    }\n    \n    // ==================== INTERNAL FUNCTIONS ====================\n    \n    function _calculateWinner() internal view returns (uint32) {\n        require(totalCandidates > 0, \"No candidates\");\n        \n        uint32 winnerID = 1;\n        uint32 maxVotes = candidates[1].voteCount;\n        \n        for (uint32 i = 2; i <= totalCandidates; i++) {\n            if (candidates[i].isActive && candidates[i].voteCount > maxVotes) {\n                maxVotes = candidates[i].voteCount;\n                winnerID = i;\n            }\n        }\n        \n        return winnerID;\n    }\n}",
  "sourcePath": "/home/godsfavour/ALU/electra/contracts/Electra.sol",
  "compiler": {
    "name": "solc",
    "version": "0.8.19+commit.7dd6d404.Emscripten.clang"
  },
  "schemaVersion": "3.4.16",
  "updatedAt": "2025-07-28T11:43:49.004Z",
  "networkType": "ethereum",
  "devdoc": {
    "kind": "dev",
    "methods": {},
    "version": 1
  },
  "userdoc": {
    "kind": "user",
    "methods": {},
    "version": 1
  }
}